:020000040800F2
:1000000058FF00206501000893130008F90F00084D
:10001000911300086B080008B531000800000000CB
:100020000000000000000000000000001D2B000880
:100030006D08000800000000CB010008D92B000863
:100040007F0100087F0100087F0100087F01000890
:100050007F0100087F0100087F0100087F01000880
:100060007F0100087F0100087F0100087F01000870
:100070007F0100087F0100087F0100087F01000860
:100080007F0100087F0100087F0100087F01000850
:100090007F0100087F0100087F0100087F01000840
:1000A0007F0100087F0100087F0100087F01000830
:1000B0007F0100087F0100087F0100087F01000820
:1000C0007F0100087F0100087F0100087F01000810
:1000D0007F010008C92E0008CD2E00087F0100080E
:1000E0007F0100087F0100087F0100080000000078
:1000F0000000000000000000000000000000000000
:100100000000000000000000A92D00087F01000889
:100110007F0100087F0100087F0100087F010008BF
:100120007F0100087F0100087F0100087F010008AF
:100130007F010008E50900087F0100087F01000831
:100140007F0100087F0100087F0100087F0100088F
:10015000DFF80CD000F0C8FA004800475D510008F5
:1001600058FF00200648804706480047FEE7FEE7A4
:10017000FEE7FEE7FEE7FEE7FEE7FEE7FEE7FEE757
:10018000FD2B000851010008EFF3108072B6704794
:1001900080F3108870471D484FF0FF010170002068
:1001A00080F309881A48012101701A484FF08051E4
:1001B000016062B6FEE717484FF08051016070475A
:1001C00014484FF080510160704772B6EFF3098018
:1001D00028B1203880E8F00F0F490968086000B5A1
:1001E0000E4880475DF804EB0D480E490A7802700E
:1001F00009480D490A680260106890E8F00F203045
:1002000080F309884EF0040E62B6704722ED00E0DC
:100210005F00002004ED00E078000020412000088D
:100220005C0000205D0000208000002072B6704756
:1002300062B67047EFF3108072B6704780F3108893
:100240007047B0FA80F0704790FAA0F0704730BF66
:10025000704720BF704740EA01039B0703D009E0C5
:1002600008C9121F08C0042AFAD203E011F8013BA2
:1002700000F8013B521EF9D27047D2B201E000F8FB
:10028000012B491EFBD270470022F6E710B5044649
:100290000846114602462046FFF7EFFF204610BDF4
:1002A00020F00040C10DC0F3160040F400007F298B
:1002B00001DA00207047962903DCC1F19601C8409D
:1002C000704796398840704700F0004230F0004097
:1002D0000DD0C10D01F5607142EA01510022C0F359
:1002E0001600520742EAD00240071143704700202F
:1002F0000146704730B50B460146002020220124FC
:1003000009E021FA02F59D4205D303FA02F5491BE3
:1003100004FA02F52844151EA2F10102F1DC30BDF9
:100320002DE9F05F0546002092469B46884606462A
:10033000814640241DE0284641464746224600F0BB
:10034000F4F9B0EB0A0052465B4671EB0B0110D397
:1003500010461946224600F0D9F92D1A67EB01081C
:100360004F4622460120002100F0D0F917EB00098A
:100370004E41201EA4F10104DDDC484631462A46E8
:100380004346BDE8F09F2DE9FE4F074681EA030092
:10039000C00F0E46019021F0004123F00044B81A2E
:1003A000A14105D23846314617461E460B46024645
:1003B00023F00040104304D13846314603B0BDE875
:1003C000F08F350DC5F30A00C3F30A510290401AAD
:1003D0000090402867DAC3F3130040F4801B0198B3
:1003E000924620B10023D2EB030A63EB0B0B00987B
:1003F0005946C0F14002504600F088F980460C464C
:1004000050465946009A00F0A0F9C0197141EF1703
:1004100085EA11533B433FD0019A4AB3009A012A1F
:1004200011DC0022801A61EB05514FF0004303EA12
:100430000555CDE90025801841F580114246234637
:1004400000F0A2F9BAE72E050025401B61EB06017A
:10045000401941F58012001852412818A6F50013E2
:1004600043EB020140EAD47018EB0808644113E042
:1004700064084FEA38084FF0000244EAC0744FEABB
:100480000553801A61EB0301801841F5801149087A
:100490004FEA3000801859414246234603B0BDE878
:1004A000F04F00F064B90198012240000023D0EB26
:1004B000020263EBE07301984FEAE074381A66EBCE
:1004C0000401EBE783F000435DE781F000415AE768
:1004D0002DE9FE4F81EA030421F0004504F00044B9
:1004E00023F000414FF0000A009450EA050302D0C7
:1004F00052EA010304D10020014603B0BDE8F08FA9
:10050000C1F30A53C5F30A542344A3F2F33301930E
:10051000A0FB02B3C5F3130545F4801CC1F313011E
:1005200041F480180CFB023300FB083E810A930A59
:1005300041EA8C5143EA8853A1FB03474FEA9C25CB
:1005400005FB03734FEA982601FB06373D05260598
:1005500045EA1435BBEB06016EEB0503850E920EE2
:1005600045EA8C1542EA8812A5FB0206261E67EBB7
:1005700000070C0D44EA0334A61947EB1350C1F3EE
:1005800013044FF000031946E5FB02014FEA03355F
:1005900045EA1455019B4FEA0432009CA3F10C0379
:1005A000CDE900A445EA060502932B4600F0ECF8DD
:1005B000A3E72DE9F04D81EA030404F0004B21F09C
:1005C000004714464FF0000A23F0004150EA0702AA
:1005D00020D054EA01021DD0C1F30A550246C1F3EE
:1005E0001300C7F30A56C7F3130340F4801143F412
:1005F0008013A6EB0508101BD64608F2FD3873EBF6
:10060000010002D308F1010801E092185B41B8F142
:10061000000F03DA00200146BDE8F08D00204FF402
:100620008015064607460EE0B2EB040C73EB010C96
:1006300004D3121B064363EB01032F436D084FEAFB
:10064000300092185B4150EA050CEDD152EA0300EC
:1006500012D082EA040083EA0105284303D1002274
:100660004FF0004308E0101B8B4102D2012200230F
:1006700002E06FF0010253101AEB060047EB08513D
:1006800010EB0A0041EB0B01BDE8F04D00F06FB834
:10069000C1F30A52C1F3130140F2FF3341F4801158
:1006A0009A4202DA00200146704740F233439A42F0
:1006B000A2F2334202DC524200F037B800F026B812
:1006C00030B5002904DB4FF00044404264EB0101E7
:1006D000002B04DB4FF00044524264EB03039942C9
:1006E00008BF904230BD0000064C074D06E0E068B0
:1006F00040F0010394E8070098471034AC42F6D369
:10070000FFF72AFDBC740008DC740008202A04DB13
:10071000203A00FA02F1002070479140C2F1200314
:1007200020FA03F3194390407047202A04DB203A53
:1007300021FA02F00021704721FA02F3D040C2F101
:1007400020029140084319467047202A06DBCB1748
:10075000203A41FA02F043EAE07306E041FA02F37C
:10076000D040C2F12002914008431946704710B5AD
:10077000002B08DA401C41F1000192185B411A433A
:1007800001D120F0010010BD2DE9FF4D934611B1BC
:10079000B1FA81F202E0B0FA80F220329246FFF71D
:1007A000B5FF039A0746884640EA0B0011435B46B3
:1007B000084304D13846414604B0BDE8F08D1146E7
:1007C00053EA020016D0CAF140025846FFF7ADFFC7
:1007D00004460D464FF00106584652460399FFF76E
:1007E00095FF084300D10026344345EAE6752743C8
:1007F00045EA08080E984FF00005A0EB0A014FEA01
:10080000D7200A314FEA47532A4640EA48504FEA78
:10081000D82402D500200146CEE7281844EB015128
:10082000DDE90C45001904B06941BDE8F04D9EE7D3
:100830000623024A0021024801F05EBA2006002089
:100840003970000870477047704701F0F9FD01F0FA
:1008500037FAFFF7EDFF00231A460121184601F091
:1008600027FCF8E7704770477047FEE770470A219A
:10087000B0FBF1F001F0E6BB0149486170470000B0
:1008800000900240044A0029D16901D0014300E0F0
:100890008143D16170470000009002400549002863
:1008A000886902D040F0020001E020F00200886177
:1008B0007047000000900240F0B5104B00244FF04C
:1008C000004644F2F05C551E586012E0C4EB441739
:1008D00000EB041307EB841701EB07179F60C3E9D4
:1008E000006CAC4203D203F11007DF6000E0D86077
:1008F000641C9442EAD30249C860F0BD3000002075
:1009000000900240426811B122F0004101E042F043
:10091000004141607047000005490028886902D005
:1009200040F4005001E020F400508861704700005E
:1009300000900240F0B50F4B00244FF48016551E76
:10094000186011E0C4EB441700EB041307EB8417A5
:1009500001EB07179F601E60AC4203D203F1100742
:10096000DF6000E0D860641C9442EBD30249086168
:10097000F0BD0000300000200090024010B50121C1
:100980008C03204602F010F82046BDE810400021FC
:1009900002F00AB800E0401E0028FCD170470000B9
:1009A0000248816941F480118161704700900240E2
:1009B000064900204968096811F0802F05D1CA0551
:1009C00003D58A0501D5C1F30D40704730000020E2
:1009D000034900200968C90700D0012070470000C2
:1009E0000090024010B5FFF7CFFB0C4A1178491C6C
:1009F0001170FFF7CDFB02E0094804F003F9FFF79F
:100A0000D7FF0028F8D14020FFF736FF4FF48030A1
:100A1000FFF732FFBDE8104000F09CBD5A000020F7
:100A2000ECD600202DE9F041754D044686B02869CA
:100A30008846002720F01C06684601F0D9FF71495E
:100A40000198714A0144914202D246F0080606E03C
:100A50006E4908446E49884201D246F00C062E6168
:100A60004FF400420021404600F0CEF9002825D086
:100A70006848FFF78FFF206878B3674E7F1C01211D
:100A8000404600F0FBF8400701D4B742F6D3B74226
:100A900013D000274FF480523946404600F0B4F995
:100AA00000280BD07F1C0121404600F0E7F88006AB
:100AB00001D4B742F6D3B74203D1002006B0BDE857
:100AC000F0811021404600F0D9F842074FF00001B4
:100AD00004D54FF40062226201E008E02162800741
:100AE00001D5616114E04FF48040606110E0206A3C
:100AF0000021C0F3CF026069C0F34F0002434046BB
:100B000000F082F90028D9D06FF07F40FFF742FF54
:100B1000296842480140D4E901021043D4E9032383
:100B20001A43104362691043A2691043E2691043FB
:100B3000226A1043626A1043A26A1043E26A1043B9
:100B4000226B1043626B104308432860D4E90E0106
:100B50000843D4E9101211430843A16C0843E16C27
:100B60000843216D0843616D08436860A06DA8606B
:100B7000E06DE860A9694FF641700140D4E91902BF
:100B80001043236EE26E42EA03421043226F104389
:100B9000626F10430843A861D4E91E010843E8616D
:100BA0001F4A91691F480140D4E920031843D4E942
:100BB00022352B431843D4F890301843D4F894309E
:100BC0001843D4F898301843D4F89C301843D4F81C
:100BD000A030184308439061D4E929010843D4E9BF
:100BE0002B1319430843D4F8B41040EA8100D4F819
:100BF000B810084340F40000106001205EE70000D8
:100C00000080024000D3CEFEC0E1E40040F1E9FDE7
:100C100040787D01FFFF0F00FFFF04000F8120FFE0
:100C200000900240233FDEF8054B8A881844026496
:100C30000A78D1F8011042EA0121416470470000AE
:100C40000080024005490028086802D040F00400F6
:100C500001E020F0040008607047000000800240BE
:100C600005490028086802D040F0080001E020F0A3
:100C700008000860704700000080024030B5114A4B
:100C8000002314694FF6FF7504F01C0405EAC02028
:100C900020434FF4F86404EA8111014321F002007B
:100CA00040F001001061084811695B1CC90701D0C0
:100CB0008342F9D3834201D1002030BD506980B214
:100CC00030BD000000800240FFFF040070B5114DF0
:100CD000002319462A681468002C0BDA0E4A0B46CA
:100CE0005469240602D580245461936001604160F8
:100CF000816070BD260407D4E60505D5A60503D599
:100D0000C4F30D4391681B1FD4682C600360C0E9D5
:100D1000011270BD340000200090024002480168BA
:100D200041F00101016070470090024000B50120D0
:100D3000FFF796FFFFF734FE0120FFF783FF012046
:100D4000FFF7EAFD01205DF804EBFFF7A7BD0021E6
:100D5000016041608160C160016141618161C16187
:100D6000016241628162C162016341634022816329
:100D7000C0E90F122022C0E91121C164016541655B
:100D800081658022C165C0E918128166C16601676C
:100D90004167D2048167C0E91F1252105310C0E9A5
:100DA00021231311C0E92331C0F89410C0F8981022
:100DB000C0F89C10C0E928121212C0E92A1252127F
:100DC000C0E92C21C0F8B810704700000C4A116827
:100DD0000B68002B01DA00207047C0F30C0048605C
:100DE00043F030400860074843695B0703D504239C
:100DF000436100234360C868106001207047000011
:100E0000300000200090024070B5104B00241D6996
:100E10004FF6FF7605F01C0506EAC02028434FF484
:100E2000F86505EA8111014341F003005A61186138
:100E300007481969641CC90701D08442F9D3844268
:100E400001D1002070BD012070BD00000080024073
:100E5000FFFF040000B5AFB0012000F045F84FF4EB
:100E6000004001F051FE012001F048FE3D2001F05C
:100E700027FE0028FAD00B2001F03AFEFFF77EFD96
:100E8000FFF74CFFFFF7A4FD0128FBD06846FFF7F2
:100E90005EFF0120009000204FF40071CDE90A10A0
:100EA000090407901190CDE920010E901490139041
:100EB0000A1115902590269023920420CDE928014F
:100EC00080032A9080012B9040122C9040002E909D
:100ED00001216846FFF7A6FD01210248FFF7D2FC79
:100EE0002FB000BD400001000149086070470000BC
:100EF000DC0020422DE9F041CA780025D30602F03B
:100F00000F0201D58B781A430B884FF00F084FF072
:100F1000010C13F0FF0F1CD0D0F800400E880CFA23
:100F200005F31E409E4210D1AF0008FA07F624EAEE
:100F3000060602FA07F43443CE78282E02D0482E53
:100F400002D002E0436100E003616D1C082DE5D38F
:100F500004600B88FF2B1DD94468002505F10806A5
:100F60000CFA06F30E881E409E420FD1AF0008FA1D
:100F700007F624EA060602FA07F43443CE78282E50
:100F800000D14361CE78482E00D103616D1C082D3D
:100F9000E4D34460BDE8F081F0B5144C002801DAD8
:100FA000E36900E06368420D120185B2C0F30157A6
:100FB0009540C0F30346032F05D0C2020AD5032291
:100FC000B240934307E023F07062636823F07063DC
:100FD000636002E0AB4343F0706201B12A43002832
:100FE00001DAE261F0BD6260F0BD00000000014086
:100FF0004161704701617047FEE70000084A00B593
:101000004023536000F068F98020506000F064F9DC
:10101000136000F061F953605DF804EB00F05CB917
:10102000100C01402DE9F041064611F007000C4676
:1010300002F00701C0F10807C2F3C705884611D0C6
:101040008DB1D01BC0F3C70500F0070897B33A462F
:101050002146304600F070F800F03EF9E019C4B2C5
:101060003E4427E05DB90A4612E008222146304698
:1010700000F062F800F030F90834E4B208362800D5
:10108000A5F10105EDB2F0D15FEA080018D00246E3
:101090002146304600F050F8BDE8F04100F01CB9A0
:1010A00008222146304600F047F800F015F90834D0
:1010B000E4B208362800A5F10105EDB2F0D1E3E76E
:1010C000BDE8F081F0B51B4E0546A02014460F4642
:1010D000307000F0B7F8002817D0307800F08EF8A4
:1010E00000F0E2F870B1384600F088F800F0DCF863
:1010F00000F0A8F8307840F0010000F07FF800F030
:10110000D3F80DE000F0BCF80020F0BD00F052F87C
:101110002870012C0AD0FFF771FF6D1C641EA4B269
:10112000002CF3D100F0ACF80120F0BD00F02EF857
:10113000F3E700001800002070B504460E4615467F
:1011400000F080F800280ED0A02000F057F800F042
:10115000ABF828B1F0B200F051F800F0A5F809E0C2
:1011600000F08EF8002070BD207800F047F800F005
:101170009BF8641C2800A5F10105ADB2F4D100F084
:101180007FF800F0A9F8012070BD0000084A00B502
:101190004023536000F0A0F88020106000F09CF81D
:1011A000136000F099F853605DF804EB00F094B818
:1011B000100C014030B5104C082300228020C4F8E8
:1011C000100C40250FE05006020EC4F8145C00F02D
:1011D00083F8C4F8105C00F07FF8D4F8080C00061F
:1011E00001D542F001021800A3F10103DBB2EAD1FC
:1011F000C4F8145C104630BD0000014070B50823EF
:101200008025044640260E4A11E000BF00F064F835
:10121000200602D5C2F8105C01E0C2F8145C60063A
:10122000040E00F059F8C2F8106C00F055F81800E0
:10123000A3F10103DBB2C2F8146CE7D170BD00006A
:10124000000001400D4A00B5802393604FF040003C
:10125000906000F041F81068A2F60842C2F8143C11
:1012600000F03AF8D2F8080C000601D5002000BDC5
:10127000C2F8143C00F030F8012000BD080C014019
:10128000084A10B54023536000F026F880245460CB
:1012900000F022F8136000F01FF81460BDE8104061
:1012A00000F01AB8100C01400A4B00B54022DA6079
:1012B00000F012F88020986000F00EF89A6000F0BC
:1012C0000BF81868DA60000601D5002000BD012087
:1012D00000BD0000080C01404FF4FA70401E80B2BF
:1012E0000521491E0904090CFBD10028F6D17047DD
:1012F0002DE9F041054640210022032004F002FAC6
:10130000040027D0002216486368FF219F189954D3
:10131000865C521CD2B2BE71062AF7D34FF402701B
:10132000988100209873D8731874626801215174F1
:10133000123201465054491CC9B22E29FAD3EA6828
:101340002146284690470546204604F094FA284650
:10135000BDE8F08103A001F02FFF6FF00400F7E774
:10136000C00000206574686263705F646973636FB6
:101370007665725F7265706C7928293A72756E2095
:101380006F7574206F66206D656D6F72792E0A001F
:10139000FEE77047F0B50F22C57803784FF0E021E3
:1013A0000124E5B1D1F80C5D467805F4E065C5F59A
:1013B000E0652D0AC5F10407EA408578BE40154076
:1013C00035430B442A0183F800240078420900F0D9
:1013D0001F00844001EB8200C0F80041F0BD03F023
:1013E0001F008440580901EB8000C0F88041F0BD27
:1013F0000249084302490860704700000000FA05EE
:101400000CED00E07047000070B505000E46144674
:1014100005D036B10E48807828B112200DE00420A6
:101420000BE00C2009E02878012808D0022806D01B
:10143000032804D0042802D00120107070BDFEF7EC
:10144000A3FE6E61FEF7A4FE0020207070BD0000B8
:101450005800002000B587B000F074F82C49002037
:1014600008638870C8700872C871C860C8618861F4
:10147000486148708871024601F134039854521C47
:10148000D2B2082AFAD3087148718862086201F062
:10149000E3F801F0B5F801F08DF801F01FF901F063
:1014A00043F91C480DF1040C032300222021ACE871
:1014B0000F004FF6FF73009300F17C023F230021E1
:1014C000154800F061FC05AA14A13F2000F0B2FC11
:1014D00016480DF1040C032300224021ACE80F0054
:1014E0004FF6FE73009300F1FC023E2300211048EA
:1014F00000F04AFC05AA0FA13E2000F09BFC00F082
:101500008BFE00F025F807B05DF804EBFFF77ABF1B
:101510005800002090120020CD28000875432F4F5E
:10152000532D49492049646C65000000901100204A
:10153000E928000875432F4F532D49492053746102
:10154000740000000149002008807047540000200A
:101550007047000070B5144CE079012822D1FEF7E5
:1015600013FE0546A07820B1401E10F0FF00A070C9
:1015700013D1E07888B901F01BF90C48617950F873
:101580002100A0622279914207D0C16B491CC1633E
:10159000E068401CE060FEF713FE2846BDE870409E
:1015A000FEF7F6BD70BD00005800002010130020AB
:1015B0002DE9F04104000E4690461F464FF06200B0
:1015C00001D0A10701D018701AE0022E01D25B20D1
:1015D000F9E7042A01D25C20F5E7FEF7D5FD0146C4
:1015E000114805680DB16A6802600846FEF7D0FD33
:1015F00025B1731E20462146002208E05A2038708B
:101600000020BDE8F081414401600846521C9A4226
:10161000F9D3002101602E61EE602C60C5E901481C
:1016200039702846EDE700009800002070B50400EE
:101630000D4610D0FEF7A8FD0146206970B166681E
:10164000401E3268626020610846FEF7A1FD00205E
:101650002870304670BD6020087004E00846FEF730
:1016600097FD5D202870002070BD70B504000D4608
:101670000AD05DB1FEF788FDD4E903128A4207D390
:10168000FEF786FD5E2070BD602070BD5F2070BDDE
:101690006168296065602169491C2161FEF778FD58
:1016A000002070BD70B505000C4606D028780228D1
:1016B00005D001200870002070BD0420FAE7FEF775
:1016C00063FD6A680146D08A70B11369181D106104
:1016D000D68A1D68761ED6829368984201D15068DA
:1016E00010610020207002E01F20207000250846B5
:1016F000FEF74EFD284670BD2DE9F04107461C4817
:101700008846007810B10020BDE8F081FEF73CFD6E
:10171000184E34680CB161683160FEF739FD2CB3A6
:10172000FEF732FD014614480568C5B12A6802601B
:101730000846FEF72DFD07EB8800C5E90170EF6054
:101740002F61A5F814800020E882022121702081F9
:101750000AA065606061204600F022FF06E0306864
:10176000606008463460FEF713FD00242046CBE796
:101770005A000020680000209C0000203F0000006C
:101780002DE9F04704008846154605D02078022848
:1017900004D00120107024E00420FBE731480078D9
:1017A00008B10F20F6E7FEF7EFFC0746A07A08B174
:1017B000012600E000265FEA0800DFF8AC80DFF8D1
:1017C000AC904FF0000A06D001282AD03846FEF728
:1017D000DFFC072004E03EB13846FEF7D9FC492083
:1017E00028702046BDE8F08721A060616168D8F8C4
:1017F000002056460A60C8F8001084F800A0D9F806
:1018000000106160A4F808A03846C9F80040FEF74F
:10181000BFFC2E7023E0002304221946204600F06E
:101820002DFEA07A0028F6D111A060616068D8F87A
:1018300000200260C8F8000084F800A0D9F8002059
:101840006260A4F808A0D0463846C9F80040FEF708
:101850009FFC012E01D100F087FF85F80080002059
:10186000C0E700005A0000209C0000206800002013
:101870003F00000010B5040004D02078022803D0F7
:10188000012010BD042010BDFEF77EFC01466068FB
:101890004268C26002610022C2820846FEF778FCFC
:1018A000002010BD2DE9F04706008946154604D0FA
:1018B0003078022803D001200AE0042008E02E48F6
:1018C000007808B1022003E02C48007820B10D20F8
:1018D00010700020BDE8F087FEF756FC07467068E0
:1018E0000024C18A81B10269111D0161C38A166891
:1018F0005B1EC3828268914201D141680161384612
:10190000FEF746FC2C7035E0DFF87480D8F8000054
:1019100010F8341F41F004010170447040F8049C39
:10192000304600F013FE3846FEF732FC00F01CFF94
:10193000FEF72AFC0746D8F8000090F8351039B1B8
:10194000022908D0314600F0D7FD00260A2004E025
:10195000466A2C7002E000260E202870D8F800009D
:1019600000F11C00047644760460446084603846CC
:10197000FEF70EFC3046ADE75A0000205B00002069
:101980007800002070B504000E4604D020780228AC
:1019900003D0012070BD042070BDFEF7F5FB0546A5
:1019A000A07A58B1002304223146204600F066FD9B
:1019B0002846FEF7EDFB00F0D7FE19E06068C18A0B
:1019C000828A914204D32846FEF7E2FB1E2070BDB6
:1019D000C1680A1DC2600E60C18A491CC182D0E97B
:1019E00002128A4201D14168C1602846FEF7D0FB4D
:1019F000002070BD10B5094CE07901280CD1FEF72C
:101A0000C3FBA17821B9E178FF2901D2491CE1701B
:101A1000BDE81040FEF7BCBB10BD00005800002020
:101A200010B50D4CE079012814D1FEF7ADFBE1783B
:101A300031B1491E11F0FF01E17001D1A17819B156
:101A4000BDE81040FEF7A4BBFEF7A2FBBDE81040C6
:101A500000F08ABE10BD00005800002070B5054699
:101A60000E48007808B1002070BDFEF78DFB0146DE
:101A70000B4804680CB1626802600846FEF788FBF8
:101A80004CB10320207025810020606005A06061BA
:101A9000204600F085FD204670BD00005A00002061
:101AA000680000203F0000002DE9F0470400884650
:101AB000154605D02078032804D00120107022E0BC
:101AC0000420FBE72948007808B10F20F6E7FEF76D
:101AD0005BFB0746A07A08B1012600E000265FEA1A
:101AE0000800DFF88C904FF0000806D0012824D0C1
:101AF0003846FEF74DFB072004E03EB13846FEF7BE
:101B000047FB492028702046BDE8F08719A0606196
:101B100084F80080D9F800106160A4F80880464677
:101B20003846C9F80040FEF733FB2E701CE0002356
:101B300001221946204600F0A1FCA07A0028F6D127
:101B40000CA0606184F80080D9F800206260A4F8DD
:101B500008803846C9F80040FEF71AFB012E01D173
:101B600000F002FE85F800800020CDE75A0000203A
:101B7000680000203F0000002DE9F047060089467C
:101B8000144604D03078032803D001200AE0042052
:101B900008E02648007808B1022003E024480078D5
:101BA00018B10D201070BDE8F087FEF7EDFA07467A
:101BB0003089002530B1401E30813846FEF7E8FA02
:101BC0002570F0E7DFF86C80D8F8000010F8341FBB
:101BD00041F001010170457040F8049C304600F06E
:101BE000B5FC3846FEF7D4FA00F0BEFDFEF7CCFA9D
:101BF0000746D8F8000090F8351031B1022906D018
:101C0000314600F079FC0A2002E0257001E00E2048
:101C10002070D8F8000000F11C00057645760560BC
:101C200045603846BDE8F047FEF7B2BA5A000020DA
:101C30005B0000207800002070B5040004D02078FC
:101C4000032803D0012070BD042070BDFEF79CFA6C
:101C50000546A07A58B1002301221946204600F01B
:101C60000DFC2846FEF794FA00F07EFD09E020897D
:101C70004FF6FF71884206D2401C20812846FEF7AD
:101C800087FA002070BD2846FEF782FA332070BD27
:101C900010B5094CE07900280CD100F089FD60797D
:101CA0000649207151F82000A0622062BDE8104072
:101CB000FEF771BA10BD000058000020101300207C
:101CC00010B5022000F0BEF9FEF75EFA084C0021C4
:101CD000E161FEF75DFA0A2000F0B4F9FEF754FA6C
:101CE000E169616101216170BDE81040FEF750BA01
:101CF00058000020FEF7A6BD2DE9FE4306460F461C
:101D000090461C463F2B02D92A20BDE8FE83FEF7F1
:101D10003BFA1A49097819B1FEF73AFA3C20F4E780
:101D2000174D55F8241019B1FEF732FA2820ECE7C8
:101D3000012145F82410FEF72BFA002342463946CC
:101D4000304600F0F3F800231A4619468DE80E00DD
:101D50000146204600F03CFD060008D0FEF714FACC
:101D6000002145F82410FEF713FA3046CDE7054868
:101D700000780128F9D100F0F7FCF6E75A000020BE
:101D8000101300205F0000202DE9FE4F8046DDE9A2
:101D90000CB6109F894692461C463F2B02D92A203A
:101DA000BDE8FE8FFEF7F0F91D49097819B1FEF77D
:101DB000EFF93C20F4E71B4D55F8241019B1FEF75C
:101DC000E7F92820ECE7012145F82410FEF7E0F9B7
:101DD0003A4630460E9900F0CFFD3B465246494602
:101DE000404600F0A3F8DDE90E128DE886000146BA
:101DF0005B463246204600F0EBFC060008D0FEF7BA
:101E0000C3F9002145F82410FEF7C2F93046C7E7B0
:101E1000054800780128F9D100F0A6FCF6E700009B
:101E20005A000020101300205F000020FEF70BBDB9
:101E3000FEF70ABD70B505460E4614463F2803D985
:101E4000FF2D01D02A2004E02EB11248007820B1E5
:101E50001220107070BD0C20FBE7FEF795F90146CB
:101E6000FF2D03D10C48006890F836500B4850F80D
:101E70002500432540B1012806D006650846FEF737
:101E800087F90020207070BD0846FEF781F92570A3
:101E900070BD00005A0000207800002010130020C0
:101EA000FEF7E0BC2DE9F04105460C463F2804D979
:101EB000FF2D02D02A20BDE8F08144B1002020602F
:101EC0006060FEF761F90146FF2D02D005E00920B0
:101ED000F1E71448006890F83650134850F8250090
:101EE00058B1012809D0028AD2070BD0D0E9027676
:101EF00000250846FEF74CF90AE00846FEF748F9C7
:101F00004320D8E70846FEF743F94520D3E76D1C88
:101F100001CF0028FBD0A8002060701B800060600B
:101F20000020C8E778000020101300204FF08073D5
:101F30001360131F18606FF0010042F8080CA2F143
:101F400038004FF012334FF00332C0E90A234FF04C
:101F5000023242624FF00132C0E907124FF01131F4
:101F600081614FF0103141614FF0093101614FF053
:101F70000831C1604FF0073181604FF00631416098
:101F80004FF0053140F804194FF0043101607047FB
:101F900070B5274D04463F2804D005D3FF280DD047
:101FA0002A2070BD472070BDFEF7EEF80346286872
:101FB00090F83600A04209D1012508E0FEF7E4F8C8
:101FC00003462868012590F8364000E000251948AE
:101FD00050F8240068B1012810D090F83820164C31
:101FE00090F83960A15CF643F6B23140A1540AD0B2
:101FF00010E01846FEF7CCF8482070BD1846FEF7F2
:10200000C7F8432070BD0D4A90F83A10147824EABE
:102010000101117010F8341F41F0080101701846D9
:10202000FEF7B6F8012D01D100F09EFB002070BD37
:1020300078000020101300208C0000205E0000209B
:10204000FEF711BC70B5044614480078002824D16E
:1020500013480078002820D1002C1ED0FEF794F8F9
:1020600003461048104D016891F8380091F8396026
:102070002A5CF643F6B232402A5406D10B4A91F854
:102080003A00157825EA0000107018460C63FEF738
:102090007FF8BDE8704000F067BB70BD5A000020BB
:1020A0005B000020780000208C0000205E000020F3
:1020B00070B51A4C24780CB1552070BD184C24789A
:1020C0000CB1322070BD00B919B13B2902D95120A1
:1020D00070BD1AB13B2A02D9522070BD2BB14FF40A
:1020E0007A74A34203D3532070BD542070BD5B1D8E
:1020F00064256B43B3FBF4F34FF461646043C1EBBD
:10210000011100EB8100104400EBC00101EB001055
:1021100003EB8000FFF796FF002070BD5A000020FF
:102120005B00002010B5FEF72FF803490C68FEF79E
:102130002FF8204610BD0000880000202DE9F04156
:1021400000F050F8FEF720F8254D296B491C296353
:10215000FEF71EF8E879012840D1687A01264FF091
:10216000000828B1012839D0022803D085F8098059
:10217000EC6A2FE06E72FBE7FEF706F8216B31B3D5
:10218000491E216323D194F8341011F0370F06D083
:1021900001F0C80184F8341084F8356001E084F857
:1021A000358094F83410090711D404F13804AA7961
:1021B000A17841EA0201A971094A217802F13402A9
:1021C0006778535CA4F1380443EA07035354646905
:1021D000FDF7DEFF94F836003F28CDD1BDE8F08151
:1021E0005800002010B5FEF73FFB07480188491C46
:1021F00089B201800A2905D300210180BDE8104081
:1022000000F004B810BD0000540000200148006830
:10221000FFF712BDAC00002030B587B04FF420713D
:102220002E4800F051FA40212D4800F04DFA0020D0
:102230002A4902466423441C00EB8000254601EB3A
:10224000C000A4B204EB8404037001EBC40480F862
:102250002520C46023A40462A8B20F28EBD300EBAE
:10226000800001EBC000037080F825201DA30362ED
:10227000C2601D4802601D4802801D4A1020108067
:102280001C4801600120FFF7E9FB1B4C2060002087
:10229000FFF7E4FB194D05AA19A128602068FFF794
:1022A000B3F805AA1BA12868FFF7AEF81E4801ACD9
:1022B0000323002240210FC44FF6FD73009300F169
:1022C000FC023D2300211948FFF75EFD06AA18A174
:1022D0003D20FFF7AFFD07B030BD0000C81C002057
:1022E000482000203F000000A4000020A2000020A1
:1022F000A0000020B0000020A8000020AC000020BA
:1023000075432F4F532D494920546D724C6F636BA9
:102310000000000075432F4F532D494920546D7222
:102320005369676E616C0000481F00208923000814
:1023300075432F4F532D494920546D720000000002
:10234000032280F825200E4A0129126813D08169E2
:1023500089B111440B4A416101F0070102EBC1014F
:1023600000230A68086042B1C26010618A88521C6A
:102370008A8003617047C169EBE70122C360F7E718
:10238000A40000204820002008B5DFF86880DFF8AE
:1023900068901A4D6A460021D8F80000FFF7ECFB60
:1023A000FFF728FB2868401C286000F00700022780
:1023B00059F8304013E060692968E66888420DD119
:1023C000204600F01DF894F8240002280CD084F870
:1023D0002570626812B12046A16890473446002CEF
:1023E000E9D1FFF71DFBD5E701212046FFF7A8FF44
:1023F000EFE70000AC00002048200020A4000020EF
:1024000010B541690D4A01F0070102EBC10200233A
:102410001468C168844203D1116029B10B6103E0E3
:102420000469E16001B10C61012180F82510C360ED
:1024300003619088401E908010BD0000482000205D
:102440000C4864210068B0FBF1F0B0F1807F0FD23E
:1024500020F07F414FF0E020491E4161064AF02103
:1024600011704FF0000181614FF007010161704769
:10247000FEE700004000002023ED00E0F0B5054637
:10248000807A1A4C4FF00007205C05EB0006F67AC4
:10249000A45D04EBC004E6B2154C54F8264004F1E8
:1024A0002404E7602160217C21EA02012174637425
:1024B000A4F1240409070CD40E4A94F83A3002F12E
:1024C000340197793B4393710A5C94F839301A438D
:1024D0000A542946204600F00FF8216A19B1204617
:1024E00000F01CF8E5613046F0BD000044730008C0
:1024F000101300205800002010B590F8382090F8F4
:1025000039408B18E443DA7AE4B22240DA7204D11B
:102510008A7A90F83A0082438A7210BD70B510F83A
:10252000383F44788278E443D243E4B2D5B20868B5
:1025300009E0C618F27A2240F27202D1827A2A4069
:10254000827251F8040F0028F3D170BD30B5134BDF
:1025500000F10B011A6A42F81C0F147F557F625C70
:102560002A436254196A827A01F138018C7842EA6E
:1025700004028272087803F134044D78225C6FEA19
:102580000505EDB22A40A1F13801225405D191F898
:102590003A00997921EA0000987130BD5800002076
:1025A0000022827211464318491CC9B2DA72082906
:1025B000F9D3704710B550210E4800F085F800207F
:1025C0000C4A0146431C1C4602EB00109BB202EB76
:1025D00003130170436008A3C360A0B20428F1D3C1
:1025E00002EB00100170416003A1C160034802606A
:1025F00010BD0000A01B00203F0000009400002040
:1026000010B54FF4F071114800F05EF800200F4A49
:102610000146431C1C4600EB40009BB202EBC0008D
:1026200003EB430302EBC3030170436008A3436160
:10263000A0B21328EDD300EB400002EBC000017004
:10264000416003A141610348026110BDB00F002049
:102650003F0000005800002010B54FF4F26116480A
:1026600000F032F84FF48071144800F02DF8124950
:102670000020421C00EB400404EBC000D3B203EB8B
:10268000430401EBC00004EBC30301EBC30343614C
:102690000BA30365D0B21528EBD300EB400202EB8D
:1026A000C00001EBC00006A300220365426105489B
:1026B000C262416210BD00001014002010130020FF
:1026C0003F00000058000020002203E0491E00F8EF
:1026D000012B89B20029F9D17047000010B578218B
:1026E0000E48FFF7F1FF0D4A002000BF00EB40014C
:1026F00002EBC10101F118034B60401C08A380B23A
:102700004B610428F2D300EB400002EBC000002133
:10271000416003A141610348026010BDF01B00202D
:102720003F0000009800002010B560210C48FFF722
:10273000CBFF0B4A0020411C8BB200EB400003EBA7
:10274000430302EBC30342F8303088B20328F2D3CC
:1027500000EB4000002142F830100248026010BD3A
:10276000681C00209C00002070B5FDF70DFD0E4C8C
:102770000546A07898B9E07888B900F019F80B49B7
:10278000607951F82010A1622279904207D0C86B7D
:10279000401CC863E068401CE060FDF70CFD284663
:1027A000BDE87040FDF7F4BC580000201013002075
:1027B0000649054A01F134038879105C1B5CD25C40
:1027C00002EBC000487170474473000858000020B5
:1027D0002DE9F05F0746DDE90ABA0D4690469946B5
:1027E000FDF7D2FC364E746A002C64D061691C344B
:1027F0007162FDF7CDFC44F81C5CA77600252576B8
:1028000065766561A4F1140044F818ACA0E80009ED
:102810000C9824F80C0CFB0824F80A9CE57707F0C8
:1028200007020120237700FA03F1E276A1779040B6
:10283000607725606560E560A5602562A5626562D8
:1028400020A0E562C4E90C50A4F11C044FEA050085
:1028500004EB8001401C4D6510F0FF00F8D02046CD
:10286000FFF748FA2046FFF7E1FAFDF78DFC014635
:10287000154840F82740F06AC4E9050500B18461B5
:10288000F46204F13804B279A07840EA0200B07131
:102890000B48227800F134006478835C43EA040337
:1028A0008354307A00F1010030720846FDF770FC65
:1028B0000020BDE8F09FFDF76BFC4220F9E7000027
:1028C000580000203F00000010130020054C00BFFE
:1028D000FDF75AFCE169491CE161FDF759FCFFF77E
:1028E000A7FAF5E758000020144C02E01420FFF787
:1028F000A9FB60780028F9D0642160690025B0FB4D
:10290000F1F0606118B92570FF20FFF741FBFDF77A
:102910003BFCE169C4E90615FDF73AFCD4E9051072
:10292000B0FBF1F0C0F164002070FFF7B9FA00F0DD
:1029300007F80A20FFF786FBE9E7000058000020AF
:102940007CB50C4D002469462046FFF7ABFA58B918
:1029500055F8240040B1012806D0D0E9021201EB5D
:10296000820181640199C164641CE4B23F2CEAD9FC
:102970007CBD000010130020D30707D0920705D5B7
:102980000022002902D004C0491EFAE77047000067
:10299000044A0029516901D0014300E0814351619B
:1029A0007047000000100240044A0029916A01D0DB
:1029B000014300E081439162704700000010024033
:1029C000044A0029D16901D0014300E08143D1616B
:1029D0007047000000100240044A0029916901D0AC
:1029E000014300E081439161704700000010024004
:1029F00070B52E494A682E4B12F00C0204D02D4CB3
:102A0000042A03D0082A03D0036029E0046027E0E9
:102A10004A684B6802F47012920C0D2A03F480335A
:102A200001D0921C00E00622BBB1CB6ACD6A13F440
:102A3000803F05F00F0303F1010334D0CD6ACE6A65
:102A4000C5F303156D1CB4FBF5F5C6F30324A41CF4
:102A50006543B5FBF3F35343D6E7174B5A43026084
:102A60004A68164B02F0F00212099C5C0268E240D0
:102A700042604C6804F4E064240A1C5D22FA04F409
:102A800084604C6804F46054E40A1B5DDA40C26060
:102A900049680A4B01F44041890B1B1F595CB2FB8A
:102AA000F1F1016170BDB4FBF3F3D4E70010024013
:102AB00000127A0040787D0100093D001D000020D1
:102AC0000246002053090949012B0BD0022B0BD0E1
:102AD000D1F8241002F01F02012393400B4200D0D2
:102AE000012070470968F5E7096AF3E70010024022
:102AF0000149C87170470000001002400149086791
:102B00007047000000004242034AD16A21F470413C
:102B10000143D1627047000000100240704700007E
:102B200029480021026842F4803202604FF4A06319
:102B30000268491C12F4003F01D19942F8D10168A2
:102B400089033FD521490A6842F010020A600A68E9
:102B500022F003020A600A6842F002020A60416839
:102B6000416041684160416841F480614160C16AEF
:102B7000174A1140C162C16A164A1143C162016815
:102B800041F08061016001680901FCD5416821F4D0
:102B90007C114160416841F4E8114160016841F0F5
:102BA0008071016001688901FCD5416821F0030151
:102BB0004160416841F0020141604168C1F3810117
:102BC0000229FAD1704700000010024000200240A4
:102BD00000F0FEFF4406010010B5FDF7D5FA064AE5
:102BE0001178491C1170FDF7D3FAFFF7A7FABDE879
:102BF0001040FEF7AFBC00005A000020124810B58C
:102C0000016841F0010101604168104A11404160D2
:102C100001680F4A11400160016821F480210160C0
:102C2000416821F4FE014160016821F0A05101607A
:102C30004FF47F0181600021C162FFF771FF0549F8
:102C40004FF00060086010BD001002400000FFF06F
:102C5000FFFFF6FE08ED00E00E4810B540210170C0
:102C6000FF21417000218170C1700171417181713A
:102C70000A464021032002F045FD06490839486014
:102C800010B905A000F098FABDE81040014803F023
:102C9000F5BC0000C00000205442435F444C4C5F30
:102CA000696E697428293A72756E206F7574206F89
:102CB00066206D656D6F72792E0A0000034AC2E9C5
:102CC00000100020D081108250827047FCF3002059
:102CD0001CB50400084611461A4619D063788DF8D1
:102CE00004308DF8050000208DF80600009068463D
:102CF00002F0CDFB9DF805309DF804206946606820
:102D000002F0B8FC0446684602F0B8FB20461CBD41
:102D10006FF003001CBD3EB504001FD08DF80820E5
:102D20008DF8093060788DF804008DF805100020CA
:102D30008DF806000090022202A9684602F0A7FB67
:102D40009DF805309DF804206946606802F092FC09
:102D50000446684602F092FB20463EBD6FF0030039
:102D60003EBD10B50446C0B201F0A2FF230EC4F36D
:102D70000742C4F30721BDE81040FFF7CCBF70B590
:102D80000546044605E0217A94F8200000F0E0FFB3
:102D90002468002CF7D12C4603E0204602F06CFAA0
:102DA0002468002CF9D170BD10B50C4C01212046CF
:102DB00000F027F800280FD00121204600F012F87B
:102DC00007484188828811440288491C521CB2FB82
:102DD000F1F301FB1321018010BD0000000C004045
:102DE0000AF40020C943018270470029018802D0FB
:102DF00041F0010101E021F0010101807047808C68
:102E0000704702460020138A92890B4202EA0102AF
:102E100002D0002A00D001207047002A828901D008
:102E20000A4300E08A4382817047000030B502887F
:102E30001B4B1C4C98420DD0A0420BD0B0F1804FE0
:102E400008D0194DA84205D0184DA84202D0184DFF
:102E5000A84203D122F070054A882A43154DA842A2
:102E600006D0154DA84203D022F44075CA882A43E3
:102E700002808A88984282850A8802850AD0A04208
:102E800008D00E4A904205D00D4A904202D00D4A19
:102E9000904201D1097A01860121818230BD000072
:102EA000002C0140003401400004004000080040B4
:102EB000000C0040001000400014004000400140A1
:102EC0000044014000480140704700002DE9F041F6
:102ED0002E4E40F225573946304600F0D2F82C4DA0
:102EE0002C4C98B13946304600F063F8304600F07B
:102EF00059F92081618825F81100491C88B24FF4E6
:102F00009671B0FBF1F201FB12006080608805EB66
:102F1000400131F8021C5A2901D1421EA280A28828
:102F200035F812305A2B05D1A52903D1801AE0803B
:102F3000012020700821304600F0A3F8012806D1B6
:102F40000821304600F032F8304600F02BF92078A6
:102F5000002818D0002666700D4BE188943B891E2E
:102F600006E000BF05EB400252881A54401C607016
:102F700060788842F6DB08A000F01EF904F0B6F98C
:102F8000A68066802670BDE8F08100000044004005
:102F9000A4D7002004010020726563657665206671
:102FA000696E69736865640D0A000000C943018099
:102FB00070470A0A01219140C943018070470029E6
:102FC000818902D041F4005101E021F40051818156
:102FD0007047000030B585B001212120FFF7FCFCCF
:102FE00001214804FFF7ECFC01210820FDF7D4FF84
:102FF0002020ADF8100018208DF813001B4D03247D
:103000008DF8124004A92846FDF774FF4020ADF862
:10301000100004208DF813008DF8124004A92846F2
:10302000FDF768FF4FF4E13000900020ADF8040098
:10303000ADF80600ADF80800ADF80C000C200C4C03
:10304000ADF80A006946204600F052F840212046BB
:10305000FFF7ACFF012240F22551204600F030F886
:1030600001212046FFF7ABFF05B030BD0014014041
:10307000004400400246002012880A4200D001208D
:10308000704770B501F01F0601220025C1F34213FD
:1030900002FA06F4012B0FD0022B0FD0838A4FEADD
:1030A00011210088234202FA01F200EA020001D055
:1030B00000B10125284670BD8389F0E7038AEEE759
:1030C00010B5C1F3421301F01F040121A140012BEF
:1030D00007D0022B07D01430002A026805D00A431B
:1030E00004E00C30F8E71030F6E78A43026010BDC8
:1030F00030B50446008A85B00D464CF6FF71084095
:10310000E98801432182A1894EF6F3100140A88885
:103110002A8910436A890A431043A081A08A4FF686
:10312000FF410840A9890143A1826846FFF760FC7E
:103130001B48844201D1039800E00298A189090448
:10314000002900EBC00101EB0010296802DA4FEA08
:10315000410101E04FEA8101B0FBF1F06422B0FBD4
:10316000F2F14FEA01114FEA11136FF018056B43AA
:10317000A58900EB83004FF032032D0406D503EB45
:10318000C000B0FBF2F000F0070005E003EB001018
:10319000B0FBF2F000F00F000843208105B030BD15
:1031A000003801408088C0F308007047C1F308016F
:1031B00081807047FEE700000FB4054B10B503A9EE
:1031C000044A029800F0C2F810BC5DF814FB00003D
:1031D000E54C00082001002002E008C8121F08C1C9
:1031E000002AFAD170477047002001E001C1121F88
:1031F000002AFBD1704700002DE9FF5FDDE90210D6
:10320000020DDDF838B001430FD10F9801244AA315
:10321000012807D000980F9AC0E90031C0E90242A6
:10322000BDE8FF9F6FEA0B01F4E7A2F2FF3244F61C
:103230001050424315140F9801280FD0A5EB0B0036
:10324000401C4FF000043D4EDFF8F490B0F1000A4E
:10325000A046C0F1000717DB074615E0CBF10000E0
:10326000EFE7F80707D02246334640464946FDF7C8
:103270002FF9804689462246334620463146FDF7DF
:1032800027F904460E467F10002FEAD1DDE902013E
:10329000BAF1000F42464B4602DAFDF719F901E098
:1032A000FDF787F904460E460022264BFDF708FA83
:1032B00003D84FF0FF30014607E00022224B2046A2
:1032C0003146FDF760F8FDF7E3F9102409E0002C22
:1032D0000ADB0A220023FDF723F8019B30321A553E
:1032E000641E50EA0102F2D1641C019AC4F1110378
:1032F00014440F9A012A07D00122084301D15B45EB
:103300000DDD00226D1C0DE0084303D1A3EB0B057E
:103310006D1E09E000204FF0110B0F908BE701DAD2
:1033200000226D1E002A86D000980F99C0E9023154
:10333000C0E9004574E700003000000000002440B0
:103340000000F03F0000F0430000E03F2DE9FF4F98
:1033500095B006469A460F460025F2E1252879D118
:103360000024761CFB4AA046012106943378203BBA
:1033700001FA03F0104202D00443761CF6E73078DD
:103380002A2811D06FF02F023078A0F130010929DE
:1033900015D8069944F0020401EB810102EB4101CA
:1033A0000844761C0690EFE701CF0690002803DA68
:1033B000404244F40054069044F00204761C3078F5
:1033C0002E2817D116F8010F44F004042A280ED035
:1033D0006FF02F023078A0F1300109290AD808EBEC
:1033E000880102EB410100EB0108761CF2E757F877
:1033F000048B761C30786C280FD006DC4C2817D054
:1034000068280DD06A2814D104E0742810D07A28D6
:103410000FD10DE044F400140AE044F4801401E0FC
:1034200044F440147178814202D1761C04F5801472
:10343000761C3078864666280BD013DC582872D06C
:1034400009DC002870D04528F6D04628F4D047285B
:103450001AD195E118E0632831D0642874D065282A
:1034600012D18DE170286ED008DC6728F1D0692870
:103470006AD06E280DD06F2806D1A8E0732827D017
:10348000752874D0782873D05246179990476D1CD0
:1034900055E1C4F30250022806D003280AD00428BC
:1034A00001CF0AD005604AE101CF4FEAE571C0E9DA
:1034B000005144E101CF058041E105703FE101CFBA
:1034C0008DF8000000208DF80100EB46012003E09C
:1034D00057F804BB4FF0FF3061074FF0000102D4F2
:1034E0000DE009F10101894641450FDA8145F8DB1C
:1034F0001BF809100029F4D108E009F101018946FF
:103500008142FADB1BF809100029F6D106985346D0
:10351000A0EB090080462146179A00F094FA28444F
:1035200000EB090506E047E00FE11BF8010B5246EE
:1035300017999047B9F10109F7D253462146404601
:10354000179AF9E000E039E00A21C4F302524FF083
:10355000000B0091022A04D001CFC117032A08D022
:1035600009E0FF1D27F00707F7E8020107E01CE06C
:103570001DE000B2C117042A01D140B2C1170029D1
:1035800006DA0A460021404261EB02012D2202E0E8
:10359000220504D52B228DF80420012203E0E20746
:1035A00001D02022F7E7914653E00A2110E01020D5
:1035B0004FF0000B00900EE0102109E010204FF0BA
:1035C000000B44F004044FF00808009003E00821C9
:1035D0004FF0000B0091C4F30252022A04D001CF35
:1035E0000021032A06D007E0FF1D27F00707F7E8B0
:1035F000020105E080B20021042A01D1C0B20021FD
:103600004FF00009220724D5BEF1700F2AD0009B8D
:1036100083F0100353EA0B0309D150EA010206D0EC
:1036200030228DF804208DF805E002229146009B9F
:1036300083F0080353EA0B030BD150EA010201D1D6
:10364000620706D530228DF804204FF00109A8F159
:10365000010841A2BEF1580F00D044A203920FAA64
:1036600002920FE040228DF804200122DEE75B4643
:10367000009AFCF755FE039B9B5C029AA2F10102A3
:103680000292137050EA0102F1D1029807A9A1EB4E
:10369000000000F1200B600702D524F4803401E023
:1036A0004FF00108002041465A46D84501DDA1EB04
:1036B000020000EB0B01009006984944A0EB0100CA
:1036C0000690E00306D453462146179A069800F068
:1036D000BAF90544002008E001A8524610F8080095
:1036E000179990476D1C08F1010080464845F3DBAF
:1036F000E0030CD553462146179A069800F0A3F92B
:10370000054404E030205246179990476D1C0099FB
:10371000481E00900029F5DC08E002980299524604
:103720000078491C0291179990476D1CBBF100016C
:10373000ABF1010BF1DC67E100F072F9054406F131
:103740000106307800287FF409AE19B02846BDE89C
:10375000F08F00000928010030313233343536371C
:10376000383941424344454600000000303132338D
:1037700034353637383961626364656600000000AD
:10378000600701D44FF0060807F1070727F0070785
:10379000A0A1F7E8020C0CF000431A0007D19EA18B
:1037A000220504D49DA1E20701D1AFF24401129198
:1037B0002CF0004C7146BEF1650F0ED007DC452998
:1037C0000BD0462920D0BEF1470F3DD13DE0662900
:1037D0001AD0BEF1670F37D137E0002311224146DE
:1037E000B8F1110F00DA4A1CCDE900230246634606
:1037F00007A902A8FFF700FD012000904FF0000B81
:1038000008F10109039868E04FF000410F9101238E
:10381000CDE900830246634607A902A8FFF7ECFC46
:10382000DDE904904FF0000B20B9039908F1010085
:1038300001EB0009B8EB090003D4C0F1FF3B08F12C
:103840000109A9EB0800009048E04146B8F1010FDA
:1038500001DA0121884600231122B8F1110F00DCA2
:103860000A46CDE900230246634607A902A8FFF7EE
:10387000C3FC4FF0000BC14620070FD4049941450B
:1038800003DA894601E0A9F10109B9F1010F05DD6B
:103890000299A9F10100085C3028F4D00399414550
:1038A00002DA11F1040F03DA01200F91009015E004
:1038B000002903DC8B44A9EB010005E0481C4845C6
:1038C00003DD039800F1010081460399A1EB0B0091
:1038D00000F1010000904FF000400F90200705D448
:1038E0000098484502DB4FF0FF30009000210F9810
:1038F0000DF147088DF84710B0F1004F26D0022097
:1039000001902B2013900F9800280CDA40420F9062
:103910002D20139007E00A210F98FCF7EBFC3031C3
:103920000F9008F8011D0199481E01900029F2DC52
:103930000F980028EFD1A8F1010213991170317886
:1039400001F0200141F0450108F8021D10A9A1EB8A
:10395000080000F1070001901298007800B10120E2
:1039600000EB0901009801EBE07101980144069811
:10397000A0EB0100A0F101000690E00306D453463D
:103980002146179A069800F05EF8054412980078D0
:1039900020B152461799904705F10105E00322D561
:1039A00053462146179A069800F04DF805441AE050
:1039B000BBF1000F07DB0499594504DD029911F8AA
:1039C0000B00179901E01799302052469047009854
:1039D0006D1C401E0BF1010B009004D12E205246AD
:1039E000179990476D1CB9F10001A9F10109DFDCBD
:1039F00005E018F8010B5246179990476D1C019984
:103A0000481E01900029F4DC53462146179A069877
:103A100092E600002D0000002B00000020000000B6
:103A20002DE9F0410446002517461E46880405D4BA
:103A300006E039462020B04705F10105641EF8D59F
:103A40002846BDE8F0812DE9F041044600253027E5
:103A500090461E46C80300D42027880405D506E0FA
:103A600041463846B04705F10105641EF8D52846A1
:103A7000BDE8F08170B506460D46242001F09AFBA2
:103A8000040013D0267203F075F8606004F117018A
:103A900000202A5C0A54401CC0B20A28F9D30A4804
:103AA000016831B121600460002070BD6FF0040036
:103AB00070BD046000200246206004494FF4FA60A3
:103AC00003F05AF8F0E7000014010020D53A00088E
:103AD00002F0C8BD10B500F007F9074800680028DB
:103AE00008D00022AFF21301BDE810404FF4FA6095
:103AF00003F042B810BD000014010020F0B5DFF85B
:103B000074E0DEF80030002B2ED07246D3F800C0EF
:103B100000265568BCF1000F09D01C461A46177ADA
:103B2000874222D19A420BD1CEF800C00AE01A7A1D
:103B3000824219D11A4605B11D60CEE900630BE03F
:103B4000106820601DB11560CEF8042002E0CEF8A8
:103B500004201660002A07D0002014180B5C401CBB
:103B6000C0B263720E28F8D3F0BD14461268002A62
:103B7000D5D1F0BD1401002070B50F4C0122631C9B
:103B8000207803EBD00100F007060D7802FA06F664
:103B900035430D70411C09E003EBD10501F0070628
:103BA0002D7802FA06F6354204D0491CC9B2202904
:103BB000F2D970BD217070BD0E0100203EB5C82045
:103BC00002F048FF1E4CE06010B91EA0FFF7F4FAA7
:103BD000C82002F03FFF206110B928A0FFF7ECFADF
:103BE000C82002F037FF606110B930A0FFF7E4FA97
:103BF00001210820FEF7E4FE4FF6FF70ADF8040047
:103C00004720ADF800000020ADF806001020354D2B
:103C1000ADF8020069462846FFF708F9012211466F
:103C20002846FFF7FAF801212846FFF7DEF8D4E925
:103C30000301FFF743F8BDE83E4001F00FBA000072
:103C4000000000206170705F696E697428293A6510
:103C500072726F722C73747265616D696E675F64E6
:103C60006174615F726563765F6D626F78206973FE
:103C7000204E554C4C2E0D0A000000006170705F04
:103C8000696E697428293A6572726F722C636D646B
:103C90005F7265706C795F726563765F6D626F7875
:103CA000206973204E554C4C2E0D0A006170705FD8
:103CB000696E697428293A6572726F722C75706327
:103CC0006F6D70757465725F636D645F7265637646
:103CD0005F6D626F78206973204E554C4C2E0D0A33
:103CE00000000000000C004070B5184C25682AE068
:103CF00002F040FF6968814201D8401A01E0C943DF
:103D0000084440F6B83188421CD92E7A2168B1B1F6
:103D1000086840B9087AB04211D1084601F0ACFAFF
:103D2000002020600BE0027AB24204D102680A60EF
:103D300001F0A2FA03E0014600680028F3D1304602
:103D400000F026F92D68002DD2D170BD140100209D
:103D50002DE9F04106460F4637A0FFF72DFA3E4DFC
:103D6000A5F5805295F8080A00EB800101EBC0012F
:103D7000401C02EB011485F8080A6770A670012048
:103D800001F024FC6060D5F8001A02F071FC606854
:103D90006FF00206002845D00022FF2101F0E6FB6B
:103DA00000223946606801F0F9FB032001F00EFCA7
:103DB000E06018B30022FF2101F0D8FB0022394651
:103DC000E06801F0EBFB022001F000FCA060D5F8F8
:103DD000041A02F04DFCA06890B10022FF2101F00E
:103DE000C5FB00223946A06801F0D8FB00202070F6
:103DF000204600F0CBFF38B118A002E022A000E07E
:103E00002AA0FFF7D9F90DE031A0FFF7D5F9204638
:103E100000F07AFF30B938A0FFF7CEF9204600F065
:103E2000F7FF10B13046BDE8F0813EA0FFF7C4F9BE
:103E3000012020700020F6E76372656174655F54AD
:103E400042494D28293A637265617465207462693C
:103E50006D2025642E0D0A00FCE900206372656167
:103E600074655F5442494D28293A5442432067659E
:103E700074205442494D20737472756374206661D6
:103E8000696C65642E0D0A006372656174655F5428
:103E900042494D28293A74647020636F6E6E206920
:103EA00073204E554C4C2E0D0A0000006372656164
:103EB00074655F5442494D28293A73647020636FDA
:103EC0006E6E206973204E554C4C2E0D0A0000007A
:103ED0006372656174655F5442494D28293A5442C2
:103EE0004320676574205442494D20737472756392
:103EF00074204F4B2E0D0A006372656174655F5428
:103F000042494D28293A544243206765742054425F
:103F1000494D206D6574612054454453204F4B2E0C
:103F20000D0A00006372656174655F5442494D2853
:103F3000293A54424320676574205442494D207405
:103F400064636E2054454453204F4B2E0D0A0000ED
:103F500030B50246002301F089F810B118461370FD
:103F600030BD0A490A24487801EB8003401CB0FBAD
:103F7000F4F504FB1500D3F80330487001201070ED
:103F80000878401E0870184630BD0000840F0020DD
:103F900008490A78824200D30870064900F00703F6
:103FA000491C01EBD00101200A78984082430A7035
:103FB000704700000E01002010B50446006890F91B
:103FC000081011F1080F01DA21711DE0FD212171A6
:103FD0004368CBB10078012804D0022808D0032818
:103FE00012D10BE0627A217A184600F0ABF80AE0B1
:103FF000627A217A184601F02BFF04E0627A217A76
:10400000184602F083FE20712068C068BDE81040A9
:1040100002F076BD10B501680446486840B10978E1
:10402000012907D002290AD003290DD0FD200FE075
:10403000F7200DE0627A217A00F09AF808E0627ABF
:10404000217A01F01BFF03E0627A217A02F07EFE02
:1040500020712068C068BDE8104002F051BD10B565
:10406000044600F03DFF207300F046FF2061A06889
:10407000BDE8104002F044BD10B504460020207198
:104080002068406810B9204601F082FC2068C068B2
:10409000BDE8104002F034BD10B50446006890F948
:1040A000081011F1080F01DA217134E0F6212171B5
:1040B000416881B30078012804D002280ED003287B
:1040C00029D11CE0A0688079C871A0684379027981
:1040D00001682068406800F0DBF91BE011A0FFF7E1
:1040E0006BF82168A06849688079C871A068437935
:1040F000027901682068406801F0EAFF0AE0A068E0
:104100008079C871A06800214379027920684068ED
:1041100002F022FF20712068C068BDE8104002F064
:10412000EFBC0000646F5F73656E6428293A737397
:104130006E70207468726561642073656E642E0D04
:104140000A00000070B5094E002433681D4604E0E3
:10415000834201D1012402E01B68002BF8D1417198
:10416000C2710CB905603060002070BDB400002041
:10417000817102720179084B41F0010101711968E6
:104180000A4604E0814201D10020704709680029F5
:10419000F8D102601860F7E7B40000202DE9FC5F59
:1041A0004A4F0446386870B165686FF00209287894
:1041B0008008062811D000280FD004280DD005282B
:1041C0000BD043A00FE052A0FEF7F6FF204601F00F
:1041D00052FB6FF00300BDE8FC9F68780121B1EB52
:1041E000101F03D059A0FEF7E7FF10E0688846BA19
:1041F000F00701D0761CB6B22089B0420CD262A082
:10420000FEF7DAFF228931466AA0FEF7D5FF204685
:1042100001F031FB4846DEE7A81930F8020CA0F5A2
:104220007F41FF3906D03146284600F0EDFE08B147
:104230006CA0D8E73146204601F074FBA88801261F
:1042400041BA4FEA1128010241EA102000F0FF0BA9
:10425000E88841BA0D0A010241EA102000F0FF0A85
:104260006FF00901204601F02FFB08B165A0BAE705
:104270000DB1396823E03D680AE0EF683FB1CDE950
:1042800000BA00264346224629462869B8472D68C9
:10429000002DF2D10EB164A0A5E700209BE748797C
:1042A000A8420BD18A79424508D1CD685DB1CDE9EC
:1042B00000BA434622460869A847EEE70968002984
:1042C000EDD160A08FE765A08DE70000B40000206D
:1042D00064705F696E70757428293A20647020706C
:1042E00061636B65742064726F70706564206475BF
:1042F0006520746F206261642070726F746F636FE9
:104300006C206964656E7469666965722E0D0A00B9
:1043100064705F696E70757428293A2064656C65F5
:1043200074652064702064617461206265636175E6
:104330007365207468652064705F706362206973C0
:10434000204E554C4C2E0D0A0000000064705F6931
:104350006E70757428293A6470207061636B65749F
:104360002064726F707065642064756520746F20BE
:104370006261642070726F746F636F6C2076657217
:1043800073696F6E2E0D0A0064705F696E707574CC
:1043900028293A6470207061636B6574206973200A
:1043A0006C6F6E676572207468616E2070627566EE
:1043B0002E0D0A0064705F696E70757428293A6466
:1043C000705F646174615F7061645F6C656E3D25F0
:1043D000642C702D3E746F745F6C656E3D25642E89
:1043E0000D0A000064705F696E70757428293A6365
:1043F0006865636B73756D206661696C65642E0A10
:104400000000000064705F696E70757428293A704E
:1044100062756620686561646572206661696C65B5
:10442000642E0D0A0000000064705F696E70757480
:1044300028293A2064656C65746520706275662E63
:104440000D0A000064705F696E70757428293A2047
:104450006865726531330D0A0000000064705F69A1
:104460006E70757428293A206865726531342E0D96
:104470000A00000010B5002000F0A2FF040002D0E6
:104480001421FBF701FF204610BDC0E9031270475D
:10449000F8B51C4645790A4B02E01E7DAE4205D0B8
:1044A0001B68002BF9D1074B1B682BB123B100937C
:1044B000234600F009F8F8BD6FF00600F8BD0000D3
:1044C000E4000020E80000202DE9FF5F0C46814653
:1044D0009B460A21204601F0F7F96FF0040688B1E7
:1044E00000220A21032001F00DF9050006D02089E1
:1044F00048B12146284601F0B5F904E035A0FEF7A1
:104500005BFE64E02546608903264FF0000AC00781
:1045100000D10226062000F053FF90B106814681AB
:104520004FF0000800F11001C0E900810746F007D4
:1045300001D001F8018BAC4213D160897A89104413
:1045400014E02FA0FEF738FE37A0FEF735FEAC4290
:1045500002D0284601F08FF96FF0020004B0BDE8E8
:10456000F09F688962897B891044184486B24FF6AF
:10457000FF7008803946284601F074F968681821F0
:1045800040F6060301701021417071BA418099F81C
:10459000072099F8051042EA012149BA8180029A60
:1045A0004BEA022149BAC180A0F808A00E9829461A
:1045B000029A8668B04706463946062000F012FF88
:1045C000C4F80080A54202D0284601F054F93046D4
:1045D000C4E7000064705F73656E64746F5F696642
:1045E00028293A636F756C64206E6F7420616C6C5F
:1045F0006F63617465206865616465722E0D0A00E1
:104600006164645F7061645F7062756628293A61F5
:104610006C6C6F63206275665F70616420666169AF
:104620006C65640D0A00000064705F73656E6474ED
:104630006F5F696628293A616464207061645F7005
:10464000627566206661696C65640D0A0000000091
:104650002DE9F0415568164607466A7C0120531E35
:1046600005F111040E2B1FD314F8041D28A0FEF72A
:10467000A3FD617826A0FEF79FFDA17824A0FEF798
:104680009BFDE278217926A0FEF796FD61792DA0A9
:10469000FEF792FDA1792BA0FEF78EFDE17929A00E
:1046A000FEF78AFD2BA017E0022A05D0042A16D0B7
:1046B0000C2A23D036A00FE02546FFF75DFA04460A
:1046C000691CFFF7D7F900281CD16A1C214638461F
:1046D00001F0E6FDB0B138A0FEF76EFD12E015F86E
:1046E000120F00F0CDFC20B12878691CFFF706FA04
:1046F00008E029783DA0FEF75FFD03E046498A798E
:1047000002B988713046BDE8F04101F0B4B800004C
:10471000707265762069732025642E0D0A000000F2
:104720006572726F72206D736720636F64652069B4
:10473000732025642C707265762069732025642EA1
:104740000D0A000061667465722069732025642E6D
:104750000D0A00006574686263705F696E7075743D
:1047600028293A696E636F7272656374206275738B
:10477000206D616E6167656D656E74206D65737324
:104780006167657320636F64652E0D0A0000000089
:104790006574686263705F696E70757428293A6920
:1047A0006E636F72726563742062637020747970D7
:1047B000652E0D0A000000006574686263705F6911
:1047C0006E70757428293A5442432073656E6420D4
:1047D00061737369676E20616C696173206D7367C3
:1047E000206661696C65642E0D0A0000657468625C
:1047F00063705F696E70757428293A4552524F5242
:1048000028756E6B6E6F776E20616C696173202501
:1048100064292E0D0A000000C00000202DE9F0419F
:104820000D460646174698460E21284601F04CF8DC
:1048300088B100220E21032000F064FF040003D0A1
:10484000294601F00FF807E013A0FEF7B5FC6FF062
:104850000100BDE8F0812C46402260680021027012
:1048600047708170C170017141718271327DC27176
:10487000017241728172C17298FA98F18181F26875
:104880002146304690470646AC4202D0204600F012
:10489000F2FF3046DDE70000706275665F686561B3
:1048A00064657228293A636F756C64206E6F74209A
:1048B000616C6C6F6361746520726F6F6D20666FE1
:1048C00072206865616465722E0D0A002DE9FC474F
:1048D00001214FF4E030FEF75BF801217D20FEF767
:1048E0007BF80425ADF800500324DFF81C918DF807
:1048F000024018268DF8036069464846FCF7FAFA2C
:104900000620ADF80000414F8DF802408DF803609D
:1049100069463846FCF7EEFA43F62010ADF8000081
:10492000DFF8EC808DF802408DF803606946404660
:10493000FCF7E0FA01214FF02010FCF72DFB0B20D3
:10494000ADF800008DF802408DF8035069464846E6
:10495000FCF7D0FA2802ADF800008DF802408DF87F
:10496000035069464046FCF7C5FAC020ADF8000088
:104970008DF8024014208DF8030069464046FCF78C
:10498000B9FA0820ADF800008DF802408DF8035008
:1049900069463846FCF7AEFA4FF4F850ADF800001F
:1049A0008DF802408DF803501A4D69462846FCF7F1
:1049B000A1FA6814ADF800008DF8024010208DF8BF
:1049C000030069462846FCF795FAA815ADF80000E3
:1049D0008DF802408DF8036069464846FCF78AFA74
:1049E000FCF738FA6002FCF703FD3D208DF8040067
:1049F00001208DF805008DF806008DF8070001A84C
:104A0000FCF7C8FCBDE8FC8700080140001001402D
:104A1000000C01400014014070B5044640890D4669
:104A20000E2801D824A020E060686FF00D06808970
:104A300040BAB0F5006F20D0A0F50060023807D072
:104A400004280CD0A0F5F040FE3820D027A00CE0C0
:104A5000224605F119012846FFF7FAFD2AE0314602
:104A6000204600F031FF18B12BA0FEF7A5FB16E0A1
:104A700029462046FFF792FB1CE03146204600F015
:104A800023FF60B92946204601F00EFA12E02DA05E
:104A9000FEF792FB3146204600F016FF18B1204683
:104AA00000F0E9FE06E031A0FEF786FB294620462D
:104AB00002F062F9002070BD65746865726E6574FD
:104AC0005F696E70757428293A746865206574682A
:104AD00065726E6574206672616D652069732074FD
:104AE0006F6F20736D616C6C2E0A000065746865D1
:104AF000726E65745F696E70757428293A696E63A9
:104B00006F72726563742065746865726E65742077
:104B1000747970652E0D0A0065746865726E65742F
:104B20005F696E70757428293A6261642064702030
:104B3000646174612064656C6574652069742E0D10
:104B40000A00000065746865726E65745F696E7056
:104B5000757428293A6765742074702074797065BB
:104B600020646174612C0D0A0000000065746865A2
:104B7000726E65745F696E70757428293A67657422
:104B800020726967687420747020646174612C0DF0
:104B90000A00000010B5040002D10EA0FEF70CFBC5
:104BA000042000F007FB90B16821206184F82010F8
:104BB000772184F821101149A1601149E16004F1C5
:104BC00019010160204600F071FA002010BD6FF05D
:104BD000040010BD65746865726E657469665F690E
:104BE0006E697428293A6572726F722C6E657469E9
:104BF000663D3D4E554C4C0A000000001D48000823
:104C00001D5100082DE9FE438046FBF7BDFA8146A1
:104C100000266846FCF75AF80098032281B2104635
:104C2000019F00F06FFD05000AD00446B9196289A2
:104C30006068FBF710FB608924680644002CF5D1FE
:104C400002994FF0004008600F484169090603D5FA
:104C500080214161002181604846FBF799FA7DB1CE
:104C6000D8F80420414628469047040005D007A004
:104C7000FEF7A2FA284600F0FEFD2046BDE8FE83BE
:104C80006FF00400FAE70000009002406574686568
:104C9000726E657469665F696E70757428293A6909
:104CA0006E707574206572726F722E0D0A000000AE
:104CB0000B4A002101EB810303EBC10302EB031359
:104CC0005B78834206D101EB810000EBC10002EB6F
:104CD00000107047491CC9B22029EBD3002070474F
:104CE000FCD9002070B5074D0446C1B22846FEF736
:104CF0005DFA40212846FEF7BDF90028F9D020468C
:104D000070BD000000440040FEB5054601230322AB
:104D10000021FEF700F86FF0020678BB0024694618
:104D2000686800F071FC38B10620FBF7A0FD641C38
:104D3000E4B2062CF3D321E0009800F08FFB0420AE
:104D40008DF8040001208DF805002320CDF8060021
:104D5000ADF80A00082301AA00212846FDF7B8FF94
:104D600060B900246946686800F04EFC40B1062036
:104D7000FBF77DFD641CE4B2062CF3D33046FEBD88
:104D8000009800F06BFB0020FEBD0000F8B5054662
:104D9000102301220021FDF7BEFF6FF0020618B1BB
:104DA0000DA0FEF709FA0CE000246946686800F0DF
:104DB0002BFC40B10620FBF75AFD641CE4B2062C24
:104DC000F3D33046F8BD009801684968C978E970A6
:104DD00000F044FB0020F8BD6765745F5442494D04
:104DE0005F73747275637428293A73656E64206703
:104DF0006574207462696D20737472756374206DBC
:104E00007367206661696C65642E0D0A00000000FE
:104E10002DE9FF41074604208DF8040003208DF89A
:104E200005007620CDF80600ADF8080003AC01259A
:104E30006FF0020849E003231A4629463846FDF779
:104E40006AFF28BB00266946786800F0DDFB38B1B0
:104E50000620FBF70CFD761CF6B2062EF3D317E006
:104E6000009800F0FBFA2570092301AA00213846BA
:104E7000FDF72EFF60B900246946786800F0C4FB96
:104E800050B10620FBF7F3FC641CE4B2062CF3D30C
:104E9000404604B0BDE8F081009879780068446825
:104EA0000CA0FEF789F90026A01981780AA0FEF768
:104EB00083F9761CF6B2202EF6D308A0FEF77CF913
:104EC000009800F0CBFA6D1CEDB2F878A842B2D28F
:104ED0000020DEE74025640025640000400000005B
:104EE0000148007870470000B80000200148406881
:104EF000704700001401002010B5FFF7F7FF040011
:104F000002D102A0FEF758F9204610BD6765745F14
:104F1000646F6E655F6C69737428293A656D70748F
:104F200079206C6973742E0A00000000F0B44FF60B
:104F3000FF770021DFF860C03A460B4603EB8300A1
:104F400000EBC3000CEB0015287890B10020EE7840
:104F50000DE000BF00EB400405EB8404A48A9442FA
:104F600000D222468C4200D92146401CC0B2864263
:104F7000F0D85B1CDBB2202BE0D3BA420AD0002968
:104F800008D00648A0F80A1AA0F80C2AF0BC04A021
:104F9000FEF712B9F0BC7047FCD90020FCE90020F4
:104FA0006765745F65706F636828293A7468652067
:104FB0006D617820706572696F6420697320256463
:104FC0002C746865206D696E20706572696F64204D
:104FD00069732025642E0D0A0000000000B587B01B
:104FE000002001F08BFD0390002005908DF810004B
:104FF00003480090684601F077FB059807B000BDB4
:105000005F400008FFF762BC00207047F0B512490E
:10501000012228230A704A708B701323CB7002235D
:105020000B714A713B238B710020232303245E25DF
:10503000CB7184465FF05D0601EB80031C7240B1CA
:1050400083F809C0401C9D72C0B2DE720828F3D3F9
:10505000F0BD4A72F6E7000010F40020024800217B
:105060004170817001707047840F00200349012056
:105070000978002900D0002070470000840F00202C
:10508000064905E00A7A824202D121B10120704727
:1050900009680029F6D100207047000014010020A3
:1050A0000148807970470000C000002070B50621DB
:1050B0000176174A00214418535C491CC9B2637633
:1050C0000629F8D340F2DC51C182FBF75DF81149A3
:1050D00006460222A1F5BF50FBF72CFC0E49042224
:1050E000A1F16000FBF7E8FB0B4D0024B5F1600572
:1050F00005EB04100121FBF705FC641CE4B2042C51
:10510000F6D33046FBF744F8BDE87040FBF70EBE1F
:10511000C7000020A8380020E82000202DE9F04139
:105120000C460025FBF730F807460B4800688668F8
:1051300007E0628970196168FBF78DF8608924685F
:105140000544002CF5D1A8B2FBF740FE3846FBF72A
:105150001FF80020BDE8F0813000002000B587B0C6
:10516000FBF764F8FCF776F90D480DF1040C032306
:1051700000224021ACE80F00012300F1FC020021D5
:1051800008480093FCF700FE8DF8140005AA06A15C
:105190000120FCF74FFEFCF77BFD07B0002000BDAF
:1051A000240100204B08000853746172742054617C
:1051B000736B00002DE9F04700280BD0C01C20F0D5
:1051C00003054FF420590C2D01D20C2504E04D4568
:1051D00002D90020BDE8F087DFF898800021D8F8D8
:1051E0000C0001F0BDFBD8F80870D8F80060C5F5D8
:1051F0002051B81B36E03418227A8ABB2268121A72
:105200000C3AAA422DD3226805F11801121A012383
:105210000C3A8A420FD341190C31721800251572CD
:105220002568C2E90050216023721068484503D008
:10523000321D815000E02372BC420AD1D8F804002C
:1052400001E039688F19397A09B18742F9D1C8F874
:105250000870D8F80C0001F053FC04F10C00B9E719
:10526000FFE730588142C6D8D8F80C0001F048FC5E
:10527000AFE70000D000002070B5050019D00D4C3C
:105280002068854215D36068854212D20021E0680B
:1052900001F066FBA5F10C0000210172A1688842B3
:1052A00000D2A06000F0AEFBE068BDE8704001F005
:1052B00027BC70BDD000002010B50C480C4C20F06D
:1052C00003004FF4205200212060C0E90021017248
:1052D00000F52051012361600B720A604A60A060F2
:1052E000184601F00BFCE06010BD00008B4400206C
:1052F000D00000202DE9F05FC91C21F00304064610
:105300004FF4205B0C2C01D20C2401E05C450FD83B
:105310002A4801688E420FD3426896420CD2A6F109
:105320000C056F1A2968C91BA1F10C094C4502D95B
:105330000020BDE8F09F01D13046FAE78246002107
:10534000C06801F00DFB2968DAF800004FF0000892
:105350000A18117AE1B104F11801494513D83A1934
:105360000C32DAF808408118A14201D2CAF80810BC
:1053700081F808802B68C1E900372A60096859451F
:1053800001D0001D0A50DAF80C0001F0B9FBD3E798
:105390003919DAF808400C311368944202D14218E6
:1053A000CAF80820421882F80880C2E9003729604C
:1053B00012685A45E7D0001D1150E4E7D0000020E4
:1053C00070B50546FAF7E0FE054951F8254014B1DD
:1053D000226841F82520FAF7DBFE204670BD000068
:1053E000A46C002070B5054600290CD00C46FAF7D5
:1053F000CBFE054951F82520226041F82540BDE843
:105400007040FAF7C5BE70BDA46C0020F0B511481D
:10541000104B20F0030200200F4D0746333B05F1EF
:10542000180400BF43F82070002109E053F8206001
:10543000166043F8202035F81060491C324489B2C8
:1054400034F810608E42F1D8401C80B20C28E9D3A9
:10545000F0BD0000D76C00204474000810B50400B3
:105460000BD0206818B100F006FA00202060214619
:10547000BDE810400420FFF7B5BF10BD10B50446CD
:10548000006808B100F0F7F90020206010BD70B589
:10549000044600680E46154608B100F0ECF90021FC
:1054A0000222084600F02EF9206030B146602068E4
:1054B000058120684581002070BD6FF0040070BD3B
:1054C00070B506461820FFF775FE04000BD00025C6
:1054D000257226706560012E09D0022E07D0032E9A
:1054E00005D00CA00DE015A0FDF766FE0FE0002032
:1054F00001F004FBE06018B125612575204670BD00
:1055000017A0FDF759FE21460520FFF76BFF00208D
:1055100070BD00006E6574636F6E6E5F616C6C6F62
:105520006328293A756E6B6E6F776E206E657463B3
:105530006F6E6E20747970652E0D0A006E6574634F
:105540006F6E6E5F616C6C6F6328293A616C6C6F73
:1055500063206572726F72204E554C4C2E0D0A00FE
:105560006572726F72312E0D0A00000010B586B0A0
:1055700004460948CDE900048DF80C108DF80D2083
:10558000684601F097F894F9081011F1080F00DB54
:10559000207206B010BD0000B93F000810B586B0FB
:1055A00004460948CDE900048DF80C108DF80D2053
:1055B000684601F07FF894F9081011F1080F00DB3C
:1055C000207206B010BD00001540000810B586B06E
:1055D000FFF776FF040013D00A48CDE900046846BF
:1055E00001F068F860B1E06801F082FA206901F02A
:1055F000FBF921460520FFF7F5FE002006B010BD9F
:105600002046FBE77940000838B50D006FF0030134
:1056100013D090B100242C60036973B1009490F909
:10562000080010F1080F07DB00226946184601F058
:1056300055F900982860204638BD084638BD00005E
:1056400010B586B004000FD071B10948CDE900044F
:105650000391684601F02EF894F9081011F1080F33
:1056600000DB207206B010BD6FF00300FAE7000007
:105670009940000819B10A714B71FFF7E1BF6FF053
:10568000020070472DE9F0410446DDF818800D4610
:1056900017461E0002D10DA0FDF78EFD0020E07719
:1056A0002575134D2761287884F82200401C287046
:1056B0002046C4F80480B04710B10020BDE8F08156
:1056C0006868206020466C60F8E700006E657469C9
:1056D000665F61646428293A6E6F20696E69742080
:1056E00066756E6374696F6E20676976656E0A0011
:1056F000E00000207047000001498860704700000A
:10570000E00000202DE9F05F0D46164630B101287B
:1057100004D0022804D0032855D103E0182702E062
:105720000E2700E000274FF0010A4FF00008002E7E
:105730004AD0012E60D0022E5ED0032E6FD10B20F6
:10574000FFF73EFE040068D0E0191330267320F006
:105750000300C4E90080FF1C27F00302C2F18402A9
:10576000414625812846AA4200DC104682B2628169
:10577000A4F80EA0A146AF1A4FF0840B884619E09A
:105780000B20FFF71DFE050017D02E7385F80D8046
:10579000C5F80080B8B2C9F800502881594684285D
:1057A00000D20146698105F110006860A5F80EA0DD
:1057B0007F1AA946002FE3DC2AE01AA0FDF7FCFCC3
:1057C000284600F058F82AE007F1130020F0030102
:1057D000E81C20F003000844FFF7ECFC04001ED096
:1057E000E019133020F00300606025816581C4F862
:1057F000008084F80C800BE00A20FFF7E1FD040034
:105800000BD0C4F8048025816581C4F8008026731C
:10581000A4F80EA084F80D802046BDE8F09F00207B
:10582000FBE70000706275665F616C6C6F6328292E
:105830003A20706275662071206973204E554C4C79
:105840002E0D0A0010B504E003890C89234403815E
:1058500010460268002AF7D102890B891A44028196
:10586000016010BD10B50C46FFF7ECFF2046BDE807
:10587000104000F07FB870B504000AD00025FAF798
:1058800083FCE189491E8EB2E681FAF781FC16B1EC
:1058900010E0002070BD207B266803280CD0012872
:1058A0000DD002280BD02046FFF7E6FC6D1CEDB2B0
:1058B0003400E4D1284670BD21460B2001E021468A
:1058C0000A20FFF78FFDF1E710B530B1002904D0B1
:1058D00005DAC1F1000294B202E0002010BD8CB2E2
:1058E000027B436832B1032A04D0022A0AD0012A7B
:1058F00008D015E05A1A00F110044260A24208D202
:1059000043600DE000290BDA4289A24208D35A1AFB
:10591000426042890A444281028911440181DCE7E4
:10592000012010BD70B502898A4222D98A1A0D461B
:10593000044691B205E0281A85B2208908442081E6
:1059400024686089A842F6D3207B50B96089A842B8
:1059500007D06068001B80B241192046FFF7CAFCDF
:10596000044665812581206808B1FFF784FF002087
:10597000206070BD10B5040008D0FAF705FCE1897D
:10598000491CE181BDE81040FAF702BC10BD0000DF
:1059900070B5044600686FF004050078012806D051
:1059A000022811D003281BD0FD20207170BDFEF706
:1059B00061FD21684860226820B1BDE870400E4951
:1059C000FEF763BD257170BD00F074FB21680028EF
:1059D00048602268F6D0BDE87040084900F075BB09
:1059E00001F0ACFA2168002848602268EAD0BDE8DE
:1059F0007040034901F0ADBA0D5D0008615D00081B
:105A0000095E000830B5134903680A68141D134481
:105A100098420DD01D7A5DB94D68AB4208D08D68B3
:105A20009D4200D188601D6805601B68851A1D5164
:105A30004368134498420BD01D7A002D08D18D681D
:105A4000854200D18B60016819600068991A015184
:105A500030BD0000D00000201FB51BA1D1E900011E
:105A6000CDE90201002001F049F8019001A9184890
:105A700000F054FE0021019800F072FF019801F03F
:105A800037F802A800F0FAFD124B00930022124BE7
:105A900011461248FFF7F6FD1048FFF72DFEFDF7FF
:105AA00099FA4FF4C060FBF7A3FC26208DF80000A4
:105AB00003208DF801008DF8020001208DF803000D
:105AC0006846FBF767FC1FBD40FF000000000000B8
:105AD0005D67000865670008954B0008ECD600205C
