:020000040800F2
:10000000D8F90020650100084D1300088D12000882
:100010004913000889080008EB3A000800000000B6
:100020000000000000000000000000007533000820
:100030008D08000800000000CB0100088134000892
:100040007F0100087F0100087F0100087F01000890
:100050007F0100087F0100087F0100087F01000880
:100060007F0100087F0100087F0100087F01000870
:100070007F0100087F0100087F0100087F01000860
:100080007F0100087F0100087F0100087F01000850
:100090007F0100087F0100087F0100087F01000840
:1000A0007F0100087F0100087F0100087F01000830
:1000B0007F0100087F0100087F0100087F01000820
:1000C0007F0100087F0100087F0100087F01000810
:1000D0007F010008D5370008D93700087F010008E4
:1000E0007F0100087F0100087F0100080000000078
:1000F0000000000000000000000000000000000000
:100100000000000000000000493600087F010008E0
:100110007F0100087F0100087F0100087F010008BF
:100120007F0100087F0100087F0100087F010008AF
:100130007F010008950A00087F0100087F01000880
:100140007F0100087F0100087F0100087F0100088F
:10015000DFF80CD000F000FB00480047F160000819
:10016000D8F900200648804706480047FEE7FEE72A
:10017000FEE7FEE7FEE7FEE7FEE7FEE7FEE7FEE757
:10018000A934000851010008EFF3108072B67047DF
:1001900080F3108870471D484FF0FF010170002068
:1001A00080F309881A48012101701A484FF08051E4
:1001B000016062B6FEE717484FF08051016070475A
:1001C00014484FF080510160704772B6EFF3098018
:1001D00028B1203880E8F00F0F490968086000B5A1
:1001E0000E4880475DF804EB0D480E490A7802700E
:1001F00009480D490A680260106890E8F00F203045
:1002000080F309884EF0040E62B6704722ED00E0DC
:100210008200002004ED00E088000020F1230008A7
:1002200077000020780000209000002072B6704710
:1002300062B67047EFF3108072B6704780F3108893
:100240007047B0FA80F0704790FAA0F0704730BF66
:10025000704720BF704740EA01039B0703D009E0C5
:1002600008C9121F08C0042AFAD203E011F8013BA2
:1002700000F8013B521EF9D27047D2B201E000F8FB
:10028000012B491EFBD270470022F6E710B5044649
:100290000846114602462046FFF7EFFF204610BDF4
:1002A00030B50B46014600202022012409E021FA46
:1002B00002F59D4205D303FA02F5491B04FA02F543
:1002C0002844151EA2F10102F1DC30BD2DE9F05FDA
:1002D0000546002092469B468846064681464024B5
:1002E0001DE0284641464746224600F056FAB0EB4C
:1002F0000A0052465B4671EB0B0110D310461946BB
:10030000224600F03BFA2D1A67EB01084F462246C1
:100310000120002100F032FA17EB00094E41201EA7
:10032000A4F10104DDDC484631462A464346BDE8D7
:10033000F09F10B5002B08DA401C41F10001921823
:100340005B411A4301D120F0010010BD2DE9FF4DA2
:10035000934611B1B1FA81F202E0B0FA80F2203294
:10036000924600F00BFA039A0746884640EA0B00D3
:1003700011435B46084304D13846414604B0BDE80A
:10038000F08D114653EA020016D0CAF140025846D9
:1003900000F003FA04460D464FF001065846524657
:1003A000039900F0EBF9084300D10026344345EAF5
:1003B000E675274345EA08080E984FF00005A0EBC4
:1003C0000A014FEAD7200A314FEA47532A4640EA4A
:1003D00048504FEAD82402D500200146CEE728181D
:1003E00044EB0151DDE90C45001904B06941BDE859
:1003F000F04D9EE72DE9FE4F074681EA0300C00F4E
:100400000E46019021F0004123F00044B81AA141AA
:1004100005D23846314617461E460B46024623F0A3
:100420000040104304D13846314603B0BDE8F08F98
:10043000350DC5F30A00C3F30A510290401A00902B
:10044000402867DAC3F3130040F4801B01989246FA
:1004500020B10023D2EB030A63EB0B0B0098594643
:10046000C0F14002504600F089F980460C465046E3
:100470005946009A00F0A1F9C0197141EF1785EAB9
:1004800011533B433FD0019A4AB3009A012A11DC31
:100490000022801A61EB05514FF0004303EA055535
:1004A000CDE90025801841F5801142462346FFF72B
:1004B0004DFFBAE72E050025401B61EB06014019F0
:1004C00041F58012001852412818A6F5001343EB9D
:1004D000020140EAD47018EB0808644113E0640894
:1004E0004FEA38084FF0000244EAC0744FEA05535F
:1004F000801A61EB0301801841F5801149084FEA29
:100500003000801859414246234603B0BDE8F04F01
:10051000FFF70FBF0198012240000023D0EB020239
:1005200063EBE07301984FEAE074381A66EB04015C
:10053000EBE783F000435DE781F000415AE72DE9E6
:10054000FE4F81EA030421F0004504F0004423F04B
:1005500000414FF0000A009450EA050302D052EA2D
:10056000010304D10020014603B0BDE8F08FC1F3C0
:100570000A53C5F30A542344A3F2F3330193A0FBB7
:1005800002B3C5F3130545F4801CC1F3130141F414
:1005900080180CFB023300FB083E810A930A41EAF3
:1005A0008C5143EA8853A1FB03474FEA9C2505FB86
:1005B00003734FEA982601FB06373D05260545EAF9
:1005C0001435BBEB06016EEB0503850E920E45EA72
:1005D0008C1542EA8812A5FB0206261E67EB00076F
:1005E0000C0D44EA0334A61947EB1350C1F313046E
:1005F0004FF000031946E5FB02014FEA033545EAD7
:100600001455019B4FEA0432009CA3F10C03CDE981
:1006100000A445EA060502932B46FFF797FEA3E7E1
:100620002DE9F04D81EA030404F0004B21F000476E
:1006300014464FF0000A23F0004150EA070220D090
:1006400054EA01021DD0C1F30A550246C1F313005A
:10065000C7F30A56C7F3130340F4801143F4801321
:10066000A6EB0508101BD64608F2FD3873EB010017
:1006700002D308F1010801E092185B41B8F1000FC4
:1006800003DA00200146BDE8F08D00204FF480150C
:10069000064607460EE0B2EB040C73EB010C04D3E4
:1006A000121B064363EB01032F436D084FEA300032
:1006B00092185B4150EA050CEDD152EA030012D0CA
:1006C00082EA040083EA0105284303D100224FF0A7
:1006D000004308E0101B8B4102D20122002302E0FC
:1006E0006FF0010253101AEB060047EB085110EBB4
:1006F0000A0041EB0B01BDE8F04DFFF71ABEC1F354
:100700000A52C1F3130140F2FF3341F480119A42BF
:1007100002DA00200146704740F233439A42A2F2C7
:10072000334202DC524200F038B800F027B8000033
:1007300030B5002904DB4FF00044404264EB010176
:10074000002B04DB4FF00044524264EB0303994258
:1007500008BF904230BD0000064C074D06E0E0683F
:1007600040F0010394E8070098471034AC42F6D3F8
:10077000FFF7F2FC4089000860890008202A04DBAA
:10078000203A00FA02F1002070479140C2F12003A4
:1007900020FA03F3194390407047202A04DB203AE3
:1007A00021FA02F00021704721FA02F3D040C2F191
:1007B00020029140084319467047202A06DBCB17D8
:1007C000203A41FA02F043EAE07306E041FA02F30C
:1007D000D040C2F12002914008431946704770B5DD
:1007E00001EB020410F8015B15F0070301D110F8CA
:1007F000013B2A1106D110F8012B03E010F8016B20
:1008000001F8016B5B1EF9D12B0705D40023521EA2
:100810000FD401F8013BFAE710F8013B02F10202A4
:10082000A1EB030303E013F8015B01F8015B521E27
:10083000F9D5A142D6D3002070BD000010B500BF8D
:100840000623034A0021034801F0CEFB044610BDF5
:100850005406002099840008704710B5FFF7EEFF9A
:1008600010BD7047704702F029F801F091FBFFF7C7
:10087000F4FF00BF00231A460121184601F0FCFDD9
:10088000F8E770477047704700BFFEE7704770B5E4
:1008900004460A20B4FBF0F5284601F0ADFD70BD1A
:1008A00070B504460A20B4FBF0F5284601F0A4FD1B
:1008B00070BD00000149486170470000009002408F
:1008C00029B1064AD2690243044BDA6104E0034AC3
:1008D000D2698243014BDA61704700000090024008
:1008E00030B10749896941F00201054A916105E08B
:1008F0000349896921F00201014A916170470000B2
:100900000090024030B50C4613460021104D28607F
:1009100000BF18E000EB01124FF00045156044F2F3
:10092000F0555560C1EB411505EB811504EB05153C
:1009300095605D1E8D4204D900EB01151035D56020
:1009400000E0D060491C9942E4D3024DE86030BD1C
:10095000380000200090024021B1426822F000429D
:10096000426003E0426842F000424260704700008B
:1009700030B10749896941F40051054A916105E0A8
:100980000349896921F40051014A916170470000CF
:100990000090024030B50C46134600210F4D2860F0
:1009A00000BF15E000EB01124FF480151560C1EB9C
:1009B000411505EB811504EB051595605D1E8D4213
:1009C00004D900EB01151035D56000E0D060491C5A
:1009D0009942E7D3024D286130BD00003400002069
:1009E0000090024010B50121880302F095FB002120
:1009F0004FF4804002F090FB10BD0021014600E062
:100A0000491E0029FCD170470348806940F48010DA
:100A10000149886170470000009002400148006869
:100A2000806870473400002001460868C0F30D401C
:100A30007047000000B500220F480068006810F001
:100A4000004F16D10C480068006810F4004F10D118
:100A500009480068006810F4807F0AD006480068E2
:100A6000006810F4007F04D003480068FFF7DCFF43
:100A70000246104600BD0000380000200020044956
:100A8000096811F0010F01D0012000E0002070473B
:100A90000090024010B5FFF777FB04460C48007841
:100AA000401C0B4908702046FFF772FB02E0094822
:100AB00004F078FFFFF7BEFF0028F8D14020FFF7D1
:100AC000F9FE4FF48030FFF7F5FE00F0CDFD10BDCC
:100AD0007500002074D700202DE9F04786B0044649
:100AE00088464FF000090025AA46854F0026854814
:100AF000056925F01C0501A802F03EFB029F824813
:100B0000874205D38148874202D245F0080509E0B3
:100B10007E48874205D37A48874202D245F00C05C9
:100B200000E000BF774805614FF4004200214046D5
:100B300000F054FA18B9002006B0BDE8F0877448F8
:100B4000FFF75BFF2068002844D000BF761C01211E
:100B5000404600F025F910F0040F02D16D4886429E
:100B6000F4D36C48864201D10020E5E700264FF41B
:100B700080520021404600F031FA08B90020DBE73E
:100B800000BF761C0121404600F00AF910F0200F4A
:100B900002D160488642F4D35E48864201D10020EB
:100BA000CAE700261021404600F0FAF8814619F005
:100BB000040F03D04FF40060206201E000202062A7
:100BC00019F0020F02D00020606116E04FF480405F
:100BD000606112E0206AC0F3CF006169C1F34F0188
:100BE00040EA01020021404600F0F8F908B900206F
:100BF000A2E76FF07F40FFF700FF424805684648D4
:100C00000540D4E901010843E1680843216908432C
:100C100061690843A1690843E1690843216A0843FF
:100C2000616A0843A16A0843E16A0843216B0843EB
:100C3000616B0843054333480560D4E90E0108435E
:100C4000216C0843616C0843A16C0843E16C0843C4
:100C5000216D0843616D08432A494860A06D886092
:100C6000E06DC860084685694FF641700540D4E9DB
:100C7000181040EA0140A16E0843E16E0843216F5D
:100C80000843616F084305431E488561D4E91E018E
:100C900008431C49C8612148856921480540D4E9B9
:100CA00020010843D4F888100843D4F88C10084376
:100CB000D4F890100843D4F894100843D4F898104E
:100CC0000843D4F89C100843D4F8A0100843054307
:100CD00012488561D4E929010843D4F8AC100843CF
:100CE000D4F8B0100843D4F8B41040EA8100D4F826
:100CF000B810084340F400000849086001201BE7D1
:100D00000087930300800240002D3101C00E1602BF
:100D1000FFFF0F00FFFF04000F8120FF0090024043
:100D2000233FDEF810B50B794C7943EA0422094BD6
:100D300003441A64CB781B068C7843EA04434C784E
:100D400043EA04230C7843EA0402024B03445A6446
:100D500010BD00000080024030B10749096841F031
:100D60000401054A116005E00349096821F0040106
:100D7000014A1160704700000080024030B107490D
:100D8000096841F00801054A116005E00349096856
:100D900021F00801014A1160704700000080024004
:100DA00010B503460C46002100221348016901F0EA
:100DB0001C014FF4784000EAC32001434FF4F8606F
:100DC00000EA8410014321F0020141F001010A48C8
:100DD000016100BF521C0848016911F0010F02D0E7
:100DE00006488242F6D30548824201D1002010BD58
:100DF0000148406980B2FAE700800240FFFF04002A
:100E00001EB500210022009201920292214A12682E
:100E1000126812F0004F10D0002200921E4A526950
:100E200012F0800F04D080221B4B5A6100229A607E
:100E30009DE81C0080E81C001EBD164A126812685E
:100E400012F4004F16D1134A1268126812F4807F10
:100E500010D0104A1268126812F4007F0AD00D4AAE
:100E600012681268C2F30D42111F0A4A1268926892
:100E7000019200E000210091064A12680292054AA0
:100E80001268D268034B1A609DE81C0080E81C00C1
:100E900000BFD1E7380000200090024003480068FE
:100EA00040F00100014908607047000000900240D6
:100EB00000B50120FFF762FFFFF7A6FD0120FFF755
:100EC0004BFF0120FFF754FD0120FFF709FD00BD96
:100ED0000021016041608160C16001614161816107
:100EE000C161016241628162C162016341638163E8
:100EF000C163402101642021416400218164C164F7
:100F0000016541658165C1650166802141660021F9
:100F10008166C166016741678167C1674FF0806183
:100F2000C0F880104910C0F884104910C0F888102B
:100F3000C910C0F88C100021C0F89010C0F89410AF
:100F4000C0F89810C0F89C10C0F8A0104FF00071C5
:100F5000C0F8A4100021C0F8A8104FF40031C0F868
:100F6000AC104912C0F8B0100021C0F8B410C0F89D
:100F7000B8107047014617480068006810F0004F2D
:100F800001D000207047C1F30C00124A1268506073
:100F900010480068006840F040500E4A1268106027
:100FA0000C480068006840F000400A4A126810606F
:100FB0000948406910F0040F04D00420064A50612B
:100FC0000020506003480068C068024A1060012099
:100FD000D8E70000340000200090024030B50346FE
:100FE0000C461546002100221248016901F01C013F
:100FF0004FF4784000EAC32001434FF4F86000EA60
:101000008410014341F0020141F0010109484561AA
:10101000016100BF521C0748016911F0010F02D0A5
:1010200005488242F6D30448824201D1002030BDF7
:101030000120FCE700800240FFFF040000B5AFB0D4
:10104000012000F04BF84FF4004002F087F9012036
:1010500002F07EF900BF3D2002F056F90028FAD0D8
:101060000B2002F06FF9FFF7BDFCFFF717FF00BF81
:10107000FFF704FD0128FBD06846FFF729FF012098
:101080000090002007904FF400700A9000200B9011
:101090000E90119013901490159020904FF00070C6
:1010A0002190001123900020259026900420289064
:1010B000C005299040122A9080012B9040122C905C
:1010C00040002E9001216846FFF706FD01210248ED
:1010D000FFF7F6FB2FB000BD40000100014908609A
:1010E00070470000DC0020422DE9F0410246002557
:1010F0000026002000230024002791F803C00CF0F4
:101100000F0591F803C01CF0100F03D091F802C036
:101110004CEA0505B1F800C01CF0FF0F31D014688F
:1011200000202BE04FF0010C0CFA00F3B1F800C0E6
:101130000CEA03069E4220D183004FF00F0C0CFAFC
:1011400003F7BC4305FA03FC4CEA040491F803C01E
:10115000BCF1280F06D14FF0010C0CFA00FCC2F8CC
:1011600014C00AE091F803C0BCF1480F05D14FF05C
:10117000010C0CFA00FCC2F810C0401C0828D1D3A6
:101180001460B1F800C0BCF1FF0F34DD54680020DA
:101190002EE000F1080C4FF0010808FA0CF3B1F84A
:1011A00000C00CEA03069E4221D183004FF00F0CD1
:1011B0000CFA03F7BC4305FA03FC4CEA040491F86B
:1011C00003C0BCF1280F05D100F1080C08FA0CF897
:1011D000C2F8148091F803C0BCF1480F07D100F1A8
:1011E000080C4FF0010808FA0CF8C2F81080401CF7
:1011F0000828CED35460BDE8F0810000F0B50A465F
:10120000002300240021002500F00046B6F1004F25
:1012100002D11D4EF16901E01B4E7168C0F3034518
:1012200083B200F44016B6F5401F08D121F070617A
:10123000154E766826F07066134F7E6012E000F45B
:101240008016B6F5801F06D1032606FA05F4A143E1
:1012500041F0706106E0460D360103FA06F6B1432F
:1012600041F0706122B1460D360103FA06F63143B2
:1012700000F00046B6F1004F02D1034EF16101E0EB
:10128000014E7160F0BD00000000014000BFFEE7AC
:101290002DE9F05F80464FF04009002249460320C7
:1012A00005F0BCFA064636B91BA002F021FC6FF02F
:1012B0000400BDE8F09F7568002407E0FF20285572
:1012C0002048015DA81D0155601CC4B2062CF5DB49
:1012D0004FF40270A8810020A873E8732874706826
:1012E00000F11107012038707F1C002403E000206A
:1012F0003855601CC4B22E2CF9DB706800F1110A5D
:1013000031464046D8F80C2090478346304605F0D9
:101310006AFB5846CDE700006574686263705F64DD
:101320006973636F7665725F7265706C7928293AAC
:1013300072756E206F7574206F66206D656D6F72AB
:10134000792E0A00C800002000BFFEE7704708B5EC
:101350004FF4C06000F078F83D208DF800000120C7
:101360008DF801008DF802008DF80300684600F04A
:1013700029F808BD08B54FF4A06000F065F83220E8
:101380008DF8000001208DF801008DF802008DF825
:101390000300684600F016F808BD08B54FF4C060B9
:1013A00000F052F826208DF8000003208DF801008F
:1013B0008DF8020001208DF80300684600F002F865
:1013C00008BD000070B5002100230F22C4784CB383
:1013D0001A4C246804F4E064C4F5E0644FEA142174
:1013E000C1F1040322FA01F2447804FA03F184788B
:1013F00004EA020444EA01014FEA0111104C0678A4
:10140000A155047804F01F054FF0010404FA05F417
:1014100005784FEA65154FF0E02606EB8505C5F81F
:10142000004109E0047804F01F050124AC40054D9B
:101430000678761145F8264070BD00000CED00E0FE
:1014400000E400E080E100E002490143024A11604B
:10145000704700000000FA050CED00E01D481E4832
:101460001E481F481F48204820482148214822483C
:10147000224823482348244824482548254826480C
:1014800026482748274828482848294829482A48DC
:101490002A482B482B482C482C482D482D482E48AC
:1014A0002E482F482F48304830483148314832487C
:1014B000324833483348344834483548354836484C
:1014C000364837483748384838483948394800BFDF
:1014D0007047000054870008588700085E8700089E
:1014E000608700085C87000862870008648700083E
:1014F00066870008688700086A8700086C8700080C
:101500006E870008708700087287000874870008DB
:1015100076870008788700087A8700087C870008AB
:101520007E8700088087000882870008848700087B
:1015300086870008888700088A8700088C8700084B
:101540008E8700089087000892870008948700081B
:1015500096870008988700089A8700089C870008EB
:101560009E870008A0870008A2870008A4870008BB
:10157000A6870008AA870008AC870008AE87000885
:10158000B0870008241D0020A4200020B487000894
:10159000B6870008B8870008BA870008BC8700082B
:1015A000BE870008C0870008C2870008C4870008FB
:1015B000B2870008C68700082DE9F04105460E46AF
:1015C000144600271DB904202070BDE8F08116B92B
:1015D0000C202070F9E71148007810B1122020701B
:1015E000F3E72878012808D0022807D0032802D082
:1015F000042804D100E000BF00BF00BF02E00120CA
:101600002070E2E700BFFEF7BFFD07466E61384677
:10161000FEF7BEFD0020207000BFD6E77500002059
:1016200010B500F019F801F0B7FA01F0DFFA01F097
:10163000FFFA01F081FA01F053FA01F093FB01F097
:10164000BDFB01F035FB01F05BFB00F0FDFF00F09E
:1016500009F8FFF703FF10BD00200149088070471B
:10166000580000207047000010B500241A48007888
:10167000012830D1FEF788FD04461848007820B1D3
:1016800016480078401E1549087014480078F8B9CB
:1016900013480078E0B901F0F3FB124812490978C9
:1016A00050F82100114908600F4800781049097866
:1016B00088420DD00D480068C06B401C0B4909687A
:1016C000C8630C480068401C0A490860FEF778FDB2
:1016D0002046FEF75DFD10BD820000207500002051
:1016E00076000020BC13002078000020900000202D
:1016F000770000205C0000202DE9FC5F05460F46C6
:1017000091461E460020009025B9622030700020CE
:10171000BDE8FC9F15F0030F03D06220307000205D
:10172000F6E7022F03D25B2030700020F0E7B9F11A
:10173000040F03D25C2030700020E9E7FEF724FD9F
:10174000009016480468006820B11448006840689A
:10175000124908600098FEF71BFD1CB95A20307032
:101760000020D5E7AA46A846781E01904FF0000B4E
:1017700005E0C844CAF80080C2460BF1010B01988D
:101780008345F6D30020CAF8000025606560276114
:10179000E760C4F8089030702046B9E79C0000204C
:1017A0002DE9F04104460D46002724B96020287039
:1017B0000020BDE8F081FEF7E7FC0746206960B134
:1017C0006668306860602069401E20613846FEF718
:1017D000DFFC002028703046EBE73846FEF7D8FCE7
:1017E0005D2028700020E4E770B504460D46002611
:1017F0000CB9602070BD0DB95F20FBE7FEF7C4FC9B
:101800000646D4E90310884204D33046FEF7C0FCF4
:101810005E20EFE76068286065602069401C2061F9
:101820003046FEF7B5FC0020E4E72DE9F04106461E
:101830000D464FF0000826B9042028700020BDE8AE
:10184000F0813078022803D0012028700020F6E7CC
:10185000FEF79AFC80467468E08A78B12169081D19
:1018600020610F68E08A401EE082A16820698842FA
:1018700001D1606820610020287002E01F202870DC
:1018800000274046FEF784FC3846D8E72DE9F041B2
:1018900006460F464FF000082048007810B100209F
:1018A000BDE8F081FEF770FC80461D4804680068C2
:1018B00020B11B4800684068194908604046FEF79F
:1018C00067FCFCB1FEF760FC804616480568D5B1A0
:1018D00000680068134908604046FEF759FC6E60D6
:1018E00006EB8700A860EE602E61AF820020E882E0
:1018F000022020700020208165600BA060612046DE
:1019000001F0E0F808E00648006860600448046000
:101910004046FEF73DFC00242046C1E7750000204C
:1019200060000020A00000203F0000002DE9F047EB
:101930000446894615464FF0000A24B90420287051
:101940002046BDE8F0872078022803D001202870C7
:101950002046F6E73548007818B10F202870204659
:10196000EFE7FEF711FC8246A07A10B14FF00108B4
:1019700001E04FF00008B9F1000F03D0B9F1010FF9
:1019800049D121E0B8F1000F17D129A06061666844
:1019900028480068306027480660002020702648EC
:1019A0000068606000202081234804605046FEF7F4
:1019B000EFFB00202870002705E05046FEF7E8FB0B
:1019C0004920287027462DE005E00023042219460F
:1019D000204600F0A5FFA07A0028F6D114A060618F
:1019E0006668144800683060124806600020207065
:1019F000114800686060002020810F480460504654
:101A0000FEF7C6FBB8F1010F01D101F0FFF900208C
:101A10002870002706E05046FEF7BAFB0720287022
:101A2000274600BF00BF38468BE700007500002046
:101A30003F000000A00000206000002070B50546B7
:101A400000260DB9042070BD2878022801D001209D
:101A5000F9E7FEF799FB06466C686068E06060682D
:101A600020610020E0823046FEF792FB0020EAE78A
:101A70002DE9F0470646884615464FF0000926B97D
:101A8000042028700020BDE8F0873078022803D0B9
:101A9000012028700020F6E73D48007818B10220A8
:101AA00028700020EFE73B48007818B10D2028701F
:101AB0000020E8E7FEF768FB81467468E08A98B189
:101AC0002169081D20610F68E08A401EE082A1683C
:101AD0002069884201D1606820614846FEF758FBC2
:101AE000002028703846CEE72B48006890F8340074
:101AF00040F004002849096881F834000020264994
:101B0000096881F8350024480068C0F83080304604
:101B100000F096FF4846FEF73BFB01F077F9FEF731
:101B200033FB81461C48006890F8350020B101283D
:101B30000DD002280AD105E017480068476A002046
:101B400028700DE000270E20287009E000BF314604
:101B50001148006800F032FF00270A20287000BFFB
:101B600000BF00200C49096881F834000A4909685F
:101B700081F8350008490968C861074909680862A1
:101B80000549096848624846FEF702FB38467AE78D
:101B90007500002076000020880000202DE9F0412B
:101BA00005460E46002715B90420BDE8F0812878C7
:101BB000022801D00120F8E7FEF7E6FA0746A87AE6
:101BC00060B1002304223146284600F0A9FE3846C1
:101BD000FEF7DEFA01F01AF90020E6E76C68E08A09
:101BE000A18A884204DB3846FEF7D2FA1E20DCE7E1
:101BF000E168081DE0600E60E08A401CE082D4E9E4
:101C00000210884201D16068E0603846FEF7C0FAF1
:101C10000020CAE710B500240B480078012811D134
:101C2000FEF7B2FA04460948007840B9084800783F
:101C3000FF2804D206480078401C05490870204659
:101C4000FEF7A6FA10BD00008200002075000020FB
:101C50007600002010B5002413480078012821D117
:101C6000FEF792FA044611480078C0B10F48007898
:101C7000401E0E4908700846007860B90C4800788C
:101C800028B92046FEF784FA01F0C0F80AE02046A1
:101C9000FEF77EFA06E02046FEF77AFA02E02046DA
:101CA000FEF776FA10BD00008200002076000020CA
:101CB0007500002070B5054600261048007808B170
:101CC000002070BDFEF760FA06460D480468006803
:101CD00020B10B4800684068094908603046FEF7AB
:101CE00057FA4CB10320207025810020606005A0C8
:101CF0006061204600F0E6FE2046E2E77500002025
:101D0000600000203F0000002DE9F04704468846AF
:101D100015464FF0000924B9042028702046BDE87C
:101D2000F0872078032803D0012028702046F6E7AA
:101D30002C48007818B10F2028702046EFE7FEF7F6
:101D400023FA8146A07A08B1012700E00027B8F104
:101D5000000F03D0B8F1010F3AD119E08FB922A0DA
:101D600060610020207021480068606000202081B0
:101D70001E4804604846FEF70BFA00202870002633
:101D800005E04846FEF704FA49202870264626E07A
:101D900005E0002301221946204600F0C1FDA07A8B
:101DA0000028F6D110A06061002020700F48006864
:101DB0006060002020810D4804604846FEF7E8F985
:101DC000012F01D101F022F800202870002606E042
:101DD0004846FEF7DDF907202870264600BF00BF01
:101DE00030469CE7750000203F00000060000020A6
:101DF0002DE9F04105460E46144600271DB9042082
:101E00002070BDE8F0812878032802D001202070DE
:101E1000F7E73248007810B102202070F1E730482F
:101E2000007810B10D202070EBE7FEF7ADF9074602
:101E3000288940B12889401E28813846FEF7A8F934
:101E400000202070DDE72748006890F8340040F05B
:101E500001002449096881F83400002021490968FB
:101E600081F835001F4800680663284600F0E8FD49
:101E70003846FEF78DF900F0C9FFFEF785F90746F1
:101E80001848006890F8350020B1012809D00228D0
:101E900006D102E0002020700BE00E20207008E048
:101EA00000BF29460F48006800F088FD0A20207016
:101EB00000BF00BF00200B49096881F834000949C0
:101EC000096881F8350007490968C861054909684A
:101ED00008623846FEF75CF900BF92E77500002003
:101EE000760000208800002070B5044600250CB95B
:101EF000042070BD2078032801D00120F9E7FEF707
:101F000043F90546A07A60B1002301221946204614
:101F100000F006FD2846FEF73BF900F077FF0020B1
:101F2000E7E720894FF6FF71884207D22089401CDD
:101F300020812846FEF72CF90020DAE72846FEF734
:101F400027F93320D5E7000010B50B48007890B989
:101F500000F096FF094800780949087009480749C8
:101F6000097850F8210008490860084600680749C8
:101F70000860FEF710F910BD8200002078000020F4
:101F800077000020BC130020900000208800002073
:101F900010B50024022000F02FFAFEF7F5F80446F1
:101FA00000200B4908602046FEF7F2F80A2000F0F6
:101FB00023FAFEF7E9F80446054800680549086079
:101FC0000120054908702046FEF7E2F810BD000028
:101FD000840000206C0000207400002010B504462E
:101FE0002046FEF739FC10BD2DE9FE4F06460F4690
:101FF00090461C464FF000093F2C02D92A20BDE82C
:10200000FE8FFEF7C1F881461E48007820B1484691
:10201000FEF7BEF83C20F2E71B4850F8240058BBFE
:102020000120194941F824004846FEF7B1F8002381
:1020300042463946304600F02BF982460023009391
:1020400001931A4651462046029300F02FFF0546A1
:1020500035B90E48007801280CD100F0D7FE09E010
:10206000FEF792F881460020074941F824004846CF
:10207000FEF78EF82846C2E74846FEF789F8282082
:10208000BDE7000075000020BC1300208200002086
:102090002DE9F04F85B08046894692461C46DDE921
:1020A0000EB6129F002003903F2C03D92A2005B0C2
:1020B000BDE8F08FFEF768F803902248007820B161
:1020C0000398FEF765F83C20F1E71F4850F824001C
:1020D00088BB01201C4941F824000398FEF758F8FA
:1020E0003A463046109900F0F9FF3B4652464946C1
:1020F000404600F0CDF80490DDE910125B468DE813
:10210000860032462046049900F0D0FE054635B9D7
:102110000E48007801280CD100F078FE09E0FEF7A7
:1021200033F803900020084941F824000398FEF793
:102130002FF82846BBE7FFE70398FEF729F8282089
:10214000B5E7000075000020BC13002082000020CD
:1021500010B504462046FEF784FB10BD10B5FEF70F
:1021600081FB10BD2DE9F04105460F4614464FF0A6
:1021700000083F2D05D9FF2D03D02A202070BDE88F
:10218000F08117B90C202070F9E71448007810B1DD
:1021900012202070F3E7FDF7F7FF8046FF2D03D1F3
:1021A0000F48006890F836500E4850F825602EB958
:1021B0004046FDF7EDFF43202070E0E7012E05D1FA
:1021C0004046FDF7E5FF43202070D8E737654046DD
:1021D000FDF7DEFF0020207000BFD0E77500002073
:1021E00088000020BC13002010B5FEF74AFB10BD8C
:1021F0002DE9F04706460C464FF0000A3F2E04D961
:10220000FF2E02D02A20BDE8F0870CB90920FAE79A
:10221000002020606060FDF7B7FF8246FF2E03D1EB
:102220001948006890F83660184850F8265025B9CB
:102230005046FDF7ADFF4320E5E7012D04D15046A0
:10224000FDF7A6FF4320DEE7288A10F0010F04D136
:102250005046FDF79DFF4520D5E70027D5F80C90A7
:10226000D5F808805046FDF793FF00E07F1C58F832
:10227000041B0029FAD0B8002060A9EB07008000F9
:1022800060600020BFE7000088000020BC13002031
:1022900070B5044610464FF080750560051F28464E
:1022A0002C606FF00106051F28462E604FF0123695
:1022B000051F28462E604FF00336051F28462E6066
:1022C0004FF00236051F28462E607610051F28465F
:1022D0002E60051F284629604FF01136051F28463D
:1022E0002E604FF01036051F28462E604FF009363D
:1022F000051F28462E604FF00836051F28462E6021
:102300004FF00736051F28462E604FF00636051F92
:1023100028462E604FF00536051F28462E604FF0E8
:102320000436051F28462E6070BD00002DE9F041DF
:1023300005464FF000083F2D02D14720BDE8F0814F
:102340003F2D03D3FF2D01D02A20F7E7FDF71CFF17
:102350008046FF2D05D12248006890F836500126AE
:1023600008E01F48006890F83600A84201D1012615
:1023700000E000261B4850F8254024B94046FDF7F0
:1023800007FF4820DAE7012C04D14046FDF700FFA3
:102390004320D3E794F838701348C05D94F839109F
:1023A000C943C9B208401049C8550846C05D40B984
:1023B00094F83A00C043C0B20C49097808400B4970
:1023C000087094F8340040F0080084F83400404667
:1023D000FDF7DEFE012E01D100F018FD0020ADE773
:1023E00088000020BC1300207A0000207900002023
:1023F00010B5FEF747FA10BD70B50546002619481E
:10240000007800B170BD1848007800B1FAE73DB31C
:10241000FDF7BAFE06461548006890F838401448A3
:10242000005D1249096891F83910C943C9B20840E2
:102430000F4908550846005D50B90C48006890F8EF
:102440003A00C043C0B20B490978084009490870F6
:102450000648006805633046FDF79AFE00F0D6FC9A
:1024600000BFCFE775000020760000208800002024
:102470007A000020790000202DE9F04107460C4643
:1024800015461E461B48007810B15520BDE8F08166
:102490001948007808B13220F8E727B91CB915B9F6
:1024A0000EB95420F2E73B2C01D95120EEE73B2D29
:1024B00001D95220EAE7B6F57A7F01D35320E5E748
:1024C000701D642148434FF47A71B0FBF1F14FF471
:1024D00061607843C4EB041200EB8200284400EBF7
:1024E000C00202EB001001EB80084046FFF784FFBA
:1024F0000020CBE7750000207600002070B5002595
:10250000FDF742FE0546034804682846FDF740FEF5
:10251000204670BDA400002070B5002600F076F8BB
:10252000FDF732FE064633480068401C314908601A
:102530003046FDF72DFE30480078012857D12F484E
:10254000007820B1012804D0022809D103E0012538
:102550000BE0002509E0012501202849087004E06E
:10256000012500202549087000BF00BF05B970BDD6
:102570002348046837E0FDF707FE0646206B70B37A
:10258000206B401E2063206B48BB94F8340010F091
:10259000370F09D014F8340F00F0C8002070012064
:1025A0006070A4F1340402E0002084F8350094F84F
:1025B000340010F0080F12D104F13804A07811494A
:1025C000097840EA01000F49087020780E49085C3C
:1025D000617840EA010014F838190B4A50546469D4
:1025E0003046FDF7D5FD94F836003F28C3D100BF33
:1025F000BDE70000A4000020820000209800002019
:1026000094000020790000207A00002010B5FEF729
:102610003AF907480088401C0549088008460088A8
:102620000A2803D30020088000F004F810BD000041
:102630005800002010B503480068FFF755FC044619
:10264000204610BDB4000020F8B54FF42071284892
:1026500000F07EFB4021274800F07AFB002514E0C3
:10266000681C86B205EB8500214901EBC00406EB2E
:10267000860001EBC00764202070002084F825004C
:10268000E7601DA02062681C85B20F2DE8D305EB22
:102690008500174901EBC00464202070002084F8F5
:1026A0002500E06014A0206200201449086014494D
:1026B00008801020134908800D4813490860012044
:1026C000FFF7F8FA114908600020FFF7F3FA104904
:1026D00008606A460FA10D480068FEF76DFF6A4664
:1026E00011A10B480068FEF767FF00F027F8F8BD5E
:1026F000241D0020A42000203F000000AC0000208A
:10270000AA000020A8000020B8000020B00000208F
:10271000B400002075432F4F532D494920546D724A
:102720004C6F636B0000000075432F4F532D4949D8
:1027300020546D725369676E616C000000B587B0FC
:102740000323002240210B48CDE90323CDE90101F9
:102750004FF6FD7300933D2300F1FC020021064873
:10276000FFF796FC06AA05A13D20FFF7FBFC07B08A
:1027700000BD0000A41F0020F927000875432F4F5B
:10278000532D494920546D720000000070B50C466D
:10279000032580F82550012C05D1154EC5693668F2
:1027A000354445610CE085692DB9114EC56936681F
:1027B0003544456104E00E4E85693668354445610F
:1027C000456905F007030B4D05EBC3010D682DB9F5
:1027D00008600025C56001258D8006E00A68086054
:1027E000C26010618D886D1C8D800025056170BDF3
:1027F000AC000020A420002008B500BF00BF6A463E
:1028000000211A480068FFF7F3FAFFF703FA1848A7
:102810000068401C164908600846006800F007067A
:10282000144800EBC608D8F800401AE0E7681049E1
:1028300060690968884213D1204600F01DF894F8B9
:102840002400022804D101212046FFF79FFF02E067
:10285000022084F82500656815B12046A168A847C4
:102860003C46002CE2D1FFF7F5F9C8E7B4000020A0
:10287000AC000020A420002030B5456905F0070415
:102880000D4D05EBC4031D68854205D1C168196073
:1028900039B100250D6104E00169C268CA6002B166
:1028A0001161012580F825500025C56005619D88CE
:1028B0006D1E9D8030BD0000A420002015490968D0
:1028C0006422B1FBF2F0B0F1807F01D301211CE062
:1028D00020F07F41491E4FF0E022516100BF5117A7
:1028E000002905DA0F2109010B4A0B23D15404E01A
:1028F0000F210901094A5317D15400BF00214FF09D
:10290000E022916107211161002109B100BFFEE7BA
:10291000704700004400002018ED00E000E400E0F3
:102920002DE9F04F05460F4690469946A87A1F4973
:102930000E5C05F10B00805D11F800B00BEBC600DA
:1029400000F0FF0A1A4850F82A40002004F124043D
:10295000E0602760207C6FEA0801C9B200EA01004C
:10296000207484F81190207CA4F1240410F0080F46
:102970000DD194F83A000F49097808430D490870C1
:102980000D48805D94F8391008430B498855294655
:10299000204600F013F8206A20B12046216A00F09A
:1029A00026F8E5615046BDE8F08F0000C8870008B2
:1029B000BC130020790000207A00002010B590F8A8
:1029C000382001F10B039B5C90F83940E443E4B2FA
:1029D000234001F10B04A35423469B5C33B98B7A4B
:1029E00090F83A40E443E4B223408B7210BDF0B556
:1029F000024612F8384F95785678A2F138020B4605
:102A0000186819E000F10B073F5D6FEA060C0CF047
:102A1000FF0C07EA0C0700F10B0C0CF8047067467A
:102A20003F5D3FB9877A6FEA050C0CF0FF0C07EAAF
:102A30000C0787721B1D18680028E3D1F0BD000049
:102A400010B51D4A1268D0611B4A126892F83830DE
:102A500000F10B02D25C184B1B6893F839301A4313
:102A6000154B1B6893F8384000F10B031A55827A16
:102A7000114B1B6893F83A301A4382720E4A12685F
:102A800092F838100D4A525C0B4B1B6893F83930A2
:102A9000DB43DBB21A40094B5A541A46525C52B916
:102AA000054A126892F83A20D243D2B2044B1B78FE
:102AB0001A40034B1A7010BD880000207A000020D5
:102AC00079000020014600228A72002005E00023E0
:102AD00001F10B021354421CD0B20828F7D37047FF
:102AE0002DE9F0415021114800F032F900250DE0A8
:102AF000681C86B20D4800EB051400EB0617002099
:102B0000207067600AA0E060681C85B2042DEFD3D6
:102B1000064800EB051400202070606004A0E0600F
:102B2000024804490860BDE8F0810000EC11002073
:102B30003F0000006400002070B54FF4F0711348AE
:102B400000F006F9002411E0601C85B204EB44009B
:102B50000E4901EBC00305EB450001EBC006002068
:102B600018705E600AA05861601C84B2132CEBD30D
:102B700004EB4400054901EBC003002018705860C5
:102B800003A0586108460349086070BD0C1000207E
:102B90003F0000006000002000200A4908600A4948
:102BA00008700A4908700A4908700A4908700A49F9
:102BB00008600A4908600A4908600A4908600A4929
:102BC00008707047A40000207500002076000020E7
:102BD00083000020820000205C0000208400002090
:102BE000700000206C0000207400002000210A4AC0
:102BF0001170002004E00021084A1154411CC8B2A1
:102C00000828F8D30021064A1170064A1170064AB6
:102C10001160064A11607047790000207A00002098
:102C2000770000207800002090000020880000201D
:102C300070B54FF4F261194800F08AF84FF48071D2
:102C4000174800F085F8002413E0601CC5B204EBBF
:102C5000440000EBC400114901EBC00305EB450043
:102C600000EBC50001EBC0065E610EA01865601C9C
:102C7000C4B2152CE9D304EB440000EBC4000749AF
:102C800001EBC0030020586106A01865002006492A
:102C9000086002480549086070BD0000BC140020AF
:102CA000BC1300203F000000940000208C00002096
:102CB00000B587B00323002220210B48CDE9032370
:102CC000CDE901014FF6FF7300933F2300F17C0231
:102CD00000210648FFF7DCF906AA05A13F20FFF70F
:102CE00041FA07B000BD00003C130020F12F00089E
:102CF00075432F4F532D49492049646C65000000EE
:102D000000B587B00323002240210B48CDE90323FF
:102D1000CDE901014FF6FE7300933E2300F1FC0262
:102D200000210648FFF7B4F906AA05A13E20FFF7E7
:102D300019FA07B000BD00003C120020193000084D
:102D400075432F4F532D494920537461740000007F
:102D500004E0002200F8012B4A1E91B20029F8D1AC
:102D60007047000070B578211148FFF7F1FF00248B
:102D70000EE004EB44000E4901EBC005601C00EBC3
:102D8000400001EBC00068600AA06861601C84B26A
:102D9000042CEED304EB4400054901EBC0050020F0
:102DA000686004A0686108460349086070BD0000BF
:102DB0004C1C00203F0000009C0000202DE9F04149
:102DC00060211048FFF7C4FF00240DE0601C86B2AC
:102DD00004EB44000B4901EBC00506EB460001EB98
:102DE000C0072F60601C84B2032CEFD304EB4400B7
:102DF000044901EBC005002028600846024908602C
:102E0000BDE8F081C41C0020A000002010B5002403
:102E1000FDF7BAF9044613480078F8B9124800786B
:102E2000E0B900F02DF811481149097850F8210057
:102E3000104908600E4800780F49097888420DD083
:102E40000C480068C06B401C0A490968C8630B48FD
:102E50000068401C09490860FDF7ADF92046FDF700
:102E600097F910BD7500002076000020BC130020EB
:102E70007800002090000020770000205C000020F7
:102E80000649074A1278885C0649095C034A515C86
:102E900001EBC001044A117070470000C8870008A8
:102EA000790000207A000020780000202DE9F84FFA
:102EB00005460F4690469946DDE90AAB0020009092
:102EC000FDF762F9009043480468002C7CD004F1BF
:102ED0001C0454F8080C3F4908600098FDF758F9A5
:102EE00044F81C7CA576002020766076606144F86A
:102EF00018BC44F810AC44F8148C0C9824F80C0C52
:102F000024F80A9C0020E077E810207705F00700FD
:102F1000E076217F01208840A077E17E0120884073
:102F20006077002020606060E060A0602062A062A6
:102F30006062E062206328A06063A4F11C044FF08B
:102F4000000606E0002104F1540040F82610701C31
:102F5000C6B2002EF6D02046FFF740F82046FFF715
:102F6000F7F8FDF711F900901C4840F825401C487F
:102F7000006860610020A0611948006810B118481D
:102F8000006884611648046004F13804A07815498B
:102F9000097840EA01001349087020781249085C5A
:102FA000617840EA010014F838190F4A50540F486C
:102FB000007800F101000D4908700098FDF7E8F86D
:102FC0000020BDE8F88FFFE70098FDF7E1F8422008
:102FD000F7E700008C0000203F000000BC13002039
:102FE00094000020790000207A0000208300002057
:102FF000002400BF00BFFDF7C7F80446054800687D
:10300000401C044908602046FDF7C2F8FFF7A6F807
:10301000F1E7000084000020002400BF02E014203B
:10302000FFF7EAF9194800780028F8D01848006836
:103030006421B0FBF1F0164908600846006828B921
:10304000002014490870FF20FFF770F900BFFDF75A
:103050009BF80446104800681049086000200E499B
:1030600008602046FDF794F80C4800680849096894
:10307000B0FBF1F0C0F1640006490870FFF7B4F846
:1030800000F00EF80A20FFF7B7F9E0E7740000201F
:103090006C000020680000208400002070000020E8
:1030A0007CB5002514E069462846FFF7A1F80646DE
:1030B00066B9094850F8254044B1012C06D0D4E93E
:1030C000020100EB8100A0640198E064681CC5B2B5
:1030D0003F2DE8D97CBD0000BC13002012F0010F89
:1030E00008D012F0020F05D002E0491E002308C0EC
:1030F0000029FAD17047000029B1064A52690243FB
:10310000044B5A6104E0034A52698243014B5A61FD
:10311000704700000010024029B1064A926A02433B
:10312000044B9A6204E0034A926A8243014B9A621A
:10313000704700000010024029B1064AD2690243DC
:10314000044BDA6104E0034AD2698243014BDA613D
:10315000704700000010024029B1064A92690243FC
:10316000044B9A6104E0034A92698243014B9A61DD
:1031700070470000001002402DE9F04100210022BC
:10318000002500230026002400278C46DFF86081FC
:10319000D8F8048008F00C0121B1042907D00829CF
:1031A00059D109E0DFF84C81C0F8008058E0DFF821
:1031B0004881C0F8008053E0DFF83481D8F80480FB
:1031C00008F47012DFF82881D8F8048008F48035FC
:1031D000920C0D2A01D0921C00E0062235B9DFF8CE
:1031E0001C8102FB08F8C0F8008033E0DFF80081A2
:1031F000D8F82C8008F48036DFF8F480D8F82C80DA
:1032000008F00F0808F1010446B9DFF8EC80B8FBBC
:10321000F4F808FB02F8C0F800801BE0DFF8D0806B
:10322000D8F82C80C8F3031808F10107DFF8C08034
:10323000D8F82C80C8F3032808F1020CDFF8B88016
:10324000B8FBF7F808FB0CF8B8FBF4F808FB02F839
:10325000C0F8008004E0DFF89C80C0F8008000BF68
:1032600000BFDFF88C80D8F8048008F0F00109096D
:10327000DFF88C8018F80130D0F8008028FA03F8C5
:10328000C0F80480DFF86880D8F8048008F4E061B2
:10329000090ADFF86C8018F80130D0F8048028FAA9
:1032A00003F8C0F80880DFF84880D8F8048008F4F4
:1032B0006051C90ADFF8488018F80130D0F804805E
:1032C00028FA03F8C0F80C80DFF82480D8F80480CE
:1032D00008F44041890BDFF82C8018F80130D0F851
:1032E0000C80B8FBF3F8C0F81080BDE8F081000056
:1032F0000010024000127A0040787D0100093D0074
:103300001E0000202E00002010B5014600220023E0
:1033100000204A11012A02D1094C236806E0022A42
:1033200002D1074C236A01E0054C636A01F01F02D9
:10333000012494401C4201D0012000E0002010BD77
:10334000001002400149C87170470000001002409F
:103350000149086770470000000042420146002012
:10336000034AD06A20F470400843D06270470000DE
:1033700000100240704710B500F002F810BD0000C8
:10338000002100203A4A126842F48032384B1A6019
:1033900000BF374A126802F40030491C10B9B1F579
:1033A000A06FF6D1324A126812F4003F01D001201A
:1033B00000E0002001285AD12E4A126842F0100283
:1033C0002C4B1A601A46126822F003021A601A4641
:1033D000126842F002021A60254A5268244B5A6071
:1033E0001A4652685A601A46526842F480625A601D
:1033F0001A46D26A204B1A401D4BDA621A46D26A2C
:103400001E4B1A431A4BDA621A46126842F0806267
:103410001A6000BF164A126812F0006FFAD0144A00
:10342000526822F47C12124B5A601A46526842F4D7
:10343000E8125A601A46126842F080721A6000BFA1
:103440000B4A126812F0007FFAD0094A526822F043
:103450000302074B5A601A46526842F002025A6051
:1034600000BF034A526802F00C02082AF9D17047E3
:10347000001002400020024000F0FEFF4406010060
:1034800010B5FCF781FE044606480078401C05494B
:1034900008702046FCF77CFEFFF73EF8FEF7E4F8E4
:1034A00010BD00007500002010B51648006840F0FF
:1034B0000100144908600846406813490840114952
:1034C000486008460068114908400E4908600846EF
:1034D000006820F4802008600846406820F4FE0060
:1034E00048600846006820F0A05008604FF47F0054
:1034F00088600020C862FFF73EFF4FF0006004497B
:10350000086010BD001002400000FFF0FFFFF6FE53
:1035100008ED00E010B540200D490870FF2048700C
:1035200000208870C870087148718871002240219D
:10353000032003F073F9074908600846006810B9D2
:1035400005A000F0D5FA024804F0FCF910BD000017
:10355000C8000020C40000205442435F444C4C5F2C
:10356000696E697428293A72756E206F7574206FC0
:1035700066206D656D6F72792E0A0000064AC2F8EA
:10358000040AC2F8001A0023A2F80E3AA2F8103A70
:10359000A2F8123A70470000C4E700202DE9F0417C
:1035A00004460D4616461F461CB96FF00300BDE8E1
:1035B000F0813B4632462946204604F035F8F6E7CE
:1035C0002DE9F04104460D4616461F461CB96FF022
:1035D0000300BDE8F0813B4632462946204604F010
:1035E000BDF8F6E72DE9F04104460D4616461F46A4
:1035F000204602F01BFA80463B4632462946FFF73A
:10360000DFFFBDE8F08131B59DF803309DF8022061
:103610009DF801109DF80000FFF7E4FF38BD70B57C
:1036200005462C4605E0217A2022105D01F0B8F80D
:103630002468002CF7D12C4603E0204602F00AFE55
:103640002468002CF9D170BD10B501210D4800F09F
:1036500051F8B0B101210B4800F03AF80A48B0F82F
:10366000101AB0F8120A0844401C0749B1F80E1AA3
:10367000491C91FBF0F200FB121081B20248A0F845
:103680000E1A10BD000C0040C4E700200EB5012149
:103690000820FFF751FD4FF6FF70ADF804004720FA
:1036A000ADF800000020ADF806001020ADF80200D3
:1036B0006946064800F03CF801221146034800F034
:1036C0002AF80121014800F006F80EBD000C004068
:1036D000CA430282704721B1028842F0010202808F
:1036E00004E002884FF6FE731A40028070470146DC
:1036F000888C704730B50246002000230024158ACC
:1037000005EA0103958905EA010413B10CB1012012
:1037100000E0002030BD10B51AB183890B438381CE
:1037200004E08389CC43A4B22340838110BD000010
:10373000002202881D4B98420ED01D4B98420BD0A0
:10374000B0F1804F08D01B4B984205D01A4B9842DD
:1037500002D01A4B984204D14FF68F731A404B880F
:103760001A43174B984207D0164B984204D04FF695
:10377000FF431A40CB881A4302808B8883850B88CD
:1037800003850A4B98420BD0094B984208D00E4B48
:10379000984205D00D4B984202D00D4B984201D172
:1037A0000B7A03860123838270470000002C0140BE
:1037B000003401400004004000080040000C0040BC
:1037C000001000400014004000400140004401404F
:1037D000004801407047000008B540F225511D48DF
:1037E00000F0BFF8002834D01A4800F075F91A49E3
:1037F00008800846008800F00F0208460088C0F3E1
:10380000031116A000F074F901201849086012484D
:103810000088C0F30310164908600F48008800F0C4
:103820000F001449086012480068134908701148D5
:103830000068487001208870C870084600680090D1
:1038400001F050FD00BF8021024800F07DF8002803
:10385000F9D008BD00440040100100207462696D79
:1038600025642C7464636E25640D0A001800002022
:103870001C0000201D0000201201002001F4007235
:10388000B2F5007F00D100BFCA430280704721B16A
:10389000828942F40052828104E082894DF6FF73EE
:1038A0001A4082817047000000B585B001212120B7
:1038B000FFF752FC01214804FFF73EFC01210820DC
:1038C000FDF79CFC2020ADF8100018208DF81300A7
:1038D00003208DF8120004A91948FDF705FC4020CB
:1038E000ADF8100004208DF8130003208DF81200AD
:1038F00004A91348FDF7F8FB4FF4E13000900020D5
:10390000ADF80400ADF80600ADF80800ADF80C0005
:103910000C20ADF80A0069460A4800F071F8402111
:103920000848FFF7ABFF012240F22551054800F09F
:1039300042F801210348FFF7AAFF05B000BD0000CF
:10394000001401400044004002460020B1F5007F11
:1039500000D100BF13880B4201D0012000E00020FD
:10396000704770B502460024002300250020A1F511
:1039700010666A3E00D100BFC1F3421501F01F037B
:10398000012606FA03F3012D02D19689334006E0A1
:10399000022D02D1168A334001E0968A33400C1280
:1039A000012606FA04F41688344013B10CB1012044
:1039B00000E0002070BDF0B503460024002600257D
:1039C0000020A1F510676A3F00D100BF1846C1F37F
:1039D000421401F01F06012707FA06F5012C01D158
:1039E0000C3004E0022C01D1103000E014301AB188
:1039F00007682F43076002E00768AF430760F0BD28
:103A00002DE9F04786B005460E460024A24600BFC9
:103A1000A1460027B08900B100BF2F462C8A4CF682
:103A2000FF700440F08804432C82AC894EF6F310FA
:103A30000440B08831890843718908430443AC814C
:103A4000AC8A4FF6FF400440B0890443AC8201A821
:103A5000FFF792FB1F48874202D1DDF810A001E07A
:103A6000DDF80CA0A88910F4004F08D00AEBCA00BA
:103A700000EB0A1031684900B0FBF1F807E00AEBEF
:103A8000CA0000EB0A1031688900B0FBF1F864202D
:103A9000B8FBF0F004012009642101FB1089A8891A
:103AA00010F4004F08D0322000EBC900B0FBF1F059
:103AB00000F00700044308E0322000EB0910642105
:103AC000B0FBF1F000F00F0004432C8106B0BDE81C
:103AD000F08700000038014001468888C0F30800E4
:103AE0007047C1F308028280704700BFFEE7000004
:103AF0000FB4054B10B503A9044A029800F0C2F8B0
:103B000010BC5DF814FB0000655A00082801002075
:103B100002E008C8121F08C1002AFAD17047704796
:103B2000002001E001C1121F002AFBD170470000F4
:103B30002DE9FF5FDDE90210020DDDF838B0014329
:103B40000FD10F9801244AA3012807D000980F9A9B
:103B5000C0E90031C0E90242BDE8FF9F6FEA0B01F6
:103B6000F4E7A2F2FF3244F61050424315140F98C6
:103B700001280FD0A5EB0B00401C4FF000043D4E78
:103B8000DFF8F490B0F1000AA046C0F1000717DB9F
:103B9000074615E0CBF10000EFE7F80707D0224613
:103BA000334640464946FCF7CAFC804689462246D1
:103BB000334620463146FCF7C2FC04460E467F10D1
:103BC000002FEAD1DDE90201BAF1000F42464B466F
:103BD00002DAFCF7B4FC01E0FCF722FD04460E46D5
:103BE0000022264BFCF7A4FD03D84FF0FF3001461E
:103BF00007E00022224B20463146FCF7FBFBFCF796
:103C00007EFD102409E0002C0ADB0A220023FCF7C9
:103C10005DFB019B30321A55641E50EA0102F2D15D
:103C2000641C019AC4F1110314440F9A012A07D0AD
:103C30000122084301D15B450DDD00226D1C0DE022
:103C4000084303D1A3EB0B056D1E09E000204FF0E4
:103C5000110B0F908BE701DA00226D1E002A86D02F
:103C600000980F99C0E90231C0E9004574E70000EF
:103C700030000000000024400000F03F0000F0434E
:103C80000000E03F2DE9FF4F95B006469A460F46EB
:103C90000025F2E1252879D10024761CFB4AA046B4
:103CA000012106943378203B01FA03F0104202D040
:103CB0000443761CF6E730782A2811D06FF02F02E3
:103CC0003078A0F13001092915D8069944F0020492
:103CD00001EB810102EB41010844761C0690EFE7FD
:103CE00001CF0690002803DA404244F400540690C5
:103CF00044F00204761C30782E2817D116F8010FF4
:103D000044F004042A280ED06FF02F023078A0F17E
:103D1000300109290AD808EB880102EB410100EBC8
:103D20000108761CF2E757F8048B761C30786C2873
:103D30000FD006DC4C2817D068280DD06A2814D183
:103D400004E0742810D07A280FD10DE044F4001458
:103D50000AE044F4801401E044F440147178814294
:103D600002D1761C04F58014761C307886466628CD
:103D70000BD013DC582872D009DC002870D04528FD
:103D8000F6D04628F4D047281AD195E118E06328E8
:103D900031D0642874D0652812D18DE170286ED09E
:103DA00008DC6728F1D069286AD06E280DD06F280A
:103DB00006D1A8E0732827D0752874D0782873D04E
:103DC0005246179990476D1C55E1C4F302500228E2
:103DD00006D003280AD0042801CF0AD005604AE1A2
:103DE00001CF4FEAE571C0E9005144E101CF058000
:103DF00041E105703FE101CF8DF8000000208DF812
:103E00000100EB46012003E057F804BB4FF0FF3000
:103E100061074FF0000102D40DE009F1010189466C
:103E200041450FDA8145F8DB1BF809100029F4D170
:103E300008E009F1010189468142FADB1BF809100B
:103E40000029F6D106985346A0EB0900804621468A
:103E5000179A00F094FA284400EB090506E047E0C1
:103E60000FE11BF8010B524617999047B9F1010970
:103E7000F7D2534621464046179AF9E000E039E070
:103E80000A21C4F302524FF0000B0091022A04D021
:103E900001CFC117032A08D009E0FF1D27F007074B
:103EA000F7E8020107E01CE01DE000B2C117042A98
:103EB00001D140B2C117002906DA0A46002140426A
:103EC00061EB02012D2202E0220504D52B228DF8A0
:103ED0000420012203E0E20701D02022F7E7914607
:103EE00053E00A2110E010204FF0000B00900EE08C
:103EF000102109E010204FF0000B44F004044FF0B3
:103F00000808009003E008214FF0000B0091C4F373
:103F10000252022A04D001CF0021032A06D007E072
:103F2000FF1D27F00707F7E8020105E080B2002136
:103F3000042A01D1C0B200214FF00009220724D584
:103F4000BEF1700F2AD0009B83F0100353EA0B03DD
:103F500009D150EA010206D030228DF804208DF8F4
:103F600005E002229146009B83F0080353EA0B030D
:103F70000BD150EA010201D1620706D530228DF83B
:103F800004204FF00109A8F1010841A2BEF1580F29
:103F900000D044A203920FAA02920FE040228DF8B3
:103FA00004200122DEE75B46009AFCF78FF9039BB1
:103FB0009B5C029AA2F101020292137050EA010284
:103FC000F1D1029807A9A1EB000000F1200B6007D6
:103FD00002D524F4803401E04FF00108002041466E
:103FE0005A46D84501DDA1EB020000EB0B01009021
:103FF00006984944A0EB01000690E00306D453461E
:104000002146179A069800F0BAF90544002008E006
:1040100001A8524610F80800179990476D1C08F146
:10402000010080464845F3DBE0030CD553462146AA
:10403000179A069800F0A3F9054404E03020524690
:10404000179990476D1C0099481E00900029F5DCD7
:1040500008E00298029952460078491C029117998B
:1040600090476D1CBBF10001ABF1010BF1DC67E186
:1040700000F072F9054406F10106307800287FF45B
:1040800009AE19B02846BDE8F08F000009280100EC
:10409000303132333435363738394142434445467E
:1040A0000000000030313233343536373839616240
:1040B0006364656600000000600701D44FF00608E5
:1040C00007F1070727F00707A0A1F7E8020C0CF09B
:1040D00000431A0007D19EA1220504D49DA1E20746
:1040E00001D1AFF2440112912CF0004C7146BEF1A7
:1040F000650F0ED007DC45290BD0462920D0BEF134
:10410000470F3DD13DE066291AD0BEF1670F37D188
:1041100037E0002311224146B8F1110F00DA4A1CA2
:10412000CDE900230246634607A902A8FFF700FD78
:10413000012000904FF0000B08F10109039868E09E
:104140004FF000410F910123CDE900830246634601
:1041500007A902A8FFF7ECFCDDE904904FF0000B83
:1041600020B9039908F1010001EB0009B8EB09003F
:1041700003D4C0F1FF3B08F10109A9EB080000904E
:1041800048E04146B8F1010F01DA012188460023D9
:104190001122B8F1110F00DC0A46CDE900230246D6
:1041A000634607A902A8FFF7C3FC4FF0000BC14606
:1041B00020070FD40499414503DA894601E0A9F1AB
:1041C0000109B9F1010F05DD0299A9F10100085CAF
:1041D0003028F4D00399414502DA11F1040F03DAD3
:1041E00001200F91009015E0002903DC8B44A9EB1E
:1041F000010005E0481C484503DD039800F101007B
:1042000081460399A1EB0B0000F1010000904FF0F3
:1042100000400F90200705D40098484502DB4FF07E
:10422000FF30009000210F980DF147088DF84710DE
:10423000B0F1004F26D0022001902B2013900F9850
:1042400000280CDA40420F902D20139007E00A213D
:104250000F98FCF725F830310F9008F8011D0199EF
:10426000481E01900029F2DC0F980028EFD1A8F138
:10427000010213991170317801F0200141F04501DC
:1042800008F8021D10A9A1EB080000F10700019039
:104290001298007800B1012000EB0901009801EBB1
:1042A000E071019801440698A0EB0100A0F1010023
:1042B0000690E00306D453462146179A069800F06C
:1042C0005EF805441298007820B15246179990473D
:1042D00005F10105E00322D553462146179A0698B9
:1042E00000F04DF805441AE0BBF1000F07DB04991C
:1042F000594504DD029911F80B00179901E017994F
:1043000030205246904700986D1C401E0BF1010B67
:10431000009004D12E205246179990476D1CB9F198
:104320000001A9F10109DFDC05E018F8010B524694
:10433000179990476D1C0199481E01900029F4DCE3
:1043400053462146179A069892E600002D00000079
:104350002B000000200000002DE9F041044600255C
:1043600017461E46880405D406E039462020B0478B
:1043700005F10105641EF8D52846BDE8F0812DE958
:10438000F04104460025302790461E46C80300D45D
:104390002027880405D506E041463846B04705F198
:1043A0000105641EF8D52846BDE8F08170B50546C4
:1043B0000E46242001F0CAFE044614B96FF0040032
:1043C00070BD257203F068FD606004F1170130468E
:1043D00000F0DCF90A48006850B909480460002080
:1043E0002060002207494FF4FA6003F059FD04E011
:1043F000034800682060024804600020E0E70000F5
:104400001C010020014500082DE9F04105460E463B
:10441000688910F0010F01D0032000E0022087B26C
:10442000062001F0FFFF044634B909A0FFF760FB46
:104430006FF00400BDE8F0812781208960810020B1
:10444000206004F11000606034600020F2E700009A
:104450006164645F7061645F7062756628293A61A7
:104460006C6C6F63206275665F7061642066616961
:104470006C65640D0A0000002DE9F04105460E460A
:10448000688910F0010F01D0032000E0022087B2FC
:10449000062001F0C7FF044634B909A0FFF728FB46
:1044A0006FF00400BDE8F081278120896081002041
:1044B000206004F11000606034600020F2E700002A
:1044C0006164645F7061645F7062756628293A6137
:1044D0006C6C6F63206275665F70616420666169F1
:1044E0006C65640D0A000000024601207047024618
:1044F0000120704710B5044603F018FA10BD000003
:1045000010B5044600F01EF90548006830B10022DD
:10451000AFF213014FF4FA6003F0C2FC10BD0000CB
:104520001C010020F0B502460D4600242D4E3668D1
:1045300006B9F0BD2B4E36683668F6B9294E366896
:10454000367A964240D1274E3468274E36683EB9B7
:10455000244E3668244F3E600026224F3E6033E0F2
:10456000214E36681F4F3F683E601E4E36681E4F14
:104570003E6000261B4F3E6026E01A4E33683068CE
:104580001FE0067A96421AD10446164E3668B042AB
:1045900005D1144E36683668124F3E6001E0066859
:1045A0001E60114E366826B90F4E30600026066038
:1045B00004E00D4E366806600B4E306003E00346A3
:1045C00000680028DDD100BF4CB1002105E06F5C20
:1045D00004F1090677544E1CF1B20E29F7DB00BF37
:1045E000A7E700001C0100202001002070B5114841
:1045F0000478114800EBE400007804F00702012180
:10460000914008430C4901EBE40108700948007827
:10461000401CC5B208E0284603F03CFD10B905482F
:10462000057003E0681CC5B2202DF4DD00BF2046F4
:1046300070BD0000160100201701002010B5C82031
:1046400003F07CFB144908600846006810B913A009
:10465000FFF74EFAC82003F071FB1E4908600846B8
:10466000006810B91CA0FFF743FAC82003F066FBEE
:10467000254908600846006810B924A0FFF738FAF9
:10468000FFF704F81348016803480068FEF776FF57
:1046900001F004FC10BD00000C0000206170705F90
:1046A000696E697428293A6572726F722C7374721C
:1046B00065616D696E675F646174615F7265637681
:1046C0005F6D626F78206973204E554C4C2E0D0A39
:1046D00000000000100000206170705F696E697456
:1046E00028293A6572726F722C636D645F7265700F
:1046F0006C795F726563765F6D626F782069732095
:104700004E554C4C2E0D0A00140000206170705F55
:10471000696E697428293A6572726F722C757063BC
:104720006F6D70757465725F636D645F72656376DB
:104730005F6D626F78206973204E554C4C2E0D0AC8
:10474000000000002DE9F0410F48046818E003F074
:10475000A3FB05466068A84202D860682F1A03E0F0
:104760006068C0F1FF30471940F6B830874206D97B
:10477000267A304600F076F9304600F05BF924687E
:10478000002CE4D1BDE8F0811C010020024600208D
:1047900003E0135C0B54431CD8B20A28F9DB7047C2
:1047A0002DE9F04105460E46314644A0FFF7A0F939
:1047B00000274A4890F8081A90F8080A401CC2B22C
:1047C000464880F8082A01EB810000EBC10044490B
:1047D00001EB00146670A570012001F075FF6060A8
:1047E0003E4AD2F8001A606803F0A6F8606810B973
:1047F000F81EBDE8F0810022FF21606801F02CFF67
:1048000000223146606801F043FF032001F05CFFA5
:10481000E060E06828B933A0FFF76AF96FF00200A2
:10482000E7E70022FF21E06801F016FF0022314691
:10483000E06801F02DFF022001F046FFA060274A4A
:10484000D2F8041AA06803F077F8A06828B92EA05F
:10485000FFF74EF96FF00200CBE70022FF21A068BE
:1048600001F0FAFE00223146A06801F011FF00209D
:104870002070204601F06CF928B12CA0FFF738F920
:104880006FF00200B5E734A0FFF732F9204601F0DF
:10489000FBF810B16FF00200ABE739A0FFF728F981
:1048A000204601F09FF910B16FF00200A1E73FA090
:1048B000FFF71EF90120207000209AE763726561FE
:1048C00074655F5442494D28293A63726561746585
:1048D000207462696D2025642E0D0A00C4E7002053
:1048E000C4D700206372656174655F5442494D28E6
:1048F000293A74647020636F6E6E206973204E5580
:104900004C4C2E0D0A0000006372656174655F54A3
:1049100042494D28293A73647020636F6E6E206996
:1049200073204E554C4C2E0D0A00000063726561D9
:1049300074655F5442494D28293A544243206765C3
:1049400074205442494D20737472756374206661FB
:10495000696C65642E0D0A006372656174655F544D
:1049600042494D28293A54424320676574205442F5
:10497000494D20737472756374204F4B2E0D0A00DD
:104980006372656174655F5442494D28293A544207
:104990004320676574205442494D206D6574612041
:1049A00054454453204F4B2E0D0A0000637265613D
:1049B00074655F5442494D28293A54424320676543
:1049C00074205442494D207464636E20544544530E
:1049D000204F4B2E0D0A000008B5014600208DF82F
:1049E00000008DF801008DF802008DF8030001F041
:1049F000A5FA18B100200870009808BD0C4842784C
:104A0000C01C00EB82000068009009484078401C00
:104A10000A2290FBF2F302FB1300054A50700120BA
:104A2000087010460078401E10700098E5E70000FE
:104A3000E00F002009490978814201DB074908702D
:104A4000074901EBE001097800F0070301229A40D1
:104A50009143034A02EBE0021170704716010020F7
:104A60001701002070B505461448006800B970BDF4
:104A700012480068006860B910480068007AA842CF
:104A800019D10E48006801F0E5FB00200B490860D1
:104A900011E00A480668006804680AE0207AA84223
:104AA00005D120683060204601F0D4FBDFE72646C0
:104AB0002468002CF2D100BFD9E700001C010020BF
:104AC00010B50446206890F9080010F1080F03DAC9
:104AD0002068007A207127E0FD202071206840685E
:104AE00010B320680078012804D002280AD00328D7
:104AF00018D10FE0627A217A2368586800F0C8F86C
:104B0000207110E0627A217A2368586802F086F9F1
:104B1000207108E0627A217A2368586803F0CCFAA1
:104B2000207100E000BF00BF2168C86803F06CF985
:104B300010BD10B504462068406810B9F7202071F8
:104B400024E020680078012804D002280AD0032835
:104B500018D10FE0627A217A2368586800F0B4F81F
:104B6000207112E0627A217A2368586802F072F9A3
:104B700020710AE0627A217A2368586803F0C0FA4B
:104B8000207102E0FD20207100BF00BF2168C868CD
:104B900003F03AF910BD10B5044601F0ABF82073EC
:104BA00001F0B4F82061A06803F02EF910BD10B533
:104BB0000446002020712068406810B9204601F0AA
:104BC000BDFF2168C86803F01FF910BD70B5044629
:104BD000206890F9080010F1080F03DA2068007AC5
:104BE000207140E0F62020712068406800283AD00B
:104BF00020680078012804D0022811D0032830D181
:104C000020E0A068807921684968C871A5686B793F
:104C10002A7929682568686800F073FA207121E014
:104C200013A0FEF765FFA068807921684968C87104
:104C3000A5686B792A7929682568686802F0BFFA47
:104C400020710FE0A068807921684968C871A16867
:104C50004B790A7921684868002103F092FB2071A2
:104C600000E000BF00BF2168C86803F0CDF870BD48
:104C7000646F5F73656E6428293A73736E70207475
:104C800068726561642073656E642E0D0A00000011
:104C900030B503460C4600250A48016804E09942F5
:104CA00001D1012502E009680029F8D100BF5C713B
:104CB000DA7125B9034800681860024803600020D3
:104CC00030BD0000BC00002010B503460C469C71AE
:104CD0001A72187940F0010018710848016804E060
:104CE000994201D1002010BD09680029F8D103487C
:104CF00000681860014803600020F4E7BC00002051
:104D00002DE9F04F87B080468448006850B984A0F0
:104D1000FEF7EEFE404601F066FE6FF0030007B0BE
:104D2000BDE8F08FD8F8044020788710062F0FD008
:104D300077B1042F0CD0052F0AD088A0FEF7D8FE3B
:104D4000404601F050FE02F016FE6FF00200E6E76A
:104D500060780121B1EB201F0AD090A0FEF7C8FEB9
:104D6000404601F040FE02F006FE6FF00200D6E77A
:104D70006088000A6188C9B240EA012606EBD67154
:104D80004910B6EB410101D1B14602E0701C1FFA97
:104D900080F9B8F8080048450EDA8FA0FEF7A8FEA3
:104DA000B8F80820494697A0FEF7A2FE404601F059
:104DB0001AFE6FF00200B2E704EB0900801E0290B9
:104DC00002980088A0F57F41FF390DD04946204662
:104DD00001F060F840B197A0FEF78AFE404601F06E
:104DE00002FE6FF002009AE74946404601F066FE77
:104DF000A11D201DFFF778FB40B996A0FEF778FEB5
:104E0000404601F0F0FD6FF0020088E700200490BA
:104E100001200390A088000AA188C9B240EA0120BD
:104E20004FEA202AA088000AA18840EA0120C0B2E7
:104E30000690E088000AE188C9B240EA01204FEA02
:104E4000202BE088000AE18840EA0120C0B20590EA
:104E50006FF00901404601F0FCFD40B185A0FEF76E
:104E600047FE404601F0BFFD6FF0020057E758468D
:104E700001F096F8F8B1294805680EE0E86858B1E5
:104E800000200390DDE90523CDE900325346424678
:104E90002946D5E903C0E0472D68002DEED10398DF
:104EA00038B17DA0FEF724FE404601F09CFDE81ECF
:104EB00035E7002033E71948056809E06879584567
:104EC00005D1A879504502D10120049002E02D6857
:104ED000002DF3D100BF049840B976A0FEF708FE7C
:104EE000404601F080FD6FF0020018E7E86858B115
:104EF000DDE90523CDE90032534642462946D5E98E
:104F000003C0E04700200AE770A0FEF7F1FD40462D
:104F100001F069FD6FF0020001E70000BC00002015
:104F200064705F696E70757428293A2064656C65D9
:104F300074652064702064617461206265636175CA
:104F40007365207468652064705F706362206973A4
:104F5000204E554C4C2E0D0A0000000064705F6915
:104F60006E70757428293A206470207061636B65D7
:104F7000742064726F707065642064756520746F4E
:104F8000206261642070726F746F636F6C2069645B
:104F9000656E7469666965722E0D0A0064705F69DA
:104FA0006E70757428293A6470207061636B657443
:104FB0002064726F707065642064756520746F2062
:104FC0006261642070726F746F636F6C20766572BB
:104FD00073696F6E2E0D0A0064705F696E70757470
:104FE00028293A6470207061636B657420697320AE
:104FF0006C6F6E676572207468616E207062756692
:105000002E0D0A0064705F696E70757428293A6409
:10501000705F646174615F7061645F6C656E3D2593
:10502000642C702D3E746F745F6C656E3D25642E2C
:105030000D0A000064705F696E70757428293A6308
:105040006865636B73756D206661696C65642E0AB3
:105050000000000064705F696E70757428293A64FE
:10506000702061646472657373206572726F722E52
:105070000A00000064705F696E70757428293A70C8
:1050800062756620686561646572206661696C6539
:10509000642E0D0A0000000064705F696E70757404
:1050A00028293A2064656C65746520706275662EE7
:1050B0000D0A000064705F696E70757428293A20CB
:1050C0006865726531330D0A0000000064705F6925
:1050D0006E70757428293A206865726531342E0D1A
:1050E0000A00000010B5002001F09CF904461CB134
:1050F00014212046FBF7C8F8204610BDC1600261AC
:1051000070472DE9F84304460E46174698466079E5
:1051100000F0CCFE05461DB96FF00600BDE8F8832F
:1051200043463A4631462046009500F001F8F5E73F
:105130002DE9FF4F8BB082460C460A21204601F034
:1051400088FCA8B100220A21032001F067FB054674
:105150003DB94FA0FEF7CCFC6FF004000FB0BDE8E6
:10516000F08F208928B12146284601F031FC00E06B
:105170002546062008900020079006900120059003
:1051800000200490039002900A900AA92046FFF79D
:105190003BF950B149A0FEF7ABFCAC4202D0284627
:1051A00001F021FC6FF00200D8E70A98408910F066
:1051B000010F09D00A98D0F804B000208BF8000045
:1051C0000BF10100019002E00A9840680190AC42A6
:1051D00006D160890A99498908441FFA80F907E0D5
:1051E0006889618908440A99498908441FFA80F945
:1051F0004FF6FF710198018028460A9901F0E8FBFB
:105200006E6808988100079841EA400006990843B3
:10521000307005980101049841EAC00003990843E1
:10522000707009F0FF004FEA192141EA00207080F8
:105230009AF807009AF8051040EA0127F8B2390AEF
:1052400041EA0020B080DDE90D1040EA012808F0B5
:10525000FF004FEA182141EA0020F08002983081D7
:10526000189840F60603D0F808C029460D9AE04782
:10527000099006200A9901F0EBF800200A902060BE
:10528000A54203D0284601F0AEFB0025099865E74A
:1052900064705F73656E64746F5F696628293A6332
:1052A0006F756C64206E6F7420616C6C6F636174D9
:1052B00065206865616465722E0D0A0064705F7315
:1052C000656E64746F5F696628293A616464207052
:1052D00061645F70627566206661696C65640D0A61
:1052E0000000000001B500F033FE20B10EA0FEF773
:1052F000FFFB002008BD0F480078401C0D490870D6
:1053000008468178C01C00EB8100009901600948C3
:105310008078401C0A2190FBF1F201FB1200054944
:1053200088700120E6E70000512066756C6C2E0D38
:105330000A000000E00F0020012070472DE9F05F17
:1053400080468B461546284600F0FCF808B9BDE8B3
:10535000F09FD5F80490686800F1110420780128C6
:1053600002DB20780E2826DD14F8041D32A0FEF79B
:10537000BFFB617830A0FEF7BBFBA1782EA0FEF743
:10538000B7FBE278217930A0FEF7B2FB617937A054
:10539000FEF7AEFBA17935A0FEF7AAFBE17904F197
:1053A000040432A0FEF7A4FB34A0FEF7A1FB2846BC
:1053B00001F019FBCBE72078022804D0042818D08C
:1053C0000C282ED126E0686800F11107FFF70EF9CE
:1053D0008246791C5046FEF7E9FF00B125E07A1CB1
:1053E0005146404601F0E8FF10B133A0FEF780FBC4
:1053F0001BE0686800F11206307800F0BDFD20B9AE
:1054000031783AA0FEF774FB0FE03078711CFFF79B
:1054100089F80AE04048807910B901203E49887136
:1054200003E03EA0FEF764FB00BF00BF284601F08A
:10543000DAFA00BF8BE7000070726576206973208E
:1054400025642E0D0A0000006572726F72206D7364
:105450006720636F64652069732025642C70726512
:10546000762069732025642E0D0A0000616674653C
:10547000722069732025642E0D0A0000657468622D
:1054800063705F696E70757428293A696E636F7214
:105490007265637420627573206D616E6167656DFE
:1054A000656E74206D6573736167657320636F64E7
:1054B000652E0D0A000000006574686263705F6904
:1054C0006E70757428293A5442432073656E6420C7
:1054D00061737369676E20616C696173206D7367B6
:1054E000206661696C65642E0D0A0000657468624F
:1054F00063705F696E70757428293A4552524F5235
:1055000028756E6B6E6F776E20616C6961732025F4
:1055100064292E0D0A000000C8000020657468622E
:1055200063705F696E70757428293A696E636F7273
:10553000726563742062637020747970652E0D0A41
:105540000000000070B505466C68A08918B9E07BC2
:1055500008B9207C60B1FFF7EFFE48B905A0FEF75F
:10556000C7FA284601F03FFA02F004FA002070BDA5
:105570000120FCE76574686263705F696E70757422
:105580005F636865636B28293A696E636F72726541
:1055900063742064617461206672616D652E0A0017
:1055A0002DE9F04707460E46914698460E213046B3
:1055B00001F04FFA90B100220E21032001F02EF9E4
:1055C000054635B919A0FEF793FA6FF00100BDE862
:1055D000F0873146284601F0FBF900E035466C685B
:1055E0004020207084F801900020A070E0702071AD
:1055F00060714020A071397DE171002121726172DA
:10560000A172E17208F0FF004FEA182141EA002080
:10561000A08129463846FA6890478246B54203D0B1
:10562000284601F0E0F900245046D0E77062756624
:105630005F68656164657228293A636F756C6420E0
:105640006E6F7420616C6C6F6361746520726F6F34
:105650006D20666F72206865616465722E0D0A00A8
:1056600008B501214FF4E030FDF746FD01217D2012
:10567000FDF772FD0420ADF8000003208DF8020054
:1056800018208DF8030069463548FBF72DFD0620EC
:10569000ADF8000003208DF8020018208DF80300FB
:1056A00069463048FBF720FD43F62010ADF80000B6
:1056B00003208DF8020018208DF8030069462A485F
:1056C000FBF712FD01214FF02010FBF797FD0B2097
:1056D000ADF8000003208DF8020004208DF80300CF
:1056E00069461F48FBF700FD4FF48060ADF80000ED
:1056F00003208DF8020004208DF8030069461A4843
:10570000FBF7F2FC0820ADF8000003208DF8020042
:1057100004208DF8030069461248FBF7E5FC4FF4BE
:10572000F850ADF8000003208DF8020004208DF839
:10573000030069460D48FBF7D7FC4FF48070ADF8C5
:10574000000003208DF8020018208DF80300694640
:105750000348FBF7C9FCFBF771FCFBF7F8FD08BD3C
:105760000008014000100140000C014000140140FD
:105770002DE9F04104460D4660890E2808DC34A06E
:10578000FEF7B6F9204601F02EF90020BDE8F081C1
:105790006668B089000AB189C9B240EA0127B7F545
:1057A000006F24D0A7F50060023806D004280BD083
:1057B000A0F5F040FE3840D129E0224605F119015C
:1057C0002846FFF7BBFD3FE06FF00D01204601F0DA
:1057D00040F938B12BA0FEF78BF9204601F003F910
:1057E000002403E029462046FFF78AFA2CE06FF0F8
:1057F0000D01204601F02DF920B1204601F0F3F80B
:10580000002403E02946204601F040FB1CE028A0CC
:10581000FEF76EF96FF00D01204601F01AF920B184
:10582000204601F0E0F8002406E02BA0FEF760F926
:105830002946204602F080FC06E031A0FEF758F928
:10584000204601F0D0F800BF00BF00209EE7000016
:1058500065746865726E65745F696E707574282909
:105860003A7468652065746865726E657420667246
:10587000616D6520697320746F6F20736D616C6C4E
:105880002E0A000065746865726E65745F696E70DB
:10589000757428293A6261642064702064617461BF
:1058A0002064656C6574652069742E0D0A00000023
:1058B00065746865726E65745F696E7075742829A9
:1058C0003A6765742074702074797065206461741F
:1058D000612C0D0A0000000065746865726E6574C5
:1058E0005F696E70757428293A67657420726967FC
:1058F000687420747020646174612C0D0A000000CB
:1059000065746865726E65745F696E707574282958
:105910003A696E636F72726563742065746865724C
:105920006E657420747970652E0D0A0070B504469A
:1059300000BF14B90FA0FEF7DBF800BF042000F091
:1059400005FC054615B96FF0040070BD256168209F
:1059500084F820007721212001551048A0601048CC
:10596000E06004F119002860204600F02FFB0020C1
:10597000EBE7000065746865726E657469665F695F
:105980006E697428293A6572726F722C6E6574693B
:10599000663D3D4E554C4C0A00000000A1550008E4
:1059A000AD6000082DE9F0410446FAF7EDFB07462B
:1059B000204600F047FB06463846FAF7E9FB1EB9D9
:1059C0006FF00400BDE8F0812146304662689047E0
:1059D000054635B104A0FEF78BF8304601F003F818
:1059E00000262846EEE7000065746865726E6574EF
:1059F00069665F696E70757428293A696E7075748E
:105A0000206572726F722E0D0A0000000246064871
:105A1000016805E0087A904201D10846704709689C
:105A20000029F7D10020F9E71C01002002460021DF
:105A300012E001EB810000EBC100094B03EB001009
:105A40004078904206D101EB810000EBC10003EBEE
:105A500000107047481CC1B22029EADB0020F8E79B
:105A6000C4D7002070B504460D46E1B20548FEF7E4
:105A700038F800BF40210348FDF766FF0028F9D041
:105A8000204670BD004400402DE9FE4306464FF01D
:105A900000080123032200213046FDF791FD18B1D3
:105AA0006FF00200BDE8FE8300240FE002A97068D9
:105AB00000F02AFE28B94FF00108029800F02FFDEF
:105AC00006E00620FAF7ECFE601CC4B2062CEDDB03
:105AD00000BFB8F1000F02D16FF00200E2E76D469F
