:020000040800F2
:1000000038FC002065010008491200084112000870
:1000100045120008610800087F3800080000000051
:10002000000000000000000000000000A5300008F3
:100030006508000800000000CB010008B13100088D
:100040007F0100087F0100087F0100087F01000890
:100050007F0100087F0100087F0100087F01000880
:100060007F0100087F0100087F0100087F01000870
:100070007F0100087F0100087F0100087F01000860
:100080007F0100087F0100087F0100087F01000850
:100090007F0100087F0100087F0100087F01000840
:1000A0007F0100087F0100087F0100087F01000830
:1000B0007F0100087F0100087F0100087F01000820
:1000C0007F0100087F0100087F0100087F01000810
:1000D0007F01000851340008553400087F010008F2
:1000E0007F0100087F0100087F0100080000000078
:1000F0000000000000000000000000000000000000
:100100000000000000000000CD3200087F01000860
:100110007F0100087F0100087F0100087F010008BF
:100120007F0100087F0100087F0100087F010008AF
:100130007F010008490A00087F0100087F010008CC
:100140007F0100087F0100087F0100087F0100088F
:10015000DFF80CD000F0ECFA0048004765510008C9
:1001600038FC00200648804706480047FEE7FEE7C7
:10017000FEE7FEE7FEE7FEE7FEE7FEE7FEE7FEE757
:10018000D931000851010008EFF3108072B67047B2
:1001900080F3108870471D484FF0FF010170002068
:1001A00080F309881A48012101701A484FF08051E4
:1001B000016062B6FEE717484FF08051016070475A
:1001C00014484FF080510160704772B6EFF3098018
:1001D00028B1203880E8F00F0F490968086000B5A1
:1001E0000E4880475DF804EB0D480E490A7802700E
:1001F00009480D490A680260106890E8F00F203045
:1002000080F309884EF0040E62B6704722ED00E0DC
:100210008200002004ED00E0880000202121000879
:1002200077000020780000209000002072B6704710
:1002300062B67047EFF3108072B6704780F3108893
:100240007047B0FA80F0704790FAA0F0704730BF66
:10025000704720BF704740EA01039B0703D009E0C5
:1002600008C9121F08C0042AFAD203E011F8013BA2
:1002700000F8013B521EF9D2704730B50B460146DB
:1002800000202022012409E021FA02F59D4205D335
:1002900003FA02F5491B04FA02F52844151EA2F1DF
:1002A0000102F1DC30BD2DE9F05F054600209246E9
:1002B0009B4688460646814640241DE02846414626
:1002C0004746224600F055FAB0EB0A0052465B461C
:1002D00071EB0B0110D310461946224600F03AFA92
:1002E0002D1A67EB01084F4622460120002100F03D
:1002F00031FA17EB00094E41201EA4F10104DDDCA8
:10030000484631462A464346BDE8F09F10B5002BCB
:1003100008DA401C41F1000192185B411A4301D1F7
:1003200020F0010010BD2DE9FF4D934611B1B1FA47
:1003300081F202E0B0FA80F22032924600F00AFA2E
:10034000039A0746884640EA0B0011435B46084380
:1003500004D13846414604B0BDE8F08D114653EA59
:10036000020016D0CAF14002584600F002FA0446D4
:100370000D464FF0010658465246039900F0EAF93F
:10038000084300D10026344345EAE675274345EA91
:1003900008080E984FF00005A0EB0A014FEAD7209D
:1003A0000A314FEA47532A4640EA48504FEAD824D8
:1003B00002D500200146CEE7281844EB0151DDE9C3
:1003C0000C45001904B06941BDE8F04D9EE72DE9E8
:1003D000FE4F074681EA0300C00F0E46019021F050
:1003E000004123F00044B81AA14105D238463146F5
:1003F00017461E460B46024623F00040104304D128
:100400003846314603B0BDE8F08F350DC5F30A001C
:10041000C3F30A510290401A0090402867DAC3F3F0
:10042000130040F4801B0198924620B10023D2EBC8
:10043000030A63EB0B0B00985946C0F1400250468B
:1004400000F088F980460C4650465946009A00F064
:10045000A0F9C0197141EF1785EA11533B433FD012
:10046000019A4AB3009A012A11DC0022801A61EB3A
:1004700005514FF0004303EA0555CDE900258018EA
:1004800041F5801142462346FFF74DFFBAE72E059E
:100490000025401B61EB0601401941F58012001850
:1004A00052412818A6F5001343EB020140EAD4702C
:1004B00018EB0808644113E064084FEA38084FF06D
:1004C000000244EAC0744FEA0553801A61EB03014D
:1004D000801841F5801149084FEA300080185941D1
:1004E0004246234603B0BDE8F04FFFF70FBF019827
:1004F000012240000023D0EB020263EBE07301987D
:100500004FEAE074381A66EB0401EBE783F000432E
:100510005DE781F000415AE72DE9FE4F81EA0304CF
:1005200021F0004504F0004423F000414FF0000AA0
:10053000009450EA050302D052EA010304D10020DE
:10054000014603B0BDE8F08FC1F30A53C5F30A5466
:100550002344A3F2F3330193A0FB02B3C5F31305C5
:1005600045F4801CC1F3130141F480180CFB0233E5
:1005700000FB083E810A930A41EA8C5143EA885302
:10058000A1FB03474FEA9C2505FB03734FEA98261E
:1005900001FB06373D05260545EA1435BBEB060190
:1005A0006EEB0503850E920E45EA8C1542EA881221
:1005B000A5FB0206261E67EB00070C0D44EA033478
:1005C000A61947EB1350C1F313044FF0000319466B
:1005D000E5FB02014FEA033545EA1455019B4FEA5A
:1005E0000432009CA3F10C03CDE900A445EA060502
:1005F00002932B46FFF797FEA3E72DE9F04D81EA22
:10060000030404F0004B21F0004714464FF0000AA9
:1006100023F0004150EA070220D054EA01021DD025
:10062000C1F30A550246C1F31300C7F30A56C7F3D4
:10063000130340F4801143F48013A6EB0508101B4C
:10064000D64608F2FD3873EB010002D308F1010829
:1006500001E092185B41B8F1000F03DA0020014677
:10066000BDE8F08D00204FF48015064607460EE0E9
:10067000B2EB040C73EB010C04D3121B064363EBC7
:1006800001032F436D084FEA300092185B4150EA96
:10069000050CEDD152EA030012D082EA040083EA8D
:1006A0000105284303D100224FF0004308E0101B4E
:1006B0008B4102D20122002302E06FF001025310AD
:1006C0001AEB060047EB085110EB0A0041EB0B0157
:1006D000BDE8F04DFFF71ABEC1F30A52C1F3130192
:1006E00040F2FF3341F480119A4202DA00200146C1
:1006F000704740F233439A42A2F2334202DC524244
:1007000000F037B800F026B830B5002904DB4FF010
:100710000044404264EB0101002B04DB4FF0004435
:10072000524264EB0303994208BF904230BD00007F
:10073000064C074D06E0E06840F0010394E807002E
:1007400098471034AC42F6D3FFF706FD1C6800084A
:100750003C680008202A04DB203A00FA02F100205D
:1007600070479140C2F1200320FA03F319439040EF
:100770007047202A04DB203A21FA02F0002170475A
:1007800021FA02F3D040C2F12002914008431946F9
:100790007047202A06DBCB17203A41FA02F043EAE1
:1007A000E07306E041FA02F3D040C2F1200291402A
:1007B00008431946704770B501EB020410F8015B5D
:1007C00015F0070301D110F8013B2A1106D110F8EA
:1007D000012B03E010F8016B01F8016B5B1EF9D1EE
:1007E0002B0705D40023521E0FD401F8013BFAE772
:1007F00010F8013B02F10202A1EB030303E013F83E
:10080000015B01F8015B521EF9D5A142D6D300204D
:1008100070BD000010B500BF0623034A0021034845
:1008200001F07AFA044610BD5C060020E565000878
:10083000704710B5FFF7EEFF10BD7047704701F02D
:10084000D5FE01F03DFAFFF7F4FF00BF00231A4682
:100850000121184601F0A8FCF8E77047704770477F
:1008600000BFFEE770470000014948617047000083
:100870000090024029B1064AD2690243044BDA6172
:1008800004E0034AD2698243014BDA6170470000F9
:100890000090024030B10749896941F00201054AE0
:1008A000916105E00349896921F00201014A9161E2
:1008B000704700000090024030B50C4613460021FE
:1008C000104D286000BF18E000EB01124FF000450A
:1008D000156044F2F0555560C1EB411505EB8115EB
:1008E00004EB051595605D1E8D4204D900EB0115E2
:1008F0001035D56000E0D060491C9942E4D3024D28
:10090000E86030BD380000200090024021B142680C
:1009100022F00042426003E0426842F0004242603E
:100920007047000030B10749896941F40051054A18
:10093000916105E00349896921F40051014A9161FF
:10094000704700000090024030B50C46134600216D
:100950000F4D286000BF15E000EB01124FF4801529
:100960001560C1EB411505EB811504EB051595608C
:100970005D1E8D4204D900EB01151035D56000E0F5
:10098000D060491C9942E7D3024D286130BD000078
:10099000340000200090024010B50121880302F0CD
:1009A00053FA00214FF4804002F04EFA10BD0021AE
:1009B000014600E0491E0029FCD1704703488069C8
:1009C00040F48010014988617047000000900240A7
:1009D00001480068806870473400002001460868BC
:1009E000C0F30D407047000000B500220F480068BA
:1009F000006810F0004F16D10C480068006810F431
:100A0000004F10D109480068006810F4807F0AD0B8
:100A100006480068006810F4007F04D003480068AE
:100A2000FFF7DCFF0246104600BD00003800002042
:100A300000200449096811F0010F01D0012000E0F5
:100A4000002070470090024010B5FFF79DFB044660
:100A50000C480078401C0B4908702046FFF798FBB3
:100A600002E0094804F064FAFFF7BEFF0028F8D15D
:100A70004020FFF7F9FE4FF48030FFF7F5FE00F05D
:100A80005DFD10BD750000207CD700202DE9F047EA
:100A900086B0044688464FF000090025AA46854FD7
:100AA00000268548056925F01C0501A802F0FCF91F
:100AB000029F8248874205D38148874202D245F08F
:100AC000080509E07E48874205D37A48874202D26A
:100AD00045F00C0500E000BF774805614FF4004287
:100AE0000021404600F054FA18B9002006B0BDE8D5
:100AF000F0877448FFF75BFF2068002844D000BFF0
:100B0000761C0121404600F025F910F0040F02D1B7
:100B10006D488642F4D36C48864201D10020E5E757
:100B200000264FF480520021404600F031FA08B907
:100B30000020DBE700BF761C0121404600F00AF9E7
:100B400010F0200F02D160488642F4D35E488642FE
:100B500001D10020CAE700261021404600F0FAF833
:100B6000814619F0040F03D04FF40060206201E0C9
:100B70000020206219F0020F02D00020606116E010
:100B80004FF48040606112E0206AC0F3CF006169D9
:100B9000C1F34F0140EA01020021404600F0F8F99C
:100BA00008B90020A2E76FF07F40FFF700FF42483E
:100BB000056846480540D4E901010843E168084357
:100BC0002169084361690843A1690843E169084351
:100BD000216A0843616A0843A16A0843E16A08433D
:100BE000216B0843616B0843054333480560D4E932
:100BF0000E010843216C0843616C0843A16C084353
:100C0000E16C0843216D0843616D08432A4948603F
:100C1000A06D8860E06DC860084685694FF6417038
:100C20000540D4E9181040EA0140A16E0843E16E86
:100C30000843216F0843616F084305431E488561DF
:100C4000D4E91E0108431C49C8612148856921482F
:100C50000540D4E920010843D4F888100843D4F8AB
:100C60008C100843D4F890100843D4F8941008432B
:100C7000D4F898100843D4F89C100843D4F8A01076
:100C80000843054312488561D4E929010843D4F893
:100C9000AC100843D4F8B0100843D4F8B41040EABC
:100CA0008100D4F8B810084340F4000008490860F7
:100CB00001201BE70087930300800240002D3101D3
:100CC000C00E1602FFFF0F00FFFF04000F8120FF80
:100CD00000900240233FDEF810B50B794C7943EACF
:100CE0000422094B03441A64CB781B068C7843EA30
:100CF00004434C7843EA04230C7843EA0402024B91
:100D000003445A6410BD00000080024030B107491E
:100D1000096841F00401054A116005E003490968CA
:100D200021F00401014A1160704700000080024078
:100D300030B10749096841F00801054A116005E032
:100D40000349096821F00801014A11607047000059
:100D50000080024010B503460C46002100221348D3
:100D6000016901F01C014FF4784000EAC3200143FF
:100D70004FF4F86000EA8410014321F0020141F0D1
:100D800001010A48016100BF521C0848016911F0C5
:100D9000010F02D006488242F6D30548824201D1B3
:100DA000002010BD0148406980B2FAE7008002408F
:100DB000FFFF04001EB50021002200920192029262
:100DC000214A1268126812F0004F10D000220092DF
:100DD0001E4A526912F0800F04D080221B4B5A61C8
:100DE00000229A609DE81C0080E81C001EBD164A87
:100DF0001268126812F4004F16D1134A1268126872
:100E000012F4807F10D0104A1268126812F4007F2A
:100E10000AD00D4A12681268C2F30D42111F0A4A25
:100E200012689268019200E000210091064A12685F
:100E30000292054A1268D268034B1A609DE81C00B2
:100E400080E81C0000BFD1E738000020009002407D
:100E50000348006840F00100014908607047000045
:100E60000090024000B50120FFF762FFFFF7A6FDEA
:100E70000120FFF74BFF0120FFF754FD0120FFF792
:100E800009FD00BD0021016041608160C160016118
:100E900041618161C161016241628162C16201633C
:100EA00041638163C16340210164202141640021C9
:100EB0008164C164016541658165C1650166802108
:100EC000416600218166C166016741678167C1672C
:100ED0004FF08061C0F880104910C0F884104910AC
:100EE000C0F88810C910C0F88C100021C0F890100C
:100EF000C0F89410C0F89810C0F89C10C0F8A0106A
:100F00004FF00071C0F8A4100021C0F8A8104FF4F1
:100F10000031C0F8AC104912C0F8B0100021C0F880
:100F2000B410C0F8B8107047014617480068006850
:100F300010F0004F01D000207047C1F30C00124A9E
:100F40001268506010480068006840F040500E4A37
:100F5000126810600C480068006840F000400A4ABF
:100F6000126810600948406910F0040F04D0042092
:100F7000064A50610020506003480068C068024A79
:100F800010600120D8E700003400002000900240EB
:100F900030B503460C46154600210022124801696F
:100FA00001F01C014FF4784000EAC32001434FF4E4
:100FB000F86000EA8410014341F0020141F00101B0
:100FC00009484561016100BF521C0748016911F0E1
:100FD000010F02D005488242F6D30448824201D173
:100FE000002030BD0120FCE700800240FFFF04002C
:100FF00000B5AFB0012000F04BF84FF4004002F014
:1010000045F8012002F03CF800BF3D2002F014F842
:101010000028FAD00B2002F02DF8FFF7BDFCFFF7F7
:1010200017FF00BFFFF704FD0128FBD06846FFF75C
:1010300029FF01200090002007904FF400700A90D3
:1010400000200B900E90119013901490159020900A
:101050004FF00070219000112390002025902690E1
:1010600004202890C005299040122A9080012B90DE
:1010700040122C9040002E9001216846FFF706FD9B
:1010800001210248FFF7F6FB2FB000BD4000010030
:101090000149086070470000DC0020422DE9F04162
:1010A000024600250026002000230024002791F896
:1010B00003C00CF00F0591F803C01CF0100F03D013
:1010C00091F802C04CEA0505B1F800C01CF0FF0F12
:1010D00031D0146800202BE04FF0010C0CFA00F323
:1010E000B1F800C00CEA03069E4220D183004FF005
:1010F0000F0C0CFA03F7BC4305FA03FC4CEA04049A
:1011000091F803C0BCF1280F06D14FF0010C0CFA86
:1011100000FCC2F814C00AE091F803C0BCF1480F0B
:1011200005D14FF0010C0CFA00FCC2F810C0401CB5
:101130000828D1D31460B1F800C0BCF1FF0F34DD32
:10114000546800202EE000F1080C4FF0010808FA66
:101150000CF3B1F800C00CEA03069E4221D18300D3
:101160004FF00F0C0CFA03F7BC4305FA03FC4CEAF2
:10117000040491F803C0BCF1280F05D100F1080C5C
:1011800008FA0CF8C2F8148091F803C0BCF1480FBB
:1011900007D100F1080C4FF0010808FA0CF8C2F86A
:1011A0001080401C0828CED35460BDE8F0810000B8
:1011B000F0B50A46002300240021002500F0004677
:1011C000B6F1004F02D11D4EF16901E01B4E71686E
:1011D000C0F3034583B200F44016B6F5401F08D1B2
:1011E00021F07061154E766826F07066134F7E60B0
:1011F00012E000F48016B6F5801F06D1032606FA29
:1012000005F4A14341F0706106E0460D360103FA92
:1012100006F6B14341F0706122B1460D360103FA82
:1012200006F6314300F00046B6F1004F02D1034EFE
:10123000F16101E0014E7160F0BD0000000001406D
:1012400000BFFEE700BFFEE7704708B54FF4C0607F
:1012500000F064F83D208DF8000001208DF80100B9
:101260008DF802008DF80300684600F015F808BDFF
:1012700008B54FF4C06000F051F826208DF800004A
:1012800003208DF801008DF8020001208DF8030085
:10129000684600F001F808BD70B5002100230F2258
:1012A000C4784CB31A4C246804F4E064C4F5E064D8
:1012B0004FEA1421C1F1040322FA01F2447804FA3E
:1012C00003F1847804EA020444EA01014FEA0111BF
:1012D000104C0678A155047804F01F054FF0010466
:1012E00004FA05F405784FEA65154FF0E02606EBA1
:1012F0008505C5F8004109E0047804F01F050124C4
:10130000AC40054D0678761145F8264070BD0000CA
:101310000CED00E000E400E080E100E00249014360
:10132000024A1160704700000000FA050CED00E071
:101330001D481E481E481F481F4820482048214875
:101340002148224822482348234824482448254845
:101350002548264826482748274828482848294815
:1013600029482A482A482B482B482C482C482D48E5
:101370002D482E482E482F482F48304830483148B5
:101380003148324832483348334834483448354885
:101390003548364836483748374838483848394855
:1013A000394800BF70470000306600083466000806
:1013B0003A6600083C660008386600083E66000889
:1013C0004066000842660008446600084666000859
:1013D000486600084A6600084C6600084E66000829
:1013E00050660008526600085466000856660008F9
:1013F000586600085A6600085C6600085E660008C9
:101400006066000862660008646600086666000898
:10141000686600086A6600086C6600086E66000868
:101420007066000872660008746600087666000838
:10143000786600087A6600087C6600087E66000808
:1014400080660008826600088666000888660008D4
:101450008A6600088C6600082C1D0020AC20002045
:101460009066000892660008946600089666000878
:10147000986600089A6600089C6600089E66000848
:10148000A06600088E660008A26600082DE9F041FB
:1014900005460E46144600271DB904202070BDE8FD
:1014A000F08116B90C202070F9E71148007810B1CE
:1014B00012202070F3E72878012808D0022807D0EE
:1014C000032802D0042804D100E000BF00BF00BF01
:1014D00002E001202070E2E700BFFEF755FE07465C
:1014E0006E613846FEF754FE0020207000BFD6E73C
:1014F0007500002010B500F019F801F0E5F901F0D1
:101500000DFA01F02DFA01F0AFF901F081F901F0C7
:10151000C1FA01F0EBFA01F063FA01F089FA00F088
:101520002BFF00F009F8FFF703FF10BD0020014971
:1015300008807047580000207047000010B5002454
:101540001A480078012830D1FEF71EFE04461848DC
:10155000007820B116480078401E154908701448DC
:101560000078F8B913480078E0B901F021FB12487F
:101570001249097850F82100114908600F48007895
:101580001049097888420DD00D480068C06B401C96
:101590000B490968C8630C480068401C0A49086088
:1015A000FEF70EFE2046FEF7F3FD10BD8200002080
:1015B0007500002076000020C41300207800002071
:1015C00090000020770000205C0000202DE9FC5FE7
:1015D00005460F4691461E460020009025B9622020
:1015E00030700020BDE8FC9F15F0030F03D062208F
:1015F00030700020F6E7022F03D25B20307000200D
:10160000F0E7B9F1040F03D25C2030700020E9E765
:10161000FEF7BAFD009016480468006820B114482F
:1016200000684068124908600098FEF7B1FD1CB9D7
:101630005A2030700020D5E7AA46A846781E0190AF
:101640004FF0000B05E0C844CAF80080C2460BF119
:10165000010B01988345F6D30020CAF800002560ED
:1016600065602761E760C4F8089030702046B9E7EC
:101670009C0000202DE9F04104460D46002724B9C6
:10168000602028700020BDE8F081FEF77DFD074650
:10169000206960B16668306860602069401E206122
:1016A0003846FEF775FD002028703046EBE73846D7
:1016B000FEF76EFD5D2028700020E4E770B504465B
:1016C0000D4600260CB9602070BD0DB95F20FBE708
:1016D000FEF75AFD0646D4E90310884204D330468B
:1016E000FEF756FD5E20EFE76068286065602069C0
:1016F000401C20613046FEF74BFD0020E4E700006F
:101700002DE9F04106460F464FF0000820480078CA
:1017100010B10020BDE8F081FEF736FD80461D487F
:101720000468006820B11B480068406819490860D7
:101730004046FEF72DFDFCB1FEF726FD804616481B
:101740000568D5B100680068134908604046FEF797
:101750001FFD6E6006EB8700A860EE602E61AF8211
:101760000020E882022020700020208165600BA00C
:101770006061204601F03EF808E0064800686060BD
:10178000044804604046FEF703FD00242046C1E7FC
:101790007500002060000020A00000203F00000035
:1017A0002DE9F0470646884615464FF0000926B950
:1017B000042028700020BDE8F0873078022803D08C
:1017C000012028700020F6E73D48007818B102207B
:1017D00028700020EFE73B48007818B10D202870F2
:1017E0000020E8E7FEF7D0FC81467468E08A98B1F3
:1017F0002169081D20610F68E08A401EE082A1680F
:101800002069884201D1606820614846FEF7C0FC2B
:10181000002028703846CEE72B48006890F8340046
:1018200040F004002849096881F834000020264966
:10183000096881F8350024480068C0F830803046D7
:1018400000F096FF4846FEF7A3FC01F077F9FEF79B
:101850009BFC81461C48006890F8350020B10128A7
:101860000DD002280AD105E017480068476A002019
:1018700028700DE000270E20287009E000BF3146D7
:101880001148006800F032FF00270A20287000BFCE
:1018900000BF00200C49096881F834000A49096832
:1018A00081F8350008490968C86107490968086274
:1018B0000549096848624846FEF76AFC38467AE7F7
:1018C0007500002076000020880000202DE9F041FE
:1018D00005460E46002715B90420BDE8F08128789A
:1018E000022801D00120F8E7FEF74EFC0746A87A4F
:1018F00060B1002304223146284600F0A9FE384694
:10190000FEF746FC01F01AF90020E6E76C68E08A71
:10191000A18A884204DB3846FEF73AFC1E20DCE749
:10192000E168081DE0600E60E08A401CE082D4E9B6
:101930000210884201D16068E0603846FEF728FC5A
:101940000020CAE710B500240B480078012811D107
:10195000FEF71AFC04460948007840B908480078A8
:10196000FF2804D206480078401C0549087020462C
:10197000FEF70EFC10BD0000820000207500002064
:101980007600002010B5002413480078012821D1EA
:10199000FEF7FAFB044611480078C0B10F48007802
:1019A000401E0E4908700846007860B90C4800785F
:1019B00028B92046FEF7ECFB01F0C0F80AE020460B
:1019C000FEF7E6FB06E02046FEF7E2FB02E02046DB
:1019D000FEF7DEFB10BD0000820000207600002034
:1019E0007500002070B5054600261048007808B143
:1019F000002070BDFEF7C8FB06460D48046800686D
:101A000020B10B4800684068094908603046FEF77D
:101A1000BFFB4CB10320207025810020606005A031
:101A20006061204600F0E6FE2046E2E775000020F7
:101A3000600000203F0000002DE9F0470446884682
:101A400015464FF0000924B9042028702046BDE84F
:101A5000F0872078032803D0012028702046F6E77D
:101A60002C48007818B10F2028702046EFE7FEF7C9
:101A70008BFB8146A07A08B1012700E00027B8F16E
:101A8000000F03D0B8F1010F3AD119E08FB922A0AD
:101A90006061002020702148006860600020208183
:101AA0001E4804604846FEF773FB0020287000269D
:101AB00005E04846FEF76CFB49202870264626E0E4
:101AC00005E0002301221946204600F0C1FDA07A5E
:101AD0000028F6D110A06061002020700F48006837
:101AE0006060002020810D4804604846FEF750FBEE
:101AF000012F01D101F022F800202870002606E015
:101B00004846FEF745FB07202870264600BF00BF69
:101B100030469CE7750000203F0000006000002078
:101B20002DE9F04105460E46144600271DB9042054
:101B30002070BDE8F0812878032802D001202070B1
:101B4000F7E73248007810B102202070F1E7304802
:101B5000007810B10D202070EBE7FEF715FB07466B
:101B6000288940B12889401E28813846FEF710FB9D
:101B700000202070DDE72748006890F8340040F02E
:101B800001002449096881F83400002021490968CE
:101B900081F835001F4800680663284600F0E8FD1C
:101BA0003846FEF7F5FA00F0C9FFFEF7EDFA0746F2
:101BB0001848006890F8350020B1012809D00228A3
:101BC00006D102E0002020700BE00E20207008E01B
:101BD00000BF29460F48006800F088FD0A202070E9
:101BE00000BF00BF00200B49096881F83400094993
:101BF000096881F8350007490968C861054909681D
:101C000008623846FEF7C4FA00BF92E7750000206C
:101C1000760000208800002070B5044600250CB92D
:101C2000042070BD2078032801D00120F9E7FEF7D9
:101C3000ABFA0546A07A60B100230122194620467E
:101C400000F006FD2846FEF7A3FA00F077FF00201B
:101C5000E7E720894FF6FF71884207D22089401CB0
:101C600020812846FEF794FA0020DAE72846FEF79E
:101C70008FFA3320D5E7000010B50B48007890B9F3
:101C800000F096FF0948007809490870094807499B
:101C9000097850F82100084908600846006807499B
:101CA0000860FEF778FA10BD82000020780000205E
:101CB00077000020C413002090000020880000203E
:101CC00010B50024022000F02FFAFEF75DFA04465A
:101CD00000200B4908602046FEF75AFA0A2000F05F
:101CE00023FAFEF751FA04460548006805490860E2
:101CF0000120054908702046FEF74AFA10BD000091
:101D0000840000206C0000207400002010B5044600
:101D10002046FEF78DFD10BD2DE9FE4F06460F460D
:101D200090461C464FF000093F2C02D92A20BDE8FE
:101D3000FE8FFEF729FA81461E48007820B14846FA
:101D4000FEF726FA3C20F2E71B4850F8240058BB67
:101D50000120194941F824004846FEF719FA0023EA
:101D600042463946304600F02BF982460023009364
:101D700001931A4651462046029300F02FFF054674
:101D800035B90E48007801280CD100F0D7FE09E0E3
:101D9000FEF7FAF981460020074941F82400484639
:101DA000FEF7F6F92846C2E74846FEF7F1F9282083
:101DB000BDE7000075000020C41300208200002051
:101DC0002DE9F04F85B08046894692461C46DDE9F4
:101DD0000EB6129F002003903F2C03D92A2005B095
:101DE000BDE8F08FFEF7D0F903902248007820B1CB
:101DF0000398FEF7CDF93C20F1E71F4850F8240086
:101E000088BB01201C4941F824000398FEF7C0F963
:101E10003A463046109900F0F9FF3B465246494693
:101E2000404600F0CDF80490DDE910125B468DE8E5
:101E3000860032462046049900F0D0FE054635B9AA
:101E40000E48007801280CD100F078FE09E0FEF77A
:101E50009BF903900020084941F824000398FEF7FD
:101E600097F92846BBE7FFE70398FEF791F928208A
:101E7000B5E7000075000020C41300208200002098
:101E800010B504462046FEF7D8FC10BD10B5FEF78D
:101E9000D5FC10BD2DE9F04105460F4614464FF024
:101EA00000083F2D05D9FF2D03D02A202070BDE862
:101EB000F08117B90C202070F9E71448007810B1B0
:101EC00012202070F3E7FEF75FF98046FF2D03D163
:101ED0000F48006890F836500E4850F825602EB92B
:101EE0004046FEF755F943202070E0E7012E05D16A
:101EF0004046FEF74DF943202070D8E7376540464D
:101F0000FEF746F90020207000BFD0E775000020E2
:101F100088000020C413002010B5FEF79EFC10BD01
:101F20002DE9F04706460C464FF0000A3F2E04D933
:101F3000FF2E02D02A20BDE8F0870CB90920FAE76D
:101F4000002020606060FEF71FF98246FF2E03D15B
:101F50001948006890F83660184850F8265025B99E
:101F60005046FEF715F94320E5E7012D04D1504610
:101F7000FEF70EF94320DEE7288A10F0010F04D1A6
:101F80005046FEF705F94520D5E70027D5F80C9017
:101F9000D5F808805046FEF7FBF800E07F1C58F8A3
:101FA000041B0029FAD0B8002060A9EB07008000CC
:101FB00060600020BFE7000088000020C4130020FC
:101FC00070B5044610464FF080750560051F284621
:101FD0002C606FF00106051F28462E604FF0123668
:101FE000051F28462E604FF00336051F28462E6039
:101FF0004FF00236051F28462E607610051F284632
:102000002E60051F284629604FF01136051F28460F
:102010002E604FF01036051F28462E604FF009360F
:10202000051F28462E604FF00836051F28462E60F3
:102030004FF00736051F28462E604FF00636051F65
:1020400028462E604FF00536051F28462E604FF0BB
:102050000436051F28462E6070BD00002DE9F041B2
:1020600005464FF000083F2D02D14720BDE8F08122
:102070003F2D03D3FF2D01D02A20F7E7FEF784F888
:102080008046FF2D05D12248006890F83650012681
:1020900008E01F48006890F83600A84201D10126E8
:1020A00000E000261B4850F8254024B94046FEF7C2
:1020B0006FF84820DAE7012C04D14046FEF768F8B3
:1020C0004320D3E794F838701348C05D94F8391072
:1020D000C943C9B208401049C8550846C05D40B957
:1020E00094F83A00C043C0B20C49097808400B4943
:1020F000087094F8340040F0080084F8340040463A
:10210000FEF746F8012E01D100F018FD0020ADE7E2
:1021100088000020C41300207A00002079000020ED
:1021200010B5FEF79BFB10BD70B50546002619489B
:10213000007800B170BD1848007800B1FAE73DB3EF
:10214000FEF722F806461548006890F83840144813
:10215000005D1249096891F83910C943C9B20840B5
:102160000F4908550846005D50B90C48006890F8C2
:102170003A00C043C0B20B490978084009490870C9
:102180000648006805633046FEF702F800F0D6FC0A
:1021900000BFCFE7750000207600002088000020F7
:1021A0007A000020790000202DE9F04107460C4616
:1021B00015461E461B48007810B15520BDE8F08139
:1021C0001948007808B13220F8E727B91CB915B9C9
:1021D0000EB95420F2E73B2C01D95120EEE73B2DFC
:1021E00001D95220EAE7B6F57A7F01D35320E5E71B
:1021F000701D642148434FF47A71B0FBF1F14FF444
:1022000061607843C4EB041200EB8200284400EBC9
:10221000C00202EB001001EB80084046FFF784FF8C
:102220000020CBE7750000207600002070B5002567
:10223000FDF7AAFF0546034804682846FDF7A8FFF6
:10224000204670BDA400002070B5002600F076F88E
:10225000FDF79AFF064633480068401C3149086084
:102260003046FDF795FF30480078012857D12F48B8
:10227000007820B1012804D0022809D103E001250B
:102280000BE0002509E0012501202849087004E041
:10229000012500202549087000BF00BF05B970BDA9
:1022A0002348046837E0FDF76FFF0646206B70B3E4
:1022B000206B401E2063206B48BB94F8340010F064
:1022C000370F09D014F8340F00F0C8002070012037
:1022D0006070A4F1340402E0002084F8350094F822
:1022E000340010F0080F12D104F13804A07811491D
:1022F000097840EA01000F49087020780E49085C0F
:10230000617840EA010014F838190B4A50546469A6
:102310003046FDF73DFF94F836003F28C3D100BF9B
:10232000BDE70000A40000208200002098000020EB
:1023300094000020790000207A00002010B5FEF7FC
:102340008EFA07480088401C054908800846008826
:102350000A2803D30020088000F004F810BD000014
:102360005800002010B503480068FFF755FC0446EC
:10237000204610BDB4000020F8B54FF42071284865
:1023800000F07EFB4021274800F07AFB002514E096
:10239000681C86B205EB8500214901EBC00406EB01
:1023A000860001EBC00764202070002084F825001F
:1023B000E7601DA02062681C85B20F2DE8D305EBF5
:1023C0008500174901EBC00464202070002084F8C8
:1023D0002500E06014A02062002014490860144920
:1023E00008801020134908800D4813490860012017
:1023F000FFF7F8FA114908600020FFF7F3FA1049D7
:1024000008606A460FA10D480068FFF73FF86A466A
:1024100011A10B480068FFF739F800F027F8F8BD64
:102420002C1D0020AC2000203F000000AC0000204C
:10243000AA000020A8000020B8000020B000002062
:10244000B400002075432F4F532D494920546D721D
:102450004C6F636B0000000075432F4F532D4949AB
:1024600020546D725369676E616C000000B587B0CF
:102470000323002240210B48CDE90323CDE90101CC
:102480004FF6FD7300933D2300F1FC020021064846
:10249000FFF796FC06AA05A13D20FFF7FBFC07B05D
:1024A00000BD0000AC1F00202925000875432F4FF8
:1024B000532D494920546D720000000070B50C4640
:1024C000032580F82550012C05D1154EC5693668C5
:1024D000354445610CE085692DB9114EC5693668F2
:1024E0003544456104E00E4E8569366835444561E2
:1024F000456905F007030B4D05EBC3010D682DB9C8
:1025000008600025C56001258D8006E00A68086026
:10251000C26010618D886D1C8D800025056170BDC5
:10252000AC000020AC20002008B500BF00BF6A4608
:1025300000211A480068FFF7F3FAFFF703FA18487A
:102540000068401C164908600846006800F007064D
:10255000144800EBC608D8F800401AE0E7681049B4
:1025600060690968884213D1204600F01DF894F88C
:102570002400022804D101212046FFF79FFF02E03A
:10258000022084F82500656815B12046A168A84797
:102590003C46002CE2D1FFF7F5F9C8E7B400002073
:1025A000AC000020AC20002030B5456905F00704E0
:1025B0000D4D05EBC4031D68854205D1C168196046
:1025C00039B100250D6104E00169C268CA6002B139
:1025D0001161012580F825500025C56005619D88A1
:1025E0006D1E9D8030BD0000AC200020154909689B
:1025F0006422B1FBF2F0B0F1807F01D301211CE035
:1026000020F07F41491E4FF0E022516100BF511779
:10261000002905DA0F2109010B4A0B23D15404E0EC
:102620000F210901094A5317D15400BF00214FF06F
:10263000E022916107211161002109B100BFFEE78D
:10264000704700004400002018ED00E000E400E0C6
:102650002DE9F04F05460F4690469946A87A1F4946
:102660000E5C05F10B00805D11F800B00BEBC600AD
:1026700000F0FF0A1A4850F82A40002004F1240410
:10268000E0602760207C6FEA0801C9B200EA01001F
:10269000207484F81190207CA4F1240410F0080F19
:1026A0000DD194F83A000F49097808430D49087094
:1026B0000D48805D94F8391008430B498855294628
:1026C000204600F013F8206A20B12046216A00F06D
:1026D00026F8E5615046BDE8F08F0000A4660008CA
:1026E000C4130020790000207A00002010B590F873
:1026F000382001F10B039B5C90F83940E443E4B2CD
:10270000234001F10B04A35423469B5C33B98B7A1D
:1027100090F83A40E443E4B223408B7210BDF0B528
:10272000024612F8384F95785678A2F138020B46D7
:10273000186819E000F10B073F5D6FEA060C0CF01A
:10274000FF0C07EA0C0700F10B0C0CF8047067464D
:102750003F5D3FB9877A6FEA050C0CF0FF0C07EA82
:102760000C0787721B1D18680028E3D1F0BD00001C
:1027700010B51D4A1268D0611B4A126892F83830B1
:1027800000F10B02D25C184B1B6893F839301A43E6
:10279000154B1B6893F8384000F10B031A55827AE9
:1027A000114B1B6893F83A301A4382720E4A126832
:1027B00092F838100D4A525C0B4B1B6893F8393075
:1027C000DB43DBB21A40094B5A541A46525C52B9E9
:1027D000054A126892F83A20D243D2B2044B1B78D1
:1027E0001A40034B1A7010BD880000207A000020A8
:1027F00079000020014600228A72002005E00023B3
:1028000001F10B021354421CD0B20828F7D37047D1
:102810002DE9F0415021114800F032F900250DE07A
:10282000681C86B20D4800EB051400EB061700206B
:10283000207067600AA0E060681C85B2042DEFD3A9
:10284000064800EB051400202070606004A0E060E2
:10285000024804490860BDE8F0810000F41100203E
:102860003F0000006400002070B54FF4F071134881
:1028700000F006F9002411E0601C85B204EB44006E
:102880000E4901EBC00305EB450001EBC00600203B
:1028900018705E600AA05861601C84B2132CEBD3E0
:1028A00004EB4400054901EBC00300201870586098
:1028B00003A0586108460349086070BD1410002049
:1028C0003F0000006000002000200A4908600A491B
:1028D00008700A4908700A4908700A4908700A49CC
:1028E00008600A4908600A4908600A4908600A49FC
:1028F00008707047A40000207500002076000020BA
:1029000083000020820000205C0000208400002062
:10291000700000206C0000207400002000210A4A92
:102920001170002004E00021084A1154411CC8B273
:102930000828F8D30021064A1170064A1170064A89
:102940001160064A11607047790000207A0000206B
:1029500077000020780000209000002088000020F0
:1029600070B54FF4F261194800F08AF84FF48071A5
:10297000174800F085F8002413E0601CC5B204EB92
:10298000440000EBC400114901EBC00305EB450016
:1029900000EBC50001EBC0065E610EA01865601C6F
:1029A000C4B2152CE9D304EB440000EBC400074982
:1029B00001EBC0030020586106A0186500200649FD
:1029C000086002480549086070BD0000C41400207A
:1029D000C41300203F000000940000208C00002061
:1029E00000B587B00323002220210B48CDE9032343
:1029F000CDE901014FF6FF7300933F2300F17C0204
:102A000000210648FFF7DCF906AA05A13F20FFF7E1
:102A100041FA07B000BD000044130020212D00083A
:102A200075432F4F532D49492049646C65000000C0
:102A300000B587B00323002240210B48CDE90323D2
:102A4000CDE901014FF6FE7300933E2300F1FC0235
:102A500000210648FFF7B4F906AA05A13E20FFF7BA
:102A600019FA07B000BD000044120020492D0008EB
:102A700075432F4F532D4949205374617400000052
:102A800004E0002200F8012B4A1E91B20029F8D17F
:102A90007047000070B578211148FFF7F1FF00245E
:102AA0000EE004EB44000E4901EBC005601C00EB96
:102AB000400001EBC00068600AA06861601C84B23D
:102AC000042CEED304EB4400054901EBC0050020C3
:102AD000686004A0686108460349086070BD000092
:102AE000541C00203F0000009C0000202DE9F04114
:102AF00060211048FFF7C4FF00240DE0601C86B27F
:102B000004EB44000B4901EBC00506EB460001EB6A
:102B1000C0072F60601C84B2032CEFD304EB440089
:102B2000044901EBC00500202860084602490860FE
:102B3000BDE8F081CC1C0020A000002010B50024CE
:102B4000FDF722FB044613480078F8B912480078D4
:102B5000E0B900F02DF811481149097850F821002A
:102B6000104908600E4800780F49097888420DD056
:102B70000C480068C06B401C0A490968C8630B48D0
:102B80000068401C09490860FDF715FB2046FDF769
:102B9000FFFA10BD7500002076000020C41300204D
:102BA0007800002090000020770000205C000020CA
:102BB0000649074A1278885C0649095C034A515C59
:102BC00001EBC001044A117070470000A4660008C0
:102BD000790000207A000020780000202DE9F84FCD
:102BE00005460F4690469946DDE90AAB0020009065
:102BF000FDF7CAFA009043480468002C7CD004F129
:102C00001C0454F8080C3F4908600098FDF7C0FA0E
:102C100044F81C7CA576002020766076606144F83C
:102C200018BC44F810AC44F8148C0C9824F80C0C24
:102C300024F80A9C0020E077E810207705F00700D0
:102C4000E076217F01208840A077E17E0120884046
:102C50006077002020606060E060A0602062A06279
:102C60006062E062206328A06063A4F11C044FF05E
:102C7000000606E0002104F1540040F82610701C04
:102C8000C6B2002EF6D02046FFF740F82046FFF7E8
:102C9000F7F8FDF779FA00901C4840F825401C48E9
:102CA000006860610020A0611948006810B11848F0
:102CB000006884611648046004F13804A07815495E
:102CC000097840EA01001349087020781249085C2D
:102CD000617840EA010014F838190F4A50540F483F
:102CE000007800F101000D4908700098FDF750FAD6
:102CF0000020BDE8F88FFFE70098FDF749FA422071
:102D0000F7E700008C0000203F000000C413002003
:102D100094000020790000207A0000208300002029
:102D2000002400BF00BFFDF72FFA044605480068E5
:102D3000401C044908602046FDF72AFAFFF7A6F870
:102D4000F1E7000084000020002400BF02E014200E
:102D5000FFF7EAF9194800780028F8D01848006809
:102D60006421B0FBF1F0164908600846006828B9F4
:102D7000002014490870FF20FFF770F900BFFDF72D
:102D800003FA0446104800681049086000200E4904
:102D900008602046FDF7FCF90C48006808490968FE
:102DA000B0FBF1F0C0F1640006490870FFF7B4F819
:102DB00000F00EF80A20FFF7B7F9E0E774000020F2
:102DC0006C000020680000208400002070000020BB
:102DD0007CB5002514E069462846FFF7A1F80646B1
:102DE00066B9094850F8254044B1012C06D0D4E911
:102DF000020100EB8100A0640198E064681CC5B288
:102E00003F2DE8D97CBD0000C413002012F0010F53
:102E100008D012F0020F05D002E0491E002308C0BE
:102E20000029FAD17047000029B1064A52690243CD
:102E3000044B5A6104E0034A52698243014B5A61D0
:102E4000704700000010024029B1064A926A02430E
:102E5000044B9A6204E0034A926A8243014B9A62ED
:102E6000704700000010024029B1064AD2690243AF
:102E7000044BDA6104E0034AD2698243014BDA6110
:102E8000704700000010024029B1064A92690243CF
:102E9000044B9A6104E0034A92698243014B9A61B0
:102EA00070470000001002402DE9F041002100228F
:102EB000002500230026002400278C46DFF86081CF
:102EC000D8F8048008F00C0121B1042907D00829A2
:102ED00059D109E0DFF84C81C0F8008058E0DFF8F4
:102EE0004881C0F8008053E0DFF83481D8F80480CE
:102EF00008F47012DFF82881D8F8048008F48035CF
:102F0000920C0D2A01D0921C00E0062235B9DFF8A0
:102F10001C8102FB08F8C0F8008033E0DFF8008174
:102F2000D8F82C8008F48036DFF8F480D8F82C80AC
:102F300008F00F0808F1010446B9DFF8EC80B8FB8F
:102F4000F4F808FB02F8C0F800801BE0DFF8D0803E
:102F5000D8F82C80C8F3031808F10107DFF8C08007
:102F6000D8F82C80C8F3032808F1020CDFF8B880E9
:102F7000B8FBF7F808FB0CF8B8FBF4F808FB02F80C
:102F8000C0F8008004E0DFF89C80C0F8008000BF3B
:102F900000BFDFF88C80D8F8048008F0F001090940
:102FA000DFF88C8018F80130D0F8008028FA03F898
:102FB000C0F80480DFF86880D8F8048008F4E06185
:102FC000090ADFF86C8018F80130D0F8048028FA7C
:102FD00003F8C0F80880DFF84880D8F8048008F4C7
:102FE0006051C90ADFF8488018F80130D0F8048031
:102FF00028FA03F8C0F80C80DFF82480D8F80480A1
:1030000008F44041890BDFF82C8018F80130D0F823
:103010000C80B8FBF3F8C0F81080BDE8F081000028
:103020000010024000127A0040787D0100093D0046
:103030001E0000202E00002010B5014600220023B3
:1030400000204A11012A02D1094C236806E0022A15
:1030500002D1074C236A01E0054C636A01F01F02AC
:10306000012494401C4201D0012000E0002010BD4A
:10307000001002400149C871704700000010024072
:1030800001490867704700000000424201460020E5
:10309000034AD06A20F470400843D06270470000B1
:1030A00000100240704710B500F002F810BD00009B
:1030B000002100203A4A126842F48032384B1A60EC
:1030C00000BF374A126802F40030491C10B9B1F54C
:1030D000A06FF6D1324A126812F4003F01D00120ED
:1030E00000E0002001285AD12E4A126842F0100256
:1030F0002C4B1A601A46126822F003021A601A4614
:10310000126842F002021A60254A5268244B5A6043
:103110001A4652685A601A46526842F480625A60EF
:103120001A46D26A204B1A401D4BDA621A46D26AFE
:103130001E4B1A431A4BDA621A46126842F080623A
:103140001A6000BF164A126812F0006FFAD0144AD3
:10315000526822F47C12124B5A601A46526842F4AA
:10316000E8125A601A46126842F080721A6000BF74
:103170000B4A126812F0007FFAD0094A526822F016
:103180000302074B5A601A46526842F002025A6024
:1031900000BF034A526802F00C02082AF9D17047B6
:1031A000001002400020024000F0FEFF4406010033
:1031B00010B5FCF7E9FF044606480078401C0549B5
:1031C00008702046FCF7E4FFFFF73EF8FEF7B6F97B
:1031D00010BD00007500002010B51648006840F0D2
:1031E0000100144908600846406813490840114925
:1031F000486008460068114908400E4908600846C2
:10320000006820F4802008600846406820F4FE0032
:1032100048600846006820F0A05008604FF47F0026
:1032200088600020C862FFF73EFF4FF0006004494D
:10323000086010BD001002400000FFF0FFFFF6FE26
:1032400008ED00E010B540200D490870FF204870DF
:1032500000208870C8700871487188710022402170
:10326000032002F0BDF9074908600846006810B95C
:1032700005A000F007FB024802F0BAFD10BD0000F7
:10328000C8000020C40000205442435F444C4C5FFF
:10329000696E697428293A72756E206F7574206F93
:1032A00066206D656D6F72792E0A0000064AC2F8BD
:1032B000040AC2F8001A0023A2F80E3AA2F8103A43
:1032C000A2F8123A7047000024EA002010B501214C
:1032D0000D4800F04EF8B0B101210B4800F03AF86B
:1032E0000A48B0F8101AB0F8120A0844401C0749FE
:1032F000B1F80E1A491C91FBF0F200FB121081B2DA
:103300000248A0F80E1A10BD000C004024EA00206C
:103310000EB501210820FFF7A7FD4FF6FF70ADF8AD
:1033200004004720ADF800000020ADF80600102092
:10333000ADF802006946064800F038F8012211464F
:10334000034800F027F80121014800F006F80EBDFF
:10335000000C0040CA430282704721B1028842F04B
:103360000102028004E002884FF6FE731A400280D8
:10337000704730B50246002000230024158A05EA74
:103380000103958905EA010413B10CB1012000E0A5
:10339000002030BD10B51AB183890B43838104E04E
:1033A0008389CC43A4B22340838110BD00220288CC
:1033B0001D4B98420ED01D4B98420BD0B0F1804F60
:1033C00008D01B4B984205D01A4B984202D01A4B9A
:1033D000984204D14FF68F731A404B881A43174B0B
:1033E000984207D0164B984204D04FF6FF431A403C
:1033F000CB881A4302808B8883850B8803850A4B10
:1034000098420BD0094B984208D00E4B984205D0F9
:103410000D4B984202D00D4B984201D10B7A038696
:103420000123838270470000002C014000340140DA
:103430000004004000080040000C00400010004064
:103440000014004000400140004401400048014099
:103450007047000008B540F22551364800F04BF99E
:10346000002866D040F22551324800F0CCF83148AF
:1034700000F0FCF93049088008460088C1B22FA04E
:1034800000F000FA2C4801882DA000F0FBF92A4832
:1034900001882D4802880088401C2B4B18802B483F
:1034A00020F8121018460088401E284931F81030C4
:1034B000254800930088431E234802882448018839
:1034C00024A000F0DFF92048008801282ADD1F48E9
:1034D00040881D490988884224DC00201C49088056
:1034E0001949088019480088012806D0022808D008
:1034F00003280AD0042810D10BE023A000F0C2F961
:103500000FE026A000F0BEF90BE029A000F0BAF908
:1035100007E02FA000F0B6F903E031A000F0B2F907
:1035200000BF00BF00BF8021024800F0D7F800288C
:10353000F9D008BD004400401601002025630000BA
:10354000202564200000000014010020A0D70020E6
:10355000120100202020206275665F73746172740E
:10356000203D202564206275665F7461696C203D92
:1035700020256420726563765F6275665B25645DF5
:10358000203D2025640D0A007772697465207068FB
:103590007920746564730D0A000000007772697405
:1035A00065206D65746120746564730D0A00000008
:1035B0007772697465207472616E73647563657285
:1035C000206368616E6E656C20746564730D0A001B
:1035D0006578656375746520636D640D0A0000008D
:1035E00063616E6E6F74207265636F676E697A6572
:1035F0000D0A000001F40072B2F5007F00D100BF97
:10360000CA430280704710B500220023A1F5106460
:103610006A3C00D100BF0A1201249440A3B2DC43EB
:10362000048010BD21B1828942F40052828104E0FD
:1036300082894DF6FF731A408281704700B585B0CC
:1036400001212120FFF720FC01214804FFF70CFC99
:1036500001210820FDF7ACFD2020ADF81000182056
:103660008DF8130003208DF8120004A91948FDF706
:1036700015FD4020ADF8100004208DF81300032044
:103680008DF8120004A91348FDF708FD4FF4E1304E
:1036900000900020ADF80400ADF80600ADF8080079
:1036A000ADF80C000C20ADF80A0069460A4800F09D
:1036B00071F840210848FFF79DFF012240F2255193
:1036C000054800F042F801210348FFF7ABFF05B0C1
:1036D00000BD0000001401400044004002460020EC
:1036E000B1F5007F00D100BF13880B4201D001204B
:1036F00000E00020704770B502460024002300253A
:103700000020A1F510666A3E00D100BFC1F342154A
:1037100001F01F03012606FA03F3012D02D1968959
:10372000334006E0022D02D1168A334001E0968A2A
:1037300033400C12012606FA04F41688344013B103
:103740000CB1012000E0002070BDF0B5034600245C
:10375000002600250020A1F510676A3F00D100BFB8
:103760001846C1F3421401F01F06012707FA06F5B7
:10377000012C01D10C3004E0022C01D1103000E00A
:1037800014301AB107682F43076002E00768AF439F
:103790000760F0BD2DE9F04786B005460E460024CF
:1037A000A24600BFA1460027B08900B100BF2F4646
:1037B0002C8A4CF6FF700440F08804432C82AC89BC
:1037C0004EF6F3100440B0883189084371890843EC
:1037D0000443AC81AC8A4FF6FF400440B0890443F7
:1037E000AC8201A8FFF760FB1F48874202D1DDF8D9
:1037F00010A001E0DDF80CA0A88910F4004F08D05B
:103800000AEBCA0000EB0A1031684900B0FBF1F87E
:1038100007E00AEBCA0000EB0A1031688900B0FB30
:10382000F1F86420B8FBF0F004012009642101FBE9
:103830001089A88910F4004F08D0322000EBC9008D
:10384000B0FBF1F000F00700044308E0322000EB89
:1038500009106421B0FBF1F000F00F0004432C814B
:1038600006B0BDE8F08700000038014001468888B6
:10387000C0F308007047C1F308028280704700BFA0
:10388000FEE700000FB4054B10B503A9044A0298E7
:1038900000F0C2F810BC5DF814FB0000B94F00083E
:1038A0003001002002E008C8121F08C1002AFAD126
:1038B00070477047002001E001C1121F002AFBD1B0
:1038C000704700002DE9FF5FDDE90210020DDDF811
:1038D00038B001430FD10F9801244AA3012807D023
:1038E00000980F9AC0E90031C0E90242BDE8FF9F8D
:1038F0006FEA0B01F4E7A2F2FF3244F610504243A4
:1039000015140F9801280FD0A5EB0B00401C4FF0A9
:1039100000043D4EDFF8F490B0F1000AA046C0F17B
:10392000000717DB074615E0CBF10000EFE7F807CB
:1039300007D02246334640464946FCF7EDFD804617
:1039400089462246334620463146FCF7E5FD0446CB
:103950000E467F10002FEAD1DDE90201BAF1000F17
:1039600042464B4602DAFCF7D7FD01E0FCF745FE84
:1039700004460E460022264BFCF7C6FE03D84FF045
:10398000FF30014607E00022224B20463146FCF77B
:103990001EFDFCF7A1FE102409E0002C0ADB0A2220
:1039A0000023FCF780FC019B30321A55641E50EA5C
:1039B0000102F2D1641C019AC4F1110314440F9A5C
:1039C000012A07D00122084301D15B450DDD002209
:1039D0006D1C0DE0084303D1A3EB0B056D1E09E040
:1039E00000204FF0110B0F908BE701DA00226D1EC3
:1039F000002A86D000980F99C0E90231C0E900453D
:103A000074E7000030000000000024400000F03F98
:103A10000000F0430000E03F2DE9FF4F95B006465F
:103A20009A460F460025F2E1252879D10024761C1C
:103A3000FB4AA046012106943378203B01FA03F0AB
:103A4000104202D00443761CF6E730782A2811D0C1
:103A50006FF02F023078A0F13001092915D80699AE
:103A600044F0020401EB810102EB41010844761CA1
:103A70000690EFE701CF0690002803DA404244F4B5
:103A80000054069044F00204761C30782E2817D19A
:103A900016F8010F44F004042A280ED06FF02F020C
:103AA0003078A0F1300109290AD808EB880102EB2F
:103AB000410100EB0108761CF2E757F8048B761CF5
:103AC00030786C280FD006DC4C2817D068280DD031
:103AD0006A2814D104E0742810D07A280FD10DE0A0
:103AE00044F400140AE044F4801401E044F4401467
:103AF0007178814202D1761C04F58014761C3078EE
:103B0000864666280BD013DC582872D009DC0028C2
:103B100070D04528F6D04628F4D047281AD195E130
:103B200018E0632831D0642874D0652812D18DE163
:103B300070286ED008DC6728F1D069286AD06E281A
:103B40000DD06F2806D1A8E0732827D0752874D02F
:103B5000782873D05246179990476D1C55E1C4F3ED
:103B60000250022806D003280AD0042801CF0AD028
:103B700005604AE101CF4FEAE571C0E9005144E137
:103B800001CF058041E105703FE101CF8DF80000D4
:103B900000208DF80100EB46012003E057F804BB3C
:103BA0004FF0FF3061074FF0000102D40DE009F142
:103BB0000101894641450FDA8145F8DB1BF8091000
:103BC0000029F4D108E009F1010189468142FADBBC
:103BD0001BF809100029F6D106985346A0EB0900FE
:103BE00080462146179A00F094FA284400EB090514
:103BF00006E047E00FE11BF8010B5246179990478A
:103C0000B9F10109F7D2534621464046179AF9E027
:103C100000E039E00A21C4F302524FF0000B00919A
:103C2000022A04D001CFC117032A08D009E0FF1DE2
:103C300027F00707F7E8020107E01CE01DE000B2EB
:103C4000C117042A01D140B2C117002906DA0A4679
:103C50000021404261EB02012D2202E0220504D541
:103C60002B228DF80420012203E0E20701D020225C
:103C7000F7E7914653E00A2110E010204FF0000BC7
:103C800000900EE0102109E010204FF0000B44F0EE
:103C900004044FF00808009003E008214FF0000BE7
:103CA0000091C4F30252022A04D001CF0021032A5A
:103CB00006D007E0FF1D27F00707F7E8020105E03F
:103CC00080B20021042A01D1C0B200214FF00009C6
:103CD000220724D5BEF1700F2AD0009B83F0100379
:103CE00053EA0B0309D150EA010206D030228DF8C5
:103CF00004208DF805E002229146009B83F0080322
:103D000053EA0B030BD150EA010201D1620706D539
:103D100030228DF804204FF00109A8F1010841A2DA
:103D2000BEF1580F00D044A203920FAA02920FE0F6
:103D300040228DF804200122DEE75B46009AFCF762
:103D4000B2FA039B9B5C029AA2F1010202921370E9
:103D500050EA0102F1D1029807A9A1EB000000F19D
:103D6000200B600702D524F4803401E04FF00108F5
:103D7000002041465A46D84501DDA1EB020000EB88
:103D80000B01009006984944A0EB01000690E00367
:103D900006D453462146179A069800F0BAF905440E
:103DA000002008E001A8524610F808001799904733
:103DB0006D1C08F1010080464845F3DBE0030CD59B
:103DC00053462146179A069800F0A3F9054404E0EB
:103DD00030205246179990476D1C0099481E00905C
:103DE0000029F5DC08E00298029952460078491C47
:103DF0000291179990476D1CBBF10001ABF1010BCB
:103E0000F1DC67E100F072F9054406F10106307853
:103E100000287FF409AE19B02846BDE8F08F0000F5
:103E200009280100303132333435363738394142D0
:103E300043444546000000003031323334353637D4
:103E4000383961626364656600000000600701D470
:103E50004FF0060807F1070727F00707A0A1F7E8CA
:103E6000020C0CF000431A0007D19EA1220504D4D5
:103E70009DA1E20701D1AFF2440112912CF0004C58
:103E80007146BEF1650F0ED007DC45290BD04629DF
:103E900020D0BEF1470F3DD13DE066291AD0BEF1DA
:103EA000670F37D137E0002311224146B8F1110FD7
:103EB00000DA4A1CCDE900230246634607A902A89E
:103EC000FFF700FD012000904FF0000B08F1010901
:103ED000039868E04FF000410F910123CDE9008382
:103EE0000246634607A902A8FFF7ECFCDDE904904F
:103EF0004FF0000B20B9039908F1010001EB000914
:103F0000B8EB090003D4C0F1FF3B08F10109A9EBAC
:103F10000800009048E04146B8F1010F01DA0121A4
:103F2000884600231122B8F1110F00DC0A46CDE9C2
:103F300000230246634607A902A8FFF7C3FC4FF01F
:103F4000000BC14620070FD40499414503DA894686
:103F500001E0A9F10109B9F1010F05DD0299A9F10B
:103F60000100085C3028F4D00399414502DA11F1D0
:103F7000040F03DA01200F91009015E0002903DC03
:103F80008B44A9EB010005E0481C484503DD03987C
:103F900000F1010081460399A1EB0B0000F1010043
:103FA00000904FF000400F90200705D4009848453E
:103FB00002DB4FF0FF30009000210F980DF1470811
:103FC0008DF84710B0F1004F26D0022001902B2031
:103FD00013900F9800280CDA40420F902D20139078
:103FE00007E00A210F98FCF748F930310F9008F8E4
:103FF000011D0199481E01900029F2DC0F9800284C
:10400000EFD1A8F1010213991170317801F020016C
:1040100041F0450108F8021D10A9A1EB080000F1CC
:10402000070001901298007800B1012000EB09010F
:10403000009801EBE071019801440698A0EB0100A3
:10404000A0F101000690E00306D453462146179ADA
:10405000069800F05EF805441298007820B15246A8
:104060001799904705F10105E00322D553462146F3
:10407000179A069800F04DF805441AE0BBF1000FBE
:1040800007DB0499594504DD029911F80B001799D3
:1040900001E0179930205246904700986D1C401E51
:1040A0000BF1010B009004D12E2052461799904736
:1040B0006D1CB9F10001A9F10109DFDC05E018F878
:1040C000010B5246179990476D1C0199481E0190AB
:1040D0000029F4DC53462146179A069892E6000020
:1040E0002D0000002B000000200000002DE9F04111
:1040F0000446002517461E46880405D406E03946C6
:104100002020B04705F10105641EF8D52846BDE81A
:10411000F0812DE9F04104460025302790461E46E7
:10412000C80300D42027880405D506E04146384658
:10413000B04705F10105641EF8D52846BDE8F081B9
:1041400070B505460E46242001F03AF8044614B92D
:104150006FF0040070BD257202F050F8606004F149
:104160001701304600F06CF90A48006850B9094858
:10417000046000202060002207494FF4FA6002F03A
:1041800041F804E003480068206002480460002011
:10419000E0E7000024010020B541000802460120AC
:1041A000704702460120704710B5044601F01AFE20
:1041B00010BD000010B5044600F01EF90548006867
:1041C00030B10022AFF213014FF4FA6002F01AF896
:1041D00010BD000024010020F0B502460D46002469
:1041E0002D4E366806B9F0BD2B4E36683668F6B9E6
:1041F000294E3668367A964240D1274E3468274E8B
:1042000036683EB9244E3668244F3E600026224F61
:104210003E6033E0214E36681F4F3F683E601E4EC1
:1042200036681E4F3E6000261B4F3E6026E01A4E49
:10423000336830681FE0067A96421AD10446164E5B
:104240003668B04205D1144E36683668124F3E606B
:1042500001E006681E60114E366826B90F4E3060C8
:104260000026066004E00D4E366806600B4E306096
:1042700003E0034600680028DDD100BF4CB10021F7
:1042800005E06F5C04F1090677544E1CF1B20E296B
:10429000F7DB00BFA7E70000240100202801002071
:1042A00070B511480478114800EBE400007804F080
:1042B00007020121914008430C4901EBE401087019
:1042C00009480078401CC5B208E0284602F066F8AC
:1042D00010B90548057003E0681CC5B2202DF4DD57
:1042E00000BF204670BD00001E0100201F010020FD
:1042F00010B5C82001F0ECFE1449086008460068BB
:1043000010B913A0FFF7BEFAC82001F0E1FE1E4964
:1043100008600846006810B91CA0FFF7B3FAC8206F
:1043200001F0D6FE254908600846006810B924A0AF
:10433000FFF7A8FAFEF7ECFF13480168034800688E
:10434000FEF7B4FF00F052FE10BD00000C0000208C
:104350006170705F696E697428293A6572726F7254
:104360002C73747265616D696E675F646174615FFF
:10437000726563765F6D626F78206973204E554C6D
:104380004C2E0D0A00000000100000206170705FCC
:10439000696E697428293A6572726F722C636D6454
:1043A0005F7265706C795F726563765F6D626F785E
:1043B000206973204E554C4C2E0D0A00140000202D
:1043C0006170705F696E697428293A6572726F72E4
:1043D0002C7570636F6D70757465725F636D645F6B
:1043E000726563765F6D626F78206973204E554CFD
:1043F0004C2E0D0A000000002DE9F0410F48046822
:1044000018E001F0FBFE05466068A84202D860682B
:104410002F1A03E06068C0F1FF30471940F6B8304A
:10442000874206D9267A304600F02CF8304600F054
:1044300011F82468002CE4D1BDE8F08124010020AB
:104440000246002003E0135C0B54431CD8B20A2838
:10445000F9DB704709490978814201DB0749087097
:10446000074901EBE001097800F0070301229A40B7
:104470009143034A02EBE002117070471E010020D5
:104480001F01002070B505461448006800B970BDD2
:1044900012480068006860B910480068007AA842B5
:1044A00019D10E48006800F00FFF00200B4908608A
:1044B00011E00A480668006804680AE0207AA84209
:1044C00005D120683060204600F0FEFEDFE726467A
:1044D0002468002CF2D100BFD9E70000240100209D
:1044E0002DE9F04F87B080468448006850B984A019
:1044F000FFF7C8F9404601F058F96FF0030007B024
:10450000BDE8F08FD8F8044020788710062F0FD030
:1045100077B1042F0CD0052F0AD088A0FFF7B2F98D
:10452000404601F042F901F076FC6FF00200E6E748
:1045300060780121B1EB201F0AD090A0FFF7A2F90B
:10454000404601F032F901F066FC6FF00200D6E758
:104550006088000A6188C9B240EA012606EBD6717C
:104560004910B6EB410101D1B14602E0701C1FFABF
:1045700080F9B8F8080048450EDA8FA0FFF782F9F5
:10458000B8F80820494697A0FFF77CF9404601F0AB
:104590000CF96FF00200B2E704EB0900801E0290F4
:1045A00002980088A0F57F41FF390DD0494620468A
:1045B00000F018FD40B197A0FFF764F9404601F004
:1045C000F4F86FF002009AE74946404601F058F9C6
:1045D000A11D201DFFF7E2FD40B996A0FFF752F99B
:1045E000404601F0E2F86FF0020088E700200490F6
:1045F00001200390A088000AA188C9B240EA0120E6
:104600004FEA202AA088000AA18840EA0120C0B20F
:104610000690E088000AE188C9B240EA01204FEA2A
:10462000202BE088000AE18840EA0120C0B2059012
:104630006FF00901404601F0EEF840B185A0FFF7A8
:1046400021F9404601F0B1F86FF0020057E75846F3
:1046500000F0E1FCF8B1294805680EE0E86858B1BF
:1046600000200390DDE90523CDE9003253464246A0
:104670002946D5E903C0E0472D68002DEED1039807
:1046800038B17DA0FFF7FEF8404601F08EF8E81E35
:1046900035E7002033E71948056809E0687958458F
:1046A00005D1A879504502D10120049002E02D687F
:1046B000002DF3D100BF049840B976A0FFF7E2F8CF
:1046C000404601F072F86FF0020018E7E86858B150
:1046D000DDE90523CDE90032534642462946D5E9B6
:1046E00003C0E04700200AE770A0FFF7CBF8404680
:1046F00001F05BF86FF0020001E70000BC00002051
:1047000064705F696E70757428293A2064656C6501
:1047100074652064702064617461206265636175F2
:104720007365207468652064705F706362206973CC
:10473000204E554C4C2E0D0A0000000064705F693D
:104740006E70757428293A206470207061636B65FF
:10475000742064726F707065642064756520746F76
:10476000206261642070726F746F636F6C20696483
:10477000656E7469666965722E0D0A0064705F6902
:104780006E70757428293A6470207061636B65746B
:104790002064726F707065642064756520746F208A
:1047A0006261642070726F746F636F6C20766572E3
:1047B00073696F6E2E0D0A0064705F696E70757498
:1047C00028293A6470207061636B657420697320D6
:1047D0006C6F6E676572207468616E2070627566BA
:1047E0002E0D0A0064705F696E70757428293A6432
:1047F000705F646174615F7061645F6C656E3D25BC
:10480000642C702D3E746F745F6C656E3D25642E54
:104810000D0A000064705F696E70757428293A6330
:104820006865636B73756D206661696C65642E0ADB
:104830000000000064705F696E70757428293A6426
:10484000702061646472657373206572726F722E7A
:104850000A00000064705F696E70757428293A70F0
:1048600062756620686561646572206661696C6561
:10487000642E0D0A0000000064705F696E7075742C
:1048800028293A2064656C65746520706275662E0F
:104890000D0A000064705F696E70757428293A20F3
:1048A0006865726531330D0A0000000064705F694D
:1048B0006E70757428293A206865726531342E0D42
:1048C0000A000000012070472DE9F05F80468B460A
:1048D0001546284600F0FCF808B9BDE8F09FD5F869
:1048E0000490686800F111042078012802DB207828
:1048F0000E2826DD14F8041D32A0FEF7C3FF6178F0
:1049000030A0FEF7BFFFA1782EA0FEF7BBFFE27834
:10491000217930A0FEF7B6FF617937A0FEF7B2FF2C
:10492000A17935A0FEF7AEFFE17904F1040432A0CD
:10493000FEF7A8FF34A0FEF7A5FF284600F035FFDC
:10494000CBE72078022804D0042818D00C282ED1D8
:1049500026E0686800F11107FFF7A2FC8246791C87
:104960005046FFF7EDFB00B125E07A1C514640466A
:1049700001F0CEF910B133A0FEF784FF1BE06868A8
:1049800000F11206307800F039FB20B931783AA0F6
:10499000FEF778FF0FE03078711CFFF71DFC0AE08E
:1049A0004048807910B901203E49887103E03EA05B
:1049B000FEF768FF00BF00BF284600F0F6FE00BF0C
:1049C0008BE70000707265762069732025642E0DD8
:1049D0000A0000006572726F72206D736720636F4A
:1049E00064652069732025642C7072657620697374
:1049F0002025642E0D0A00006166746572206973BB
:104A00002025642E0D0A00006574686263705F697A
:104A10006E70757428293A696E636F72726563747B
:104A200020627573206D616E6167656D656E7420BF
:104A30006D6573736167657320636F64652E0D0A1E
:104A4000000000006574686263705F696E70757461
:104A500028293A5442432073656E64206173736958
:104A6000676E20616C696173206D73672066616990
:104A70006C65642E0D0A00006574686263705F697E
:104A80006E70757428293A4552524F5228756E6BD4
:104A90006E6F776E20616C696173202564292E0D1D
:104AA0000A000000C80000206574686263705F69D6
:104AB0006E70757428293A696E636F7272656374DB
:104AC0002062637020747970652E0D0A000000006A
:104AD00070B505466C68A08918B9E07B08B9207CE0
:104AE00060B1FFF7EFFE48B905A0FEF7CBFE284600
:104AF00000F05BFE01F08EF9002070BD0120FCE7A4
:104B00006574686263705F696E7075745F63686511
:104B1000636B28293A696E636F72726563742064EF
:104B2000617461206672616D652E0A002DE9F0479F
:104B300007460E46914698460E21304600F06BFE21
:104B400090B100220E21032000F04AFD054635B940
:104B500019A0FEF797FE6FF00100BDE8F08731461F
:104B6000284600F017FE00E035466C6840202070B3
:104B700084F801900020A070E070207160714020E6
:104B8000A071397DE171002121726172A172E1721F
:104B900008F0FF004FEA182141EA0020A0812946D1
:104BA0003846FA6890478246B54203D0284600F05E
:104BB000FCFD00245046D0E7706275665F68656151
:104BC00064657228293A636F756C64206E6F742077
:104BD000616C6C6F6361746520726F6F6D20666FBE
:104BE00072206865616465722E0D0A0008B50121A6
:104BF0004FF4E030FEF718F901217D20FEF744F96B
:104C00000420ADF8000003208DF8020018208DF874
:104C1000030069463548FCF741FA0620ADF800006C
:104C200003208DF8020018208DF8030069463048F3
:104C3000FCF734FA43F62010ADF8000003208DF89D
:104C4000020018208DF8030069462A48FCF726FA6E
:104C500001214FF02010FCF7ABFA0B20ADF800005B
:104C600003208DF8020004208DF8030069461F48D8
:104C7000FCF714FA4FF48060ADF8000003208DF8C3
:104C8000020004208DF8030069461A48FCF706FA72
:104C90000820ADF8000003208DF8020004208DF8F4
:104CA000030069461248FCF7F9F94FF4F850ADF8E3
:104CB000000003208DF8020004208DF803006946EF
:104CC0000D48FCF7EBF94FF48070ADF800000320BD
:104CD0008DF8020018208DF8030069460348FCF7A0
:104CE000DDF9FCF785F9FCF7B0FA08BD00080140D2
:104CF00000100140000C0140001401402DE9F0417A
:104D000004460D4660890E2808DC34A0FEF7BAFD83
:104D1000204600F04AFD0020BDE8F0816668B089B9
:104D2000000AB189C9B240EA0127B7F5006F24D063
:104D3000A7F50060023806D004280BD0A0F5F0409B
:104D4000FE3840D129E0224605F119012846FFF737
:104D5000BBFD3FE06FF00D01204600F05CFD38B177
:104D60002BA0FEF78FFD204600F01FFD002403E07E
:104D700029462046FFF7B4FB2CE06FF00D012046DA
:104D800000F049FD20B1204600F00FFD002403E0B3
:104D90002946204600F032FE1CE028A0FEF772FDF6
:104DA0006FF00D01204600F036FD20B1204600F0E6
:104DB000FCFC002406E02BA0FEF764FD29462046FB
:104DC00001F0FAFA06E031A0FEF75CFD204600F0A3
:104DD000ECFC00BF00BF00209EE700006574686522
:104DE000726E65745F696E70757428293A746865AF
:104DF0002065746865726E6574206672616D6520E9
:104E0000697320746F6F20736D616C6C2E0A0000E3
:104E100065746865726E65745F696E707574282953
:104E20003A62616420647020646174612064656C1E
:104E30006574652069742E0D0A000000657468654C
:104E4000726E65745F696E70757428293A6765744F
:104E5000207470207479706520646174612C0D0A6F
:104E60000000000065746865726E65745F696E703D
:104E7000757428293A6765742072696768742074AC
:104E80007020646174612C0D0A000000657468650F
:104E9000726E65745F696E70757428293A696E6305
:104EA0006F72726563742065746865726E657420D4
:104EB000747970652E0D0A0070B5044600BF14B9F0
:104EC0000FA0FEF7DFFC00BF042000F079F90546D3
:104ED00015B96FF0040070BD2561682084F82000CA
:104EE0007721212001551048A0601048E06004F1AE
:104EF00019002860204600F0A3F80020EBE700002E
:104F000065746865726E657469665F696E69742838
:104F1000293A6572726F722C6E657469663D3D4EFA
:104F2000554C4C0A000000002D4B00082151000890
:104F30002DE9F0410446FBF727F90746204600F02B
:104F4000BBF806463846FBF723F91EB96FF004009C
:104F5000BDE8F0812146304662689047054635B18C
:104F600004A0FEF78FFC304600F01FFC0026284608
:104F7000EEE7000065746865726E657469665F6966
:104F80006E70757428293A696E7075742065727236
:104F90006F722E0D0A00000002460648016805E007
:104FA000087A904201D10846704709680029F7D174
:104FB0000020F9E72401002070B504460D46E1B257
:104FC0000548FEF758FC00BF40210348FEF786FB6A
:104FD0000028F9D0204670BD0044004010B5FFF70E
:104FE00005FE10BD02460020704700000020024967
:104FF0004870887008707047E80F002070B504464C
:1050000000252046FFF7C8FF05460DB1012000E04E
:105010000020C0B270BD014609B9012000E00020A7
:10502000C0B27047014609B9012000E00020C0B2BB
:105030007047014609B9012000E00020C0B2704766
:1050400070B5054606202876002406E01548015D67
:1050500005F119000155601CC4B2062CF6DB40F2C4
:10506000DC50E882FBF790F8064602220E490F4812
:10507000FBF76AFC04220E490E48FBF71DFC0024D6
:1050800007E00C4901EB04100121FBF73FFC601C19
:10509000C4B2042CF5DB3046FBF77AF8FBF7E2FEEE
:1050A00070BD0000CF0000200C3900202C21002012
:1050B0004C210020EC2000202DE9FE4381460026F3
:1050C00000256846FBF776FE009887B2DDF804807D
:1050D00003223946104600F083FA054665B12C4696
:1050E00008E0628908EB06016068FBF7B4F86089A4
:1050F00006442468002CF4D14FF000400299086067
:105100000648406910F0800F04D0802003494861B0
:10511000002088602846BDE8FE8300000090024021
:105120002DE9F04781460E4600250027FBF72CF8B5
:105130008046FBF74DFC0746344607E06289781944
:105140006168FBF788F8608905442468002CF5D174
:10515000A8B2FBF7E9FE4046FBF71AF80020BDE8CD
:10516000F087000000B587B09DF818000690FBF7A7
:105170005DF8FCF7BFF90323002240210B48CDE97D
:105180000323CDE90101012300F1FC0200210848BD
:105190000093FCF715FE069006AA06A10120FCF775
:1051A00079FEFCF769FD002007B000BD3401002046
:1051B0003F0800085374617274205461736B0000DF
:1051C0002DE9F047054615B90020BDE8F087E81C39
:1051D00020F003050C2D00D20C25B5F5205F01D978
:1051E0000020F2E700213448006800F029FF33482E
:1051F000006833490968461A53E031480068841949
:10520000207A00284AD106F10C002168081AA84229
:1052100044D306F10C002168091A05F118008142F7
:105220001BD306F10C0000EB05092548006800EBD4
:10523000090700203872206838607E60C4F800904A
:10524000012020723868B0F5205F08D01C4938680A
:1052500009680844C0F8049001E001202072174852
:105260000068844213D11548D0F8008005E0144945
:10527000D8F80000096800EB010898F8080018B198
:10528000104800688045F2D10C48C0F800800A48F8
:10529000006800F06BFF04F10C0096E70848006816
:1052A0008659C5F52050B042A7D80348006800F0E1
:1052B0005DFF002089E70000E8000020E4000020F6
:1052C000DC000020E000002070B5044604B970BD89
:1052D00010480068844203D30F480068844200D31A
:1052E000F5E700210D48006800F0AAFEA4F10C05C6
:1052F000002028720A480068854201D208480560EB
:10530000284600F0FDFA0548006800F02FFF00BFB6
:10531000DDE70000DC000020E0000020E8000020C5
:10532000E400002010B5144820F003001349086081
:10533000084604684FF4205020600020606020720E
:105340000846006800F520500D49086001200968F2
:1053500008724FF420500A49096808600849096832
:1053600048600648006807490860012000F0F6FE22
:105370000549086010BD0000EF440020DC0000205B
:10538000E0000020E4000020E80000202DE9F047C4
:1053900081460D46E81C20F003050C2D00D20C259B
:1053A000B5F5205F02D90020BDE8F08736480068D7
:1053B000814503D335480068814501D34846F3E76A
:1053C000A9F10C0730480068A7EB00083868A0EB8B
:1053D0000800A0F10C0A554501D90020E4E7554525
:1053E00001D14846E0E700212948006800F028FE86
:1053F0002549386809684418207AF8B9206808F106
:105400000C014E1923490968A14204D11E490968BB
:105410003144204A11601C4909688C19002121720D
:105420002060C4F804803E602168B1F5205F04D09C
:10543000154A2168126811444E601FE005F11800FA
:1054400050451BD808F10C0046190F480068841914
:1054500010480068844201D20E4804600020207287
:1054600038682060C4F804803E602068B0F5205F92
:1054700004D005492068096808444660044800686B
:1054800000F074FE48468FE7DC000020E0000020BA
:10549000E8000020E400002070B50546FAF774FE2D
:1054A0000646074850F8254024B10549206841F8D0
:1054B000250000BF3046FAF76BFE204670BD0000A5
:1054C000086D00202DE9F04104460D460DB9BDE8F8
:1054D000F0812E46FAF758FE0746064850F8240099
:1054E0003060044840F824603846FAF751FE00BFA7
:1054F000EDE70000086D002010B5114B23F003010B
:10550000002019E000230F4C44F8203000220CE06A
:105510000C4B53F820300B600A4B43F820100A4B19
:1055200033F810301944531C9AB2084B33F810303A
:105530009342EDDC431C98B20C28E3DB10BD000065
:105540003B6D0020086D0020A4670008BC670008C0
:105550002DE9F04104460E4617461D46DDF8188039
:1055600000BF15B90FA0FEF78DF900BF0020E0774E
:10557000267527611448007884F8220012480078C4
:10558000401C11490870C4F804802046A84710B197
:105590000020BDE8F0810D48006820600B480460E1
:1055A0002046F6E76E657469665F61646428293A8F
:1055B0006E6F20696E69742066756E6374696F6EB4
:1055C00020676976656E0A00F4000020EC00002078
:1055D000704700000149086070470000F00000209B
:1055E0002DE9F05F83460E469046BBF1000F09D0CF
:1055F000BBF1010F08D0BBF1020F07D0BBF1030FC5
:1056000008D105E0182708E0182706E00E2704E077
:10561000002702E00020BDE8F09F00BFB8F1000FB6
:105620005DD0B8F1010F79D0B8F1020F77D0B8F1A1
:10563000030F72D10B20FFF72FFF04460CB9002097
:10564000E9E784F80C800020206004F11000384461
:10565000C01C20F0030060602681F81C20F00300CD
:10566000C0F18400B04201DD304604E0F81C20F0B7
:105670000300C0F1840060810120E081A2466089BE
:10568000A6EB000927E00B20FFF706FF05463DB912
:105690002FA0FEF7F7F8284600F087F80020BAE7B9
:1056A00085F80C80002068732860CAF80050A5F8BF
:1056B00008901FFA89F0842802DA1FFA89F000E0C6
:1056C0008420688105F1100068600120E881688904
:1056D000A9EB0009AA46B9F1000FD4DC30E007F1CC
:1056E000130121F00302F11C21F003015018FFF710
:1056F00067FD04460CB900208DE704F11000384422
:10570000C01C20F0030060602681668100202060BC
:1057100084F80C8014E001E001E00FE000BF0A20F3
:10572000FFF7BAFE04460CB9002074E70020606061
:1057300026816681206084F80C8001E000206AE701
:1057400000BF0120E08100206073204663E7000075
:10575000706275665F616C6C6F6328293A207062B5
:1057600075662071206973204E554C4C2E0D0A0031
:1057700010B50246104604E003890C8923440381D6
:1057800000680368002BF7D103890C892344038147
:10579000016010BD70B505460C4621462846FFF74E
:1057A000E7FF204600F09EF870BD2DE9F047044663
:1057B00014B90020BDE8F087002628E0FAF7E4FCE1
:1057C0008146E089401E80B2E08180464846FAF773
:1057D000DFFCB8F1000F18D12768257B032D04D119
:1057E00021460B20FFF76EFE0BE0012D01D0022DAC
:1057F00004D121460A20FFF765FE02E02046FFF7AC
:1058000063FD701CC6B23C4600E0002400BF002CC3
:10581000D4D13046CEE770B5024602B109B90020B6
:1058200070BD002902DA484284B200E08CB2137BDA
:1058300055680BB1032B0AD15068401A506002F131
:1058400010005668864213D255600120E8E7022B0B
:1058500001D0012B0AD1002906DA5089A04203DBCE
:105860005068401A506003E00120D9E70120D7E7D3
:105870005089084450811089084410810020CFE7E6
:105880002DE9F04106460F463089B84201DCBDE8FB
:10589000F0813089A7EB00083D46344606E0608978
:1058A000281A85B220894044208124686089A84252
:1058B000F5DB207B50B96089A84207D06068001BE7
:1058C00080B241192046FFF761FD04466581608979
:1058D0002081206810B12068FFF767FF002020605A
:1058E00000BFD4E770B5044644B1FAF74DFC054655
:1058F000E089401CE0812846FAF74AFC70BD0000B0
:1059000030B51A4C036824681919884215D00B7AEF
:105910009BB9174B1B6899420FD0164B1B688B42E3
:1059200001D1144B18600B680360104B1B68C31A3D
:105930000E4D0C682D682C4463600C4C4368246841
:105940001A19904211D0137A7BB90A4B1B68834213
:1059500001D1084B1A6003681360044B1B68D31A0B
:10596000024D04682D682C44636030BDDC000020CB
:10597000E0000020E40000201FB513A103C9CDE919
:105980000101002000F0EAFB039003A9104800F099
:1059900045FA0021039800F053FB039800F0D6FB72
:1059A00001A800F025FA0B4B00930B4B0022114687
:1059B0000A48FFF7CDFD0948FFF70CFEFDF73EFE54
:1059C000FBF756FC1FBD000040FF00000000000078
:1059D000695E0008795E0008B94E00087CD7002097
:1059E00010B500F063FBFFF79DFCFFF785FDFFF7A7
:1059F000EFFDFDF727FC00F051FC10BD2DE9F04F45
:105A000087B080467E48006838B94046FFF7CDFE33
:105A10006FF0030007B0BDE8F08FD8F8044020789D
:105A20008710062F0FD077B1042F0CD0052F0AD086
:105A30007448FDF727FF4046FFF7B7FE00F0ECF98A
:105A40006FF00200E6E760780121B1EB201F0AD079
:105A50006DA0FDF717FF4046FFF7A7FE00F0DCF949
:105A60006FF00200D6E76088000A6188C9B240EA98
:105A7000012606EBD6714910B6EB410101D1B146C2
:105A800002E0701C1FFA80F9B8F8080048450EDAE9
:105A90006DA0FDF7F7FEB8F80820494676A0FDF79F
:105AA000F1FE4046FFF781FE6FF00200B2E704EB23
:105AB0000900801E029002980088A0F57F41FF39FE
:105AC0000DD049462046FFF78DFA40B177A0FDF78B
:105AD000D9FE4046FFF769FE6FF002009AE749469B
