:020000040800F2
:1000000030D6002065010008ED0D0008BB0D00088A
:10001000E90D0008C1030008953600080000000043
:10002000000000000000000000000000ED2D0008AE
:10003000C503000800000000CB010008F92E0008ED
:100040007F0100087F0100087F0100087F01000890
:100050007F0100087F0100087F0100087F01000880
:100060007F0100087F0100087F0100087F01000870
:100070007F0100087F0100087F0100087F01000860
:100080007F0100087F0100087F0100087F01000850
:100090007F0100087F0100087F0100087F01000840
:1000A0007F0100087F0100087F0100087F01000830
:1000B0007F0100087F0100087F0100087F01000820
:1000C0007F0100087F0100087F0100087F01000810
:1000D0007F010008793400087F0100087F010008D3
:1000E0007F0100087F0100087F0100080000000078
:1000F0000000000000000000000000000000000000
:100100000000000000000000E93200087F01000844
:100110007F0100087F0100087F0100087F010008BF
:100120007F0100087F0100087F0100087F010008AF
:100130007F010008A90500087F0100087F01000871
:100140007F0100087F0100087F0100087F0100088F
:10015000DFF80CD000F0CEF80048004759500008F6
:1001600030D600200648804706480047FEE7FEE7F5
:10017000FEE7FEE7FEE7FEE7FEE7FEE7FEE7FEE757
:10018000212F000851010008EFF3108072B670476C
:1001900080F3108870471D484FF0FF010170002068
:1001A00080F309881A48012101701A484FF08051E4
:1001B000016062B6FEE717484FF08051016070475A
:1001C00014484FF080510160704772B6EFF3098018
:1001D00028B1203880E8F00F0F490968086000B5A1
:1001E0000E4880475DF804EB0D480E490A7802700E
:1001F00009480D490A680260106890E8F00F203045
:1002000080F309884EF0040E62B6704722ED00E0DC
:10021000A200002004ED00E0A8000020691E0008F4
:100220009700002098000020B000002072B67047B0
:1002300062B67047EFF3108072B6704780F3108893
:100240007047B0FA80F0704790FAA0F0704730BF66
:10025000704720BF704700000649074A08685043AE
:1002600043F23902104408604008704701490860B1
:1002700070470000EC0100206D4EC64140EA0103CA
:100280009B0703D009E008C9121F08C0042AFAD24C
:1002900003E011F8013B00F8013B521EF9D2704710
:1002A000D2B201E000F8012B491EFBD270470022B8
:1002B000F6E710B504460846114602462046FFF709
:1002C000EFFF204610BD30B50B460146002020222E
:1002D000012409E021FA02F59D4205D303FA02F553
:1002E000491B04FA02F52844151EA2F10102F1DCB3
:1002F00030BD0000064C074D06E0E06840F0010309
:1003000094E8070098471034AC42F6D3FFF724FF77
:10031000307700085077000870B501EB020410F840
:10032000015B15F0070301D110F8013B2A1106D13A
:1003300010F8012B03E010F8016B01F8016B5B1E54
:10034000F9D12B0705D40023521E0FD401F8013B2D
:10035000FAE710F8013B02F10202A1EB030303E00C
:1003600013F8015B01F8015B521EF9D5A142D6D307
:10037000002070BD10B500BF0623034A00210348CA
:1003800001F06EFB044610BDF00600204D7300081E
:10039000704710B5FFF7EEFF10BD7047704701F0D2
:1003A000C9FF01F031FBFFF7F4FF00BF00231A463D
:1003B0000121184601F09CFDF8E77047704770472F
:1003C00000BFFEE770470000014948617047000028
:1003D0000090024029B1064AD2690243044BDA6117
:1003E00004E0034AD2698243014BDA61704700009E
:1003F0000090024030B10749896941F00201054A85
:10040000916105E00349896921F00201014A916186
:10041000704700000090024030B50C4613460021A2
:10042000104D286000BF18E000EB01124FF00045AE
:10043000156044F2F0555560C1EB411505EB81158F
:1004400004EB051595605D1E8D4204D900EB011586
:100450001035D56000E0D060491C9942E4D3024DCC
:10046000E86030BD580000200090024021B1426891
:1004700022F00042426003E0426842F000424260E3
:100480007047000030B10749896941F40051054ABD
:10049000916105E00349896921F40051014A9161A4
:1004A000704700000090024030B50C461346002112
:1004B0000F4D286000BF15E000EB01124FF48015CE
:1004C0001560C1EB411505EB811504EB0515956031
:1004D0005D1E8D4204D900EB01151035D56000E09A
:1004E000D060491C9942E7D3024D286130BD00001D
:1004F000540000200090024010B50121880302F052
:1005000047FB00214FF4804002F042FB10BD002168
:10051000014600E0491E0029FCD17047034880696C
:1005200040F480100149886170470000009002404B
:100530000148006880687047540000200146086840
:10054000C0F30D407047000000B500220F4800685E
:10055000006810F0004F16D10C480068006810F4D5
:10056000004F10D109480068006810F4807F0AD05D
:1005700006480068006810F4007F04D00348006853
:10058000FFF7DCFF0246104600BD000058000020C7
:1005900000200449096811F0010F01D0012000E09A
:1005A000002070470090024010B5FFF7EDFD0446B3
:1005B0000C480078401C0B4908702046FFF7E8FD06
:1005C00002E0094804F0F0FAFFF7BEFF0028F8D176
:1005D0004020FFF7F9FE4FF48030FFF7F5FE00F002
:1005E0007FFD10BD9500002008CE00202DE9F047CA
:1005F00086B0044688464FF000090025AA46854F7C
:1006000000268548056925F01C0501A802F0F0FACE
:10061000029F8248874205D38148874202D245F033
:10062000080509E07E48874205D37A48874202D20E
:1006300045F00C0500E000BF774805614FF400422B
:100640000021404600F054FA18B9002006B0BDE879
:10065000F0877448FFF75BFF2068002844D000BF94
:10066000761C0121404600F025F910F0040F02D15C
:100670006D488642F4D36C48864201D10020E5E7FC
:1006800000264FF480520021404600F031FA08B9AC
:100690000020DBE700BF761C0121404600F00AF98C
:1006A00010F0200F02D160488642F4D35E488642A3
:1006B00001D10020CAE700261021404600F0FAF8D8
:1006C000814619F0040F03D04FF40060206201E06E
:1006D0000020206219F0020F02D00020606116E0B5
:1006E0004FF48040606112E0206AC0F3CF0061697E
:1006F000C1F34F0140EA01020021404600F0F8F941
:1007000008B90020A2E76FF07F40FFF700FF4248E2
:10071000056846480540D4E901010843E1680843FB
:100720002169084361690843A1690843E1690843F5
:10073000216A0843616A0843A16A0843E16A0843E1
:10074000216B0843616B0843054333480560D4E9D6
:100750000E010843216C0843616C0843A16C0843F7
:10076000E16C0843216D0843616D08432A494860E4
:10077000A06D8860E06DC860084685694FF64170DD
:100780000540D4E9181040EA0140A16E0843E16E2B
:100790000843216F0843616F084305431E48856184
:1007A000D4E91E0108431C49C861214885692148D4
:1007B0000540D4E920010843D4F888100843D4F850
:1007C0008C100843D4F890100843D4F894100843D0
:1007D000D4F898100843D4F89C100843D4F8A0101B
:1007E0000843054312488561D4E929010843D4F838
:1007F000AC100843D4F8B0100843D4F8B41040EA61
:100800008100D4F8B810084340F40000084908609B
:1008100001201BE70087930300800240002D310177
:10082000C00E1602FFFF0F00FFFF04000F8120FF24
:1008300000900240233FDEF810B50B794C7943EA73
:100840000422094B03441A64CB781B068C7843EAD4
:1008500004434C7843EA04230C7843EA0402024B35
:1008600003445A6410BD00000080024030B10749C3
:10087000096841F00401054A116005E0034909686F
:1008800021F00401014A116070470000008002401D
:1008900030B10749096841F00801054A116005E0D7
:1008A0000349096821F00801014A116070470000FE
:1008B0000080024010B503460C4600210022134878
:1008C000016901F01C014FF4784000EAC3200143A4
:1008D0004FF4F86000EA8410014321F0020141F076
:1008E00001010A48016100BF521C0848016911F06A
:1008F000010F02D006488242F6D30548824201D158
:10090000002010BD0148406980B2FAE70080024033
:10091000FFFF04001EB50021002200920192029206
:10092000214A1268126812F0004F10D00022009283
:100930001E4A526912F0800F04D080221B4B5A616C
:1009400000229A609DE81C0080E81C001EBD164A2B
:100950001268126812F4004F16D1134A1268126816
:1009600012F4807F10D0104A1268126812F4007FCF
:100970000AD00D4A12681268C2F30D42111F0A4ACA
:1009800012689268019200E000210091064A126804
:100990000292054A1268D268034B1A609DE81C0057
:1009A00080E81C0000BFD1E7580000200090024002
:1009B0000348006840F001000149086070470000EA
:1009C0000090024000B50120FFF762FFFFF7A6FD8F
:1009D0000120FFF74BFF0120FFF754FD0120FFF737
:1009E00009FD00BD0021016041608160C1600161BD
:1009F00041618161C161016241628162C1620163E1
:100A000041638163C163402101642021416400216D
:100A10008164C164016541658165C16501668021AC
:100A2000416600218166C166016741678167C167D0
:100A30004FF08061C0F880104910C0F88410491050
:100A4000C0F88810C910C0F88C100021C0F89010B0
:100A5000C0F89410C0F89810C0F89C10C0F8A0100E
:100A60004FF00071C0F8A4100021C0F8A8104FF496
:100A70000031C0F8AC104912C0F8B0100021C0F825
:100A8000B410C0F8B81070470146174800680068F5
:100A900010F0004F01D000207047C1F30C00124A43
:100AA0001268506010480068006840F040500E4ADC
:100AB000126810600C480068006840F000400A4A64
:100AC000126810600948406910F0040F04D0042037
:100AD000064A50610020506003480068C068024A1E
:100AE00010600120D8E70000540000200090024070
:100AF00030B503460C461546002100221248016914
:100B000001F01C014FF4784000EAC32001434FF488
:100B1000F86000EA8410014341F0020141F0010154
:100B200009484561016100BF521C0748016911F085
:100B3000010F02D005488242F6D30448824201D117
:100B4000002030BD0120FCE700800240FFFF0400D0
:100B500000B5AFB0012000F04BF84FF4004002F0B8
:100B600039F9012002F030F900BF3D2002F008F908
:100B70000028FAD00B2002F021F9FFF7BDFCFFF7A7
:100B800017FF00BFFFF704FD0128FBD06846FFF701
:100B900029FF01200090002007904FF400700A9078
:100BA00000200B900E9011901390149015902090AF
:100BB0004FF0007021900011239000202590269086
:100BC00004202890C005299040122A9080012B9083
:100BD00040122C9040002E9001216846FFF706FD40
:100BE00001210248FFF7F6FB2FB000BD40000100D5
:100BF0000149086070470000DC0020422DE9F04107
:100C0000024600250026002000230024002791F83A
:100C100003C00CF00F0591F803C01CF0100F03D0B7
:100C200091F802C04CEA0505B1F800C01CF0FF0FB6
:100C300031D0146800202BE04FF0010C0CFA00F3C7
:100C4000B1F800C00CEA03069E4220D183004FF0A9
:100C50000F0C0CFA03F7BC4305FA03FC4CEA04043E
:100C600091F803C0BCF1280F06D14FF0010C0CFA2B
:100C700000FCC2F814C00AE091F803C0BCF1480FB0
:100C800005D14FF0010C0CFA00FCC2F810C0401C5A
:100C90000828D1D31460B1F800C0BCF1FF0F34DDD7
:100CA000546800202EE000F1080C4FF0010808FA0B
:100CB0000CF3B1F800C00CEA03069E4221D1830078
:100CC0004FF00F0C0CFA03F7BC4305FA03FC4CEA97
:100CD000040491F803C0BCF1280F05D100F1080C01
:100CE00008FA0CF8C2F8148091F803C0BCF1480F60
:100CF00007D100F1080C4FF0010808FA0CF8C2F80F
:100D00001080401C0828CED35460BDE8F08100005C
:100D1000F0B50A46002300240021002500F000461B
:100D2000B6F1004F02D11D4EF16901E01B4E716812
:100D3000C0F3034583B200F44016B6F5401F08D156
:100D400021F07061154E766826F07066134F7E6054
:100D500012E000F48016B6F5801F06D1032606FACD
:100D600005F4A14341F0706106E0460D360103FA37
:100D700006F6B14341F0706122B1460D360103FA27
:100D800006F6314300F00046B6F1004F02D1034EA3
:100D9000F16101E0014E7160F0BD00000000014012
:100DA0000246002093680B4201D0012000E00020A1
:100DB0007047416170470161704700BFFEE7000066
:100DC00010B54FF400510248FFF7F5FF10BD0000C9
:100DD0000014014010B54FF400510248FFF7E9FF3D
:100DE00010BD00000014014000BFFEE7704708B5C9
:100DF0004FF4C06000F064F83D208DF80000012041
:100E00008DF801008DF802008DF80300684600F0AF
:100E100015F808BD08B54FF4A06000F051F8322075
:100E20008DF8000001208DF801008DF802008DF88A
:100E30000300684600F002F808BD000070B500210C
:100E400000230F22C4784CB31A4C246804F4E064E5
:100E5000C4F5E0644FEA1421C1F1040322FA01F25F
:100E6000447804FA03F1847804EA020444EA0101B4
:100E70004FEA0111104C0678A155047804F01F05C3
:100E80004FF0010404FA05F405784FEA65154FF0B8
:100E9000E02606EB8505C5F8004109E0047804F07A
:100EA0001F050124AC40054D0678761145F8264013
:100EB00070BD00000CED00E000E400E080E100E027
:100EC00002490143024A1160704700000000FA0520
:100ED0000CED00E01D481E481E481F481F482048D2
:100EE00020482148214822482248234823482448B2
:100EF0002448254825482648264827482748284882
:100F00002848294829482A482A482B482B482C4851
:100F10002C482D482D482E482E482F482F48304821
:100F200030483148314832483248334833483448F1
:100F300034483548354836483648374837483848C1
:100F400038483948394800BF7047000044750008E8
:100F5000487500084E750008507500084C7500086B
:100F60005275000854750008567500085875000839
:100F70005A7500085C7500085E7500086075000809
:100F800062750008647500086675000868750008D9
:100F90006A7500086C7500086E75000870750008A9
:100FA0007275000874750008767500087875000879
:100FB0007A7500087C7500087E7500088075000849
:100FC0008275000884750008867500088875000819
:100FD0008A7500088C7500088E75000890750008E9
:100FE0009275000894750008967500089A750008B7
:100FF0009C7500089E750008A07500080C1A00205A
:101000008C1D0020A4750008A6750008A8750008AE
:10101000AA750008AC750008AE750008B075000828
:10102000B2750008B4750008A2750008B67500080E
:101030002DE9F04105460E46144600271DB904204F
:101040002070BDE8F08116B90C202070F9E7114836
:10105000007810B112202070F3E72878012808D01A
:10106000022807D0032802D0042804D100E000BFE2
:1010700000BF00BF02E001202070E2E700BFFFF7E1
:1010800083F807466E613846FFF782F8002020702B
:1010900000BFD6E79500002010B500F019F801F068
:1010A000B7FA01F0DFFA01F0FFFA01F081FA01F07E
:1010B00053FA01F093FB01F0BDFB01F035FB01F0A9
:1010C0005BFB00F0FDFF00F009F8FFF703FF10BD28
:1010D0000020014908807047780000207047000018
:1010E00010B500241A480078012830D1FFF74CF8D9
:1010F00004461848007820B116480078401E15496B
:10110000087014480078F8B913480078E0B901F085
:10111000F3FB12481249097850F821001149086080
:101120000F4800781049097888420DD00D480068B2
:10113000C06B401C0B490968C8630C480068401C20
:101140000A490860FFF73CF82046FFF721F810BD78
:10115000A20000209500002096000020A41000208E
:1011600098000020B0000020970000207C000020A4
:101170002DE9FC5F05460F4691461E460020009073
:1011800025B9622030700020BDE8FC9F15F0030FE8
:1011900003D0622030700020F6E7022F03D25B20DC
:1011A00030700020F0E7B9F1040F03D25C203070FA
:1011B0000020E9E7FEF7E8FF0090164804680068A1
:1011C00020B1144800684068124908600098FEF792
:1011D000DFFF1CB95A2030700020D5E7AA46A84688
:1011E000781E01904FF0000B05E0C844CAF800805B
:1011F000C2460BF1010B01988345F6D30020CAF8D3
:101200000000256065602761E760C4F808903070D1
:101210002046B9E7BC0000202DE9F04104460D4608
:10122000002724B9602028700020BDE8F081FEF777
:10123000ABFF0746206960B166683068606020696E
:10124000401E20613846FEF7A3FF0020287030467C
:10125000EBE73846FEF79CFF5D2028700020E4E7AE
:1012600070B504460D4600260CB9602070BD0DB95E
:101270005F20FBE7FEF788FF0646D4E903108842AB
:1012800004D33046FEF784FF5E20EFE760682860F5
:1012900065602069401C20613046FEF779FF002020
:1012A000E4E72DE9F04106460D464FF0000826B967
:1012B000042028700020BDE8F0813078022803D097
:1012C000012028700020F6E7FEF75EFF8046746874
:1012D000E08A78B12169081D20610F68E08A401E0C
:1012E000E082A1682069884201D160682061002005
:1012F000287002E01F20287000274046FEF748FFB4
:101300003846D8E72DE9F04106460F464FF0000871
:101310002048007810B10020BDE8F081FEF734FFCE
:1013200080461D480468006820B11B48006840687A
:10133000194908604046FEF72BFFFCB1FEF724FF79
:10134000804616480568D5B10068006813490860F2
:101350004046FEF71DFF6E6006EB8700A860EE605A
:101360002E61AF820020E8820220207000202081C0
:1013700065600BA06061204601F0E0F808E00648D7
:1013800000686060044804604046FEF701FF0024E6
:101390002046C1E79500002080000020C00000200A
:1013A0003F0000002DE9F0470446894615464FF0FE
:1013B000000A24B9042028702046BDE8F087207870
:1013C000022803D0012028702046F6E7354800782F
:1013D00018B10F2028702046EFE7FEF7D5FE8246B1
:1013E000A07A10B14FF0010801E04FF00008B9F108
:1013F000000F03D0B9F1010F49D121E0B8F1000F7E
:1014000017D129A0606166682848006830602748C5
:10141000066000202070264800686060002020815F
:10142000234804605046FEF7B3FE002028700027D2
:1014300005E05046FEF7ACFE4920287027462DE017
:1014400005E0002304221946204600F0A5FFA07AFB
:101450000028F6D114A06061666814480068306006
:10146000124806600020207011480068606000206B
:1014700020810F4804605046FEF78AFEB8F1010F44
:1014800001D101F0FFF900202870002706E0504646
:10149000FEF77EFE07202870274600BF00BF3846B3
:1014A0008BE70000950000203F000000C0000020F6
:1014B0008000002070B5054600260DB9042070BDDF
:1014C0002878022801D00120F9E7FEF75DFE0646E4
:1014D0006C686068E060606820610020E0823046EF
:1014E000FEF756FE0020EAE72DE9F047064688465B
:1014F00015464FF0000926B9042028700020BDE8E9
:10150000F0873078022803D0012028700020F6E709
:101510003D48007818B1022028700020EFE73B48D2
:10152000007818B10D2028700020E8E7FEF72CFEA7
:1015300081467468E08A98B12169081D20610F68AE
:10154000E08A401EE082A1682069884201D160687B
:1015500020614846FEF71CFE002028703846CEE782
:101560002B48006890F8340040F0040028490968CE
:1015700081F8340000202649096881F835002448A4
:101580000068C0F83080304600F096FF4846FEF70D
:10159000FFFD01F077F9FEF7F7FD81461C48006872
:1015A00090F8350020B101280DD002280AD105E0BD
:1015B00017480068476A002028700DE000270E20B9
:1015C000287009E000BF31461148006800F032FF82
:1015D00000270A20287000BF00BF00200C490968BE
:1015E00081F834000A49096881F83500084909681A
:1015F000C8610749096808620549096848624846A0
:10160000FEF7C6FD38467AE79500002096000020D8
:10161000A80000202DE9F04105460E46002715B927
:101620000420BDE8F0812878022801D00120F8E7E5
:10163000FEF7AAFD0746A87A60B1002304223146CE
:10164000284600F0A9FE3846FEF7A2FD01F01AF97F
:101650000020E6E76C68E08AA18A884204DB38460D
:10166000FEF796FD1E20DCE7E168081DE0600E60D5
:10167000E08A401CE082D4E90210884201D160680F
:10168000E0603846FEF784FD0020CAE710B500246C
:101690000B480078012811D1FEF776FD0446094871
:1016A000007840B908480078FF2804D2064800783E
:1016B000401C054908702046FEF76AFD10BD000079
:1016C000A2000020950000209600002010B5002404
:1016D00013480078012821D1FEF756FD0446114831
:1016E0000078C0B10F480078401E0E4908700846C7
:1016F000007860B90C48007828B92046FEF748FD0C
:1017000001F0C0F80AE02046FEF742FD06E0204660
:10171000FEF73EFD02E02046FEF73AFD10BD000058
:10172000A2000020960000209500002070B505461C
:1017300000261048007808B1002070BDFEF724FD97
:1017400006460D480468006820B10B4800684068F0
:10175000094908603046FEF71BFD4CB1032020709C
:1017600025810020606005A06061204600F0E6FE53
:101770002046E2E795000020800000203F000000A6
:101780002DE9F0470446884615464FF0000924B974
:10179000042028702046BDE8F0872078032803D075
:1017A000012028702046F6E72C48007818B10F2059
:1017B00028702046EFE7FEF7E7FC8146A07A08B1E3
:1017C000012700E00027B8F1000F03D0B8F1010FA6
:1017D0003AD119E08FB922A0606100202070214821
:1017E00000686060002020811E4804604846FEF7C3
:1017F000CFFC00202870002605E04846FEF7C8FC14
:1018000049202870264626E005E0002301221946DB
:10181000204600F0C1FDA07A0028F6D110A060613A
:10182000002020700F4800686060002020810D4873
:1018300004604846FEF7ACFC012F01D101F022F80C
:1018400000202870002606E04846FEF7A1FC07208D
:101850002870264600BF00BF30469CE79500002058
:101860003F000000800000202DE9F04105460E46B3
:10187000144600271DB904202070BDE8F0812878A7
:10188000032802D001202070F7E73248007810B119
:1018900002202070F1E73048007810B10D20207050
:1018A000EBE7FEF771FC0746288940B12889401E06
:1018B00028813846FEF76CFC00202070DDE72748C1
:1018C000006890F8340040F001002449096881F86C
:1018D000340000202149096881F835001F4800685C
:1018E0000663284600F0E8FD3846FEF751FC00F09C
:1018F000C9FFFEF749FC07461848006890F8350014
:1019000020B1012809D0022806D102E00020207071
:101910000BE00E20207008E000BF29460F48006849
:1019200000F088FD0A20207000BF00BF00200B4996
:10193000096881F834000949096881F835000749C8
:101940000968C8610549096808623846FEF720FC45
:1019500000BF92E79500002096000020A80000201C
:1019600070B5044600250CB9042070BD207803280A
:1019700001D00120F9E7FEF707FC0546A07A60B127
:10198000002301221946204600F006FD2846FEF7F6
:10199000FFFB00F077FF0020E7E720894FF6FF719B
:1019A000884207D22089401C20812846FEF7F0FBA0
:1019B0000020DAE72846FEF7EBFB3320D5E70000EE
:1019C00010B50B48007890B900F096FF09480078F0
:1019D0000949087009480749097850F82100084961
:1019E00008600846006807490860FEF7D4FB10BD90
:1019F000A20000209800002097000020A4100020E2
:101A0000B0000020A800002010B50024022000F043
:101A10002FFAFEF7B9FB044600200B490860204668
:101A2000FEF7B6FB0A2000F023FAFEF7ADFB0446F2
:101A300005480068054908600120054908702046EE
:101A4000FEF7A6FB10BD0000A40000208C000020C3
:101A50009400002010B504462046FEF799FC10BD06
:101A60002DE9FE4F06460F4690461C464FF00009F2
:101A70003F2C02D92A20BDE8FE8FFEF785FB814668
:101A80001E48007820B14846FEF782FB3C20F2E772
:101A90001B4850F8240058BB0120194941F8240084
:101AA0004846FEF775FB002342463946304600F0B3
:101AB0002BF982460023009301931A465146204693
:101AC000029300F02FFF054635B90E480078012833
:101AD0000CD100F0D7FE09E0FEF756FB814600204E
:101AE000074941F824004846FEF752FB2846C2E762
:101AF0004846FEF74DFB2820BDE70000950000207A
:101B0000A4100020A20000202DE9F04F85B08046EF
:101B1000894692461C46DDE90EB6129F00200390CE
:101B20003F2C03D92A2005B0BDE8F08FFEF72CFB2F
:101B300003902248007820B10398FEF729FB3C204F
:101B4000F1E71F4850F8240088BB01201C4941F8E8
:101B500024000398FEF71CFB3A463046109900F02B
:101B6000F9FF3B4652464946404600F0CDF8049006
:101B7000DDE910125B468DE8860032462046049966
:101B800000F0D0FE054635B90E48007801280CD18A
:101B900000F078FE09E0FEF7F7FA0390002008490C
:101BA00041F824000398FEF7F3FA2846BBE7FFE765
:101BB0000398FEF7EDFA2820B5E700009500002015
:101BC000A4100020A200002010B504462046FEF715
:101BD000E4FB10BD10B5FEF7E1FB10BD2DE9F041AF
:101BE00005460F4614464FF000083F2D05D9FF2D3E
:101BF00003D02A202070BDE8F08117B90C20207096
:101C0000F9E71448007810B112202070F3E7FEF7CE
:101C1000BBFA8046FF2D03D10F48006890F836507C
:101C20000E4850F825602EB94046FEF7B1FA432021
:101C30002070E0E7012E05D14046FEF7A9FA4320C7
:101C40002070D8E737654046FEF7A2FA00202070E2
:101C500000BFD0E795000020A8000020A4100020BD
:101C600010B5FEF7AAFB10BD2DE9F04706460C465D
:101C70004FF0000A3F2E04D9FF2E02D02A20BDE8E3
:101C8000F0870CB90920FAE7002020606060FEF7B9
:101C90007BFA8246FF2E03D11948006890F836601F
:101CA000184850F8265025B95046FEF771FA4320DF
:101CB000E5E7012D04D15046FEF76AFA4320DEE73E
:101CC000288A10F0010F04D15046FEF761FA452032
:101CD000D5E70027D5F80C90D5F808805046FEF7D8
:101CE00057FA00E07F1C58F8041B0029FAD0B8000E
:101CF0002060A9EB0700800060600020BFE70000C3
:101D0000A8000020A410002070B5044610464FF033
:101D100080750560051F28462C606FF00106051FC1
:101D200028462E604FF01236051F28462E604FF0D1
:101D30000336051F28462E604FF00236051F284641
:101D40002E607610051F28462E60051F2846296044
:101D50004FF01136051F28462E604FF01036051F34
:101D600028462E604FF00936051F28462E604FF09A
:101D70000836051F28462E604FF00736051F2846F7
:101D80002E604FF00636051F28462E604FF00536B0
:101D9000051F28462E604FF00436051F28462E608A
:101DA00070BD00002DE9F04105464FF000083F2DC1
:101DB00002D14720BDE8F0813F2D03D3FF2D01D094
:101DC0002A20F7E7FEF7E0F98046FF2D05D12248EB
:101DD000006890F83650012608E01F48006890F827
:101DE0003600A84201D1012600E000261B4850F829
:101DF000254024B94046FEF7CBF94820DAE7012C0C
:101E000004D14046FEF7C4F94320D3E794F8387074
:101E10001348C05D94F83910C943C9B2084010494D
:101E2000C8550846C05D40B994F83A00C043C0B2F6
:101E30000C49097808400B49087094F8340040F0C8
:101E4000080084F834004046FEF7A2F9012E01D1C3
:101E500000F018FD0020ADE7A8000020A41000202D
:101E60009A0000209900002010B5FEF7A7FA10BDD7
:101E700070B5054600261948007800B170BD1848B5
:101E8000007800B1FAE73DB3FEF77EF90646154843
:101E9000006890F838401448005D1249096891F8CC
:101EA0003910C943C9B208400F4908550846005DBA
:101EB00050B90C48006890F83A00C043C0B20B49D2
:101EC00009780840094908700648006805633046EB
:101ED000FEF75EF900F0D6FC00BFCFE795000020CA
:101EE00096000020A80000209A0000209900002001
:101EF0002DE9F04107460C4615461E461B48007862
:101F000010B15520BDE8F0811948007808B13220A1
:101F1000F8E727B91CB915B90EB95420F2E73B2CE4
:101F200001D95120EEE73B2D01D95220EAE7B6F561
:101F30007A7F01D35320E5E7701D642148434FF4B5
:101F40007A71B0FBF1F14FF461607843C4EB041295
:101F500000EB8200284400EBC00202EB001001EB12
:101F600080084046FFF784FF0020CBE79500002063
:101F70009600002070B50025FEF706F905460348D7
:101F800004682846FEF704F9204670BDC40000200E
:101F900070B5002600F076F8FEF7F6F806463348EE
:101FA0000068401C314908603046FEF7F1F83048BF
:101FB0000078012857D12F48007820B1012804D09B
:101FC000022809D103E001250BE0002509E00125E5
:101FD00001202849087004E00125002025490870E7
:101FE00000BF00BF05B970BD2348046837E0FEF7A5
:101FF000CBF80646206B70B3206B401E2063206B2D
:1020000048BB94F8340010F0370F09D014F8340F9F
:1020100000F0C800207001206070A4F1340402E0D8
:10202000002084F8350094F8340010F0080F12D125
:1020300004F13804A0781149097840EA01000F49F9
:10204000087020780E49085C617840EA010014F8B5
:1020500038190B4A505464693046FEF799F894F8E1
:1020600036003F28C3D100BFBDE70000C4000020F8
:10207000A2000020B8000020B40000209900002039
:102080009A00002010B5FEF79AF907480088401C16
:1020900005490880084600880A2803D300200880E4
:1020A00000F004F810BD00007800002010B50348CF
:1020B0000068FFF755FC0446204610BDD400002000
:1020C000F8B54FF42071284800F07EFB40212748E6
:1020D00000F07AFB002514E0681C86B205EB850051
:1020E000214901EBC00406EB860001EBC007642028
:1020F0002070002084F82500E7601DA02062681C85
:1021000085B20F2DE8D305EB8500174901EBC0041C
:1021100064202070002084F82500E06014A0206274
:1021200000201449086014490880102013490880D1
:102130000D48134908600120FFF7F8FA11490860BB
:102140000020FFF7F3FA104908606A460FA10D4816
:102150000068FEF76DFF6A4611A10B480068FEF7A4
:1021600067FF00F027F8F8BD0C1A00208C1D002036
:102170003F000000CC000020CA000020C800002062
:10218000D8000020D0000020D400002075432F4F3D
:10219000532D494920546D724C6F636B0000000051
:1021A00075432F4F532D494920546D725369676E03
:1021B000616C000000B587B00323002240210B486A
:1021C000CDE90323CDE901014FF6FD7300933D23D3
:1021D00000F1FC0200210648FFF796FC06AA05A1C3
:1021E0003D20FFF7FBFC07B000BD00008C1C002069
:1021F0007122000875432F4F532D494920546D72A9
:102200000000000070B50C46032580F82550012C15
:1022100005D1154EC5693668354445610CE08569C0
:102220002DB9114EC56936683544456104E00E4E3E
:102230008569366835444561456905F007030B4DEE
:1022400005EBC3010D682DB908600025C5600125A7
:102250008D8006E00A680860C26010618D886D1C80
:102260008D800025056170BDCC0000208C1D0020F4
:1022700008B500BF00BF6A4600211A480068FFF792
:10228000F3FAFFF703FA18480068401C1649086083
:102290000846006800F00706144800EBC608D8F8A6
:1022A00000401AE0E768104960690968884213D164
:1022B000204600F01DF894F82400022804D10121E2
:1022C0002046FFF79FFF02E0022084F825006568A2
:1022D00015B12046A168A8473C46002CE2D1FFF783
:1022E000F5F9C8E7D4000020CC0000208C1D0020A8
:1022F00030B5456905F007040D4D05EBC4031D68B5
:10230000854205D1C168196039B100250D6104E02D
:102310000169C268CA6002B11161012580F82550C7
:102320000025C56005619D886D1E9D8030BD000043
:102330008C1D0020154909686422B1FBF2F0B0F150
:10234000807F01D301211CE020F07F41491E4FF026
:10235000E022516100BF5117002905DA0F21090160
:102360000B4A0B23D15404E00F210901094A5317EA
:10237000D15400BF00214FF0E0229161072111618B
:10238000002109B100BFFEE7704700006400002093
:1023900018ED00E000E400E02DE9F04F05460F469F
:1023A00090469946A87A1F490E5C05F10B00805DA6
:1023B00011F800B00BEBC60000F0FF0A1A4850F805
:1023C0002A40002004F12404E0602760207C6FEAAA
:1023D0000801C9B200EA0100207484F81190207C41
:1023E000A4F1240410F0080F0DD194F83A000F491D
:1023F000097808430D4908700D48805D94F839103C
:1024000008430B4988552946204600F013F8206AF6
:1024100020B12046216A00F026F8E5615046BDE86B
:10242000F08F0000B8750008A4100020990000206B
:102430009A00002010B590F8382001F10B039B5C46
:1024400090F83940E443E4B2234001F10B04A35473
:1024500023469B5C33B98B7A90F83A40E443E4B26C
:1024600023408B7210BDF0B5024612F8384F9578B4
:102470005678A2F138020B46186819E000F10B07F4
:102480003F5D6FEA060C0CF0FF0C07EA0C0700F149
:102490000B0C0CF8047067463F5D3FB9877A6FEA12
:1024A000050C0CF0FF0C07EA0C0787721B1D18685F
:1024B0000028E3D1F0BD000010B51D4A1268D061BC
:1024C0001B4A126892F8383000F10B02D25C184BAC
:1024D0001B6893F839301A43154B1B6893F8384042
:1024E00000F10B031A55827A114B1B6893F83A30AE
:1024F0001A4382720E4A126892F838100D4A525CE2
:102500000B4B1B6893F83930DB43DBB21A40094BA5
:102510005A541A46525C52B9054A126892F83A2047
:10252000D243D2B2044B1B781A40034B1A7010BD31
:10253000A80000209A0000209900002001460022F7
:102540008A72002005E0002301F10B021354421CA3
:10255000D0B20828F7D370472DE9F0415021114837
:1025600000F032F900250DE0681C86B20D4800EB42
:10257000051400EB06170020207067600AA0E060D9
:10258000681C85B2042DEFD3064800EB051400202B
:102590002070606004A0E060024804490860BDE863
:1025A000F0810000D40E00203F00000084000020D5
:1025B00070B54FF4F071134800F006F9002411E0F3
:1025C000601C85B204EB44000E4901EBC00305EB2F
:1025D000450001EBC006002018705E600AA058613B
:1025E000601C84B2132CEBD304EB4400054901EBCF
:1025F000C00300201870586003A0586108460349C2
:10260000086070BDF40C00203F0000008000002036
:1026100000200A4908600A4908700A4908700A49F6
:1026200008700A4908700A4908600A4908600A499E
:1026300008600A4908600A4908707047C400002011
:102640009500002096000020A3000020A20000209A
:102650007C000020A4000020900000208C000020BE
:102660009400002000210A4A1170002004E000219B
:10267000084A1154411CC8B20828F8D30021064A60
:102680001170064A1170064A1160064A11607047BF
:10269000990000209A000020970000209800002058
:1026A000B0000020A800002070B54FF4F261194876
:1026B00000F08AF84FF48071174800F085F8002484
:1026C00013E0601CC5B204EB440000EBC4001149E8
:1026D00001EBC00305EB450000EBC50001EBC006B4
:1026E0005E610EA01865601CC4B2152CE9D304EB22
:1026F000440000EBC400074901EBC003002058610F
:1027000006A01865002006490860024805490860CF
:1027100070BD0000A4110020A41000203F000000A4
:10272000B4000020AC00002000B587B003230022D5
:1027300020210B48CDE90323CDE901014FF6FF73BA
:1027400000933F2300F17C0200210648FFF7DCF9EB
:1027500006AA05A13F20FFF741FA07B000BD00001F
:1027600024100020692A000875432F4F532D494932
:102770002049646C6500000000B587B00323002287
:1027800040210B48CDE90323CDE901014FF6FE734B
:1027900000933E2300F1FC0200210648FFF7B4F944
:1027A00006AA05A13E20FFF719FA07B000BD0000F8
:1027B000240F0020912A000875432F4F532D4949BB
:1027C000205374617400000004E0002200F8012B23
:1027D0004A1E91B20029F8D17047000070B57821E7
:1027E0001148FFF7F1FF00240EE004EB44000E490E
:1027F00001EBC005601C00EB400001EBC00068600D
:102800000AA06861601C84B2042CEED304EB44007F
:10281000054901EBC0050020686004A06861084616
:102820000349086070BD0000341900203F0000001B
:10283000BC0000202DE9F04160211048FFF7C4FFE3
:1028400000240DE0601C86B204EB44000B4901EB50
:10285000C00506EB460001EBC0072F60601C84B288
:10286000032CEFD304EB4400044901EBC005002026
:102870002860084602490860BDE8F081AC190020D4
:10288000C000002010B50024FDF77EFC044613486C
:102890000078F8B912480078E0B900F02DF8114836
:1028A0001149097850F82100104908600E48007855
:1028B0000F49097888420DD00C480068C06B401C55
:1028C0000A490968C8630B480068401C0949086048
:1028D000FDF771FC2046FDF75BFC10BD9500002064
:1028E00096000020A410002098000020B0000020D6
:1028F000970000207C0000200649074A1278885C77
:102900000649095C034A515C01EBC001044A11709D
:1029100070470000B8750008990000209A00002058
:10292000980000202DE9F84F05460F46904699463D
:10293000DDE90AAB00200090FDF726FC009043483B
:102940000468002C7CD004F11C0454F8080C3F49A6
:1029500008600098FDF71CFC44F81C7CA57600205C
:1029600020766076606144F818BC44F810AC44F8F6
:10297000148C0C9824F80C0C24F80A9C0020E077A6
:10298000E810207705F00700E076217F01208840DD
:10299000A077E17E012088406077002020606060A1
:1029A000E060A0602062A0626062E062206328A014
:1029B0006063A4F11C044FF0000606E0002104F15E
:1029C000540040F82610701CC6B2002EF6D02046E7
:1029D000FFF740F82046FFF7F7F8FDF7D5FB00902A
:1029E0001C4840F825401C48006860610020A06138
:1029F0001948006810B118480068846116480460DE
:102A000004F13804A0781549097840EA0100134917
:102A1000087020781249085C617840EA010014F8D7
:102A200038190F4A50540F48007800F101000D4941
:102A300008700098FDF7ACFB0020BDE8F88FFFE7B9
:102A40000098FDF7A5FB4220F7E70000AC0000204E
:102A50003F000000A4100020B400002099000020D6
:102A60009A000020A3000020002400BF00BFFDF753
:102A70008BFB044605480068401C0449086020465A
:102A8000FDF786FBFFF7A6F8F1E70000A4000020A1
:102A9000002400BF02E01420FFF7EAF9194800788B
:102AA0000028F8D0184800686421B0FBF1F01649FE
:102AB00008600846006828B9002014490870FF2003
:102AC000FFF770F900BFFDF75FFB04461048006890
:102AD0001049086000200E4908602046FDF758FBA9
:102AE0000C48006808490968B0FBF1F0C0F16400C7
:102AF00006490870FFF7B4F800F00EF80A20FFF757
:102B0000B7F9E0E7940000208C0000208800002046
:102B1000A4000020900000207CB5002514E0694648
:102B20002846FFF7A1F8064666B9094850F825403F
:102B300044B1012C06D0D4E9020100EB8100A0646D
:102B40000198E064681CC5B23F2DE8D97CBD000047
:102B5000A410002012F0010F08D012F0020F05D0CF
:102B600002E0491E002308C00029FAD17047000086
:102B700029B1064A52690243044B5A6104E0034AF0
:102B800052698243014B5A617047000000100240B5
:102B900029B1064A926A0243044B9A6204E0034A4E
:102BA000926A8243014B9A62704700000010024013
:102BB00029B1064AD2690243044BDA6104E0034AB0
:102BC000D2698243014BDA61704700000010024075
:102BD00029B1064A92690243044B9A6104E0034A10
:102BE00092698243014B9A617047000000100240D5
:102BF0002DE9F041002100220025002300260024B9
:102C000000278C46DFF86081D8F8048008F00C01BA
:102C100021B1042907D0082959D109E0DFF84C81F6
:102C2000C0F8008058E0DFF84881C0F8008053E029
:102C3000DFF83481D8F8048008F47012DFF82881B6
:102C4000D8F8048008F48035920C0D2A01D0921C2B
:102C500000E0062235B9DFF81C8102FB08F8C0F855
:102C6000008033E0DFF80081D8F82C8008F480364B
:102C7000DFF8F480D8F82C8008F00F0808F1010480
:102C800046B9DFF8EC80B8FBF4F808FB02F8C0F8AE
:102C900000801BE0DFF8D080D8F82C80C8F3031840
:102CA00008F10107DFF8C080D8F82C80C8F30328AA
:102CB00008F1020CDFF8B880B8FBF7F808FB0CF855
:102CC000B8FBF4F808FB02F8C0F8008004E0DFF875
:102CD0009C80C0F8008000BF00BFDFF88C80D8F86F
:102CE000048008F0F0010909DFF88C8018F8013041
:102CF000D0F8008028FA03F8C0F80480DFF8688074
:102D0000D8F8048008F4E061090ADFF86C8018F84C
:102D10000130D0F8048028FA03F8C0F80880DFF802
:102D20004880D8F8048008F46051C90ADFF8488068
:102D300018F80130D0F8048028FA03F8C0F80C80A5
:102D4000DFF82480D8F8048008F44041890BDFF8CC
:102D50002C8018F80130D0F80C80B8FBF3F8C0F8DC
:102D60001080BDE8F08100000010024000127A00DF
:102D700040787D0100093D00400000205000002007
:102D800010B501460022002300204A11012A02D179
:102D9000094C236806E0022A02D1074C236A01E0AD
:102DA000054C636A01F01F02012494401C4201D0CB
:102DB000012000E0002010BD001002400149C87150
:102DC000704700000010024001490867704700008A
:102DD0000000424201460020034AD06A20F47040BD
:102DE0000843D0627047000000100240704710B5E1
:102DF00000F002F810BD0000002100203A4A1268DD
:102E000042F48032384B1A6000BF374A126802F42D
:102E10000030491C10B9B1F5A06FF6D1324A1268E2
:102E200012F4003F01D0012000E0002001285AD117
:102E30002E4A126842F010022C4B1A601A46126891
:102E400022F003021A601A46126842F002021A6067
:102E5000254A5268244B5A601A4652685A601A46EC
:102E6000526842F480625A601A46D26A204B1A4075
:102E70001D4BDA621A46D26A1E4B1A431A4BDA62AB
:102E80001A46126842F080621A6000BF164A126841
:102E900012F0006FFAD0144A526822F47C12124BDE
:102EA0005A601A46526842F4E8125A601A4612688A
:102EB00042F080721A6000BF0B4A126812F0007F65
:102EC000FAD0094A526822F00302074B5A601A46A8
:102ED000526842F002025A6000BF034A526802F090
:102EE0000C02082AF9D1704700100240002002406D
:102EF00000F0FEFF4406010010B5FDF745F9044659
:102F000006480078401C054908702046FDF740F946
:102F1000FFF73EF8FEF7E4F810BD00009500002032
:102F200010B51648006840F00100144908600846D2
:102F30004068134908401149486008460068114933
:102F400008400E4908600846006820F480200860A8
:102F50000846406820F4FE0048600846006820F0FB
:102F6000A05008604FF47F0088600020C862FFF71F
:102F70003EFF4FF000600449086010BD00100240A1
:102F80000000FFF0FFFFF6FE08ED00E010B50020A6
:102F90000D4981F8360040204870FF210A488170B1
:102FA0000021C17001714171817100224021032013
:102FB00002F0FCFB054908600846006810B904A04F
:102FC00000F06AFB10BD0000CC1D0020E0000020D6
:102FD0005442494D5F444C4C5F696E697428293AEC
:102FE00072756E206F7574206F66206D656D6F72DF
:102FF000792E0A002DE9F04706464FF0000900201F
:103000004E4981F814014FF6FF714C48A0F8181191
:103010000021A0F81611012512E0002105EB450260
:10302000474800F8121005EB450200EB42004180D2
:1030300005EB4502424800EB42008180681C85B2E6
:10304000402DEADB00203D49A1F89402A1F8960248
:10305000002420E0204601F059FEC7B2FF2F17D010
:103060004FF0000811E042462146504601F064FE50
:103070004846421C02F0FF0953464246214601F0F1
:10308000B9FE08F1010000F0FF08B845EBDB00E0F5
:1030900003E0601CC4B2102CDCDB00BF27480670C4
:1030A00080F81090012002F0C7FA244948600846D1
:1030B000406810B923A000F0EFFA204900224868C8
:1030C000314602F081FA1D4900224868FF2102F0D2
:1030D00097FA022002F0B0FA184988600846806822
:1030E00010B922A000F0D8FA1449002288683146AD
:1030F00002F06AFA114900228868FF2102F080FA82
:10310000032002F099FA0D49C8600846C06810B95A
:1031100020A000F0C1FA09490022C868314602F037
:1031200053FA06490022C868FF2102F069FA00201C
:10313000024948708870BDE8F087000070CB00201D
:1031400084CC00205442494D5F696E697428293A45
:103150004552524F522C636F6E6E5F6470206973DC
:10316000204E554C4C2E0D0A000000005442494D93
:103170005F696E697428293A4552524F522C636F29
:103180006E6E5F736470206973204E554C4C2E0D2B
:103190000A0000005442494D5F696E697428293A5B
:1031A0004552524F522C636F6E6E5F74702069737C
:1031B000204E554C4C2E0D0A000000002DE9FE4318
:1031C000002002901149486802A902F055FA804691
:1031D000B8F1000F02D04046BDE8FE836A4601A95F
:1031E000029802F02FF9019C2578601C04460678AD
:1031F000671C3C46029882793B463146284601F0DE
:1032000007FD029802F02CF90020E5E770CB0020C2
:103210002DE9FC4104460D461646FF208DF80400BA
:1032200000208DF805008DF80640009032462946B2
:10323000684602F02EF99DF805309DF804200649F5
:103240004868694602F058FA0746684602F017F9DE
:103250003846BDE8FC81000070CB00202DE9FC4120
:1032600004460D46FF208DF8040000208DF805006F
:103270008DF80640009004222946684602F009F9BC
:103280000C4880684068C4719DF805309DF80420A2
:10329000084F0099BF68786803F0F1F8060002D083
:1032A00005A000F0F9F9684602F0E9F83046BDE8FB
:1032B000FC81000070CB00205442494D5F73656E65
:1032C000645F73747265616D696E675F6461746178
:1032D00028293A73656E64206461746120666169AF
:1032E0006C65642E0D0A000010B50121064800F03F
:1032F00051F840B10121044800F03AF800F032FBE7
:1033000008B103F01BFA10BD000C00400EB50121FE
:103310000820FFF74DFC4FF6FE70ADF80400472083
:10332000ADF800000020ADF806001020ADF8020056
:103330006946064800F04EF801221146034800F0A5
:103340003AF80121014800F016F80EBD000C0040CB
:1033500010B504462146054800F039F803E003485B
:1033600000F015F80446012CF9DC10BD000C0040FB
:10337000CA430282704721B1028842F001020280F2
:1033800004E002884FF6FE731A400280704701463F
:10339000888C704730B50246002000230024158A2F
:1033A00005EA0103958905EA010413B10CB1012076
:1033B00000E0002030BD10B51AB183890B43838132
:1033C00004E08389CC43A4B22340838110BD81846F
:1033D00070470000002202881D4B98420ED01D4B02
:1033E00098420BD0B0F1804F08D01B4B984205D0CB
:1033F0001A4B984202D01A4B984204D14FF68F7361
:103400001A404B881A43174B984207D0164B9842E4
:1034100004D04FF6FF431A40CB881A4302808B88B2
:1034200083850B8803850A4B98420BD0094B984241
:1034300008D00E4B984205D00D4B984202D00D4B50
:10344000984201D10B7A03860123838270470000E2
:10345000002C0140003401400004004000080040FE
:10346000000C0040001000400014004000400140EB
:103470000044014000480140704701F40072B2F579
:10348000007F00D100BFCA430280704721B182890A
:1034900042F40052828104E082894DF6FF731A40A3
:1034A0008281704700B585B001212120FFF790FB94
:1034B00001214804FFF77CFB01210820FDF728FCCF
:1034C0002020ADF8100018208DF8130003208DF88F
:1034D000120004A91C48FDF791FB4020ADF8100034
:1034E00004208DF8130003208DF8120004A916485B
:1034F000FDF784FB4FF4E13000900020ADF80400AC
:10350000ADF80600ADF80800ADF80C000C20ADF8E1
:103510000A0069460D4800F04DF840210B48FFF7BE
:10352000ACFF012240F22551084800F01EF80122AC
:1035300040F22771054800F018F801210348FFF711
:10354000A5FF05B000BD000000140140004400408C
:1035500002460020B1F5007F00D100BF13880B4266
:1035600001D0012000E000207047F0B503460024A0
:10357000002600250020A1F510676A3F00D100BF9A
:103580001846C1F3421401F01F06012707FA06F599
:10359000012C01D10C3004E0022C01D1103000E0EC
:1035A00014301AB107682F43076002E00768AF4381
:1035B0000760F0BD2DE9F04786B005460E460024B1
:1035C000A24600BFA1460027B08900B100BF2F4628
:1035D0002C8A4CF6FF700440F08804432C82AC899E
:1035E0004EF6F3100440B0883189084371890843CE
:1035F0000443AC81AC8A4FF6FF400440B0890443D9
:10360000AC8201A8FFF7F4FA1F48874202D1DDF827
:1036100010A001E0DDF80CA0A88910F4004F08D03C
:103620000AEBCA0000EB0A1031684900B0FBF1F860
:1036300007E00AEBCA0000EB0A1031688900B0FB12
:10364000F1F86420B8FBF0F004012009642101FBCB
:103650001089A88910F4004F08D0322000EBC9006F
:10366000B0FBF1F000F00700044308E0322000EB6B
:1036700009106421B0FBF1F000F00F0004432C812D
:1036800006B0BDE8F087000000380140C1F3080231
:103690008280704700BFFEE70FB4054B10B503A949
:1036A000044A029800F018F810BC5DF814FB000002
:1036B000154D0008F001002002E008C8121F08C1E3
:1036C000002AFAD170477047002001E001C1121FA3
:1036D000002AFBD1704700002DE9FF4F89B0044656
:1036E0009B46002596E0252833D10027641C4D4ACF
:1036F000B84601212378203B01FA03F0104202D0A2
:103700000743641CF6E720782E2819D114F8010F1E
:1037100047F004072A280ED06FF02F022078A0F17E
:10372000300109290CD808EB880102EB410100EBBC
:103730000108641CF2E70A98641C50F8048B0A9094
:10374000207800286AD0642808D0692806D0752817
:103750001FD05A460B9990476D1C5AE00A994FF0BA
:103760000A0901C90A91002804DAC0F100004FF0EB
:103770002D0102E0390504D52B218DF820100121FF
:1037800004E0F90701D02021F7E700218A4608AEBE
:103790000CE00A994FF00A0901C90A91F5E7494678
:1037A000FCF791FD01F1300106F8011D0028F6D16A
:1037B000ADEB060000F12009780701D44FF00108B5
:1037C000002041464A46C84500DD881A8046002749
:1037D00006E008A85A46C05D0B9990476D1C7F1CF7
:1037E0005745F6DB04E030205A460B9990476D1C94
:1037F000B8F10001A8F10108F5DC05E016F8010BAD
:103800005A460B9990476D1CB9F10001A9F10109C5
:10381000F4DC641C207800287FF465AF0DB02846E6
:10382000BDE8F08F0928010010B50446012C0ED127
:103830000848006828B1FDF7CDFA00200549086066
:1038400004E0FDF7BDFA01200249086000E000BF76
:1038500000BF10BDE40100202DE9F04105460E46F1
:10386000688910F0010F01D0032000E0022087B228
:10387000062001F08BFD044634B909A0FFF70CFFC8
:103880006FF00400BDE8F08127812089608100206D
:10389000206004F11000606034600020F2E7000056
:1038A0006164645F7061645F7062756628293A6163
:1038B0006C6C6F63206275665F706164206661691D
:1038C0006C65640D0A0000002DE9F04105460E46C6
:1038D000688910F0010F01D0032000E0022087B2B8
:1038E000062001F053FD044634B909A0FFF7D4FEC9
:1038F0006FF00400BDE8F0812781208960810020FD
:10390000206004F11000606034600020F2E70000E5
:103910006164645F7061645F7062756628293A61F2
:103920006C6C6F63206275665F70616420666169AC
:103930006C65640D0A0000000246012070470246D3
:10394000012070477047000010B5002003F0DEF939
:1039500002490860FFF7DAFC10BD000018000020E3
:10396000704700000F48B0F89602401C0D49B1F8AE
:10397000941290FBF1F201FB12000A49A1F89602A1
:103980000846B0F8960200EB4001074800EB410002
:1039900080880449B1F89612884201D1012070470D
:1039A0000020FCE770CB002084CC002070477047DB
:1039B00010B50446206890F9080010F1080F03DAEA
:1039C0002068007A207127E0FD202071206840687F
:1039D00010B320680078012804D002280AD00328F8
:1039E00018D10FE0627A217A2368586800F0C6F88F
:1039F000207110E0627A217A2368586802F06EFB29
:103A0000207108E0627A217A2368586803F0AEFAE0
:103A1000207100E000BF00BF2168C86803F07EF994
:103A200010BD10B504462068406810B9F720207119
:103A300024E020680078012804D002280AD0032856
:103A400018D10FE0627A217A2368586800F0B2F842
:103A5000207112E0627A217A2368586802F05AFBDA
:103A600020710AE0627A217A2368586803F0A2FA8A
:103A7000207102E0FD20207100BF00BF2168C868EE
:103A800003F04CF910BD10B5044601F0A5F9207300
:103A9000A06803F043F910BD10B504460020207162
:103AA0002068406810B9204602F014F82168C86800
:103AB00003F034F910BD000070B50446206890F999
:103AC000080010F1080F03DA2068007A207140E046
:103AD000F62020712068406800283AD020680078DD
:103AE000012804D0022811D0032830D120E0A0689A
:103AF000807921684968C871A5686B792A79296835
:103B00002568686800F073FA207121E013A0FFF7C0
:103B1000C3FDA068807921684968C871A5686B7980
:103B20002A7929682568686802F0A9FC20710FE0ED
:103B3000A068807921684968C871A1684B790A79C1
:103B400021684868002103F076FB207100E000BF87
:103B500000BF2168C86803F0E1F870BD646F5F734F
:103B6000656E6428293A73736E702074687265619B
:103B7000642073656E642E0D0A00000030B50346A4
:103B80000C4600250A48016804E0994201D101254C
:103B900002E009680029F8D100BF5C71DA7125B92B
:103BA00003480068186002480360002030BD000030
:103BB000DC00002010B503460C469C711A7218797F
:103BC00040F0010018710848016804E0994201D1F1
:103BD000002010BD09680029F8D10348006818606A
:103BE000014803600020F4E7DC0000202DE9F04FDD
:103BF00087B080468448006850B984A0FFF74CFD28
:103C0000404601F0BCFE6FF0030007B0BDE8F08F46
:103C1000D8F8044020788710062F0FD077B1042FF2
:103C20000CD0052F0AD088A0FFF736FD404601F0E2
:103C3000A6FE02F006FE6FF00200E6E760780121C2
:103C4000B1EB201F0AD090A0FFF726FD404601F0FF
:103C500096FE02F0F6FD6FF00200D6E76088000ADB
:103C60006188C9B240EA012606EBD6714910B6EB6D
:103C7000410101D1B14602E0701C1FFA80F9B8F889
:103C8000080048450EDA8FA0FFF706FDB8F80820B7
:103C9000494697A0FFF700FD404601F070FE6FF027
:103CA0000200B2E704EB0900801E0290029800882F
:103CB000A0F57F41FF390DD04946204601F097F825
:103CC00040B197A0FFF7E8FC404601F058FE6FF0C6
:103CD00002009AE74946404601F0BCFEA11D201DA6
:103CE000FFF72AFE40B996A0FFF7D6FC404601F048
:103CF00046FE6FF0020088E7002004900120039048
:103D0000A088000AA188C9B240EA01204FEA202A0F
:103D1000A088000AA18840EA0120C0B20690E0888D
:103D2000000AE188C9B240EA01204FEA202BE0886E
:103D3000000AE18840EA0120C0B205906FF0090155
:103D4000404601F052FE40B185A0FFF7A5FC404679
:103D500001F015FE6FF0020057E7584601F0D4F865
:103D6000F8B1294805680EE0E86858B100200390D2
:103D7000DDE90523CDE90032534642462946D5E91F
:103D800003C0E0472D68002DEED1039838B17DA027
:103D9000FFF782FC404601F0F2FDE81E35E7002007
:103DA00033E71948056809E06879584505D1A879CD
:103DB000504502D10120049002E02D68002DF3D17E
:103DC00000BF049840B976A0FFF766FC404601F0BA
:103DD000D6FD6FF0020018E7E86858B1DDE9052369
:103DE000CDE90032534642462946D5E903C0E047B3
:103DF00000200AE770A0FFF74FFC404601F0BFFD2E
:103E00006FF0020001E70000DC00002064705F69D1
:103E10006E70757428293A2064656C657465206439
:103E200070206461746120626563617573652074DC
:103E300068652064705F706362206973204E554C22
:103E40004C2E0D0A0000000064705F696E7075747E
:103E500028293A206470207061636B657420647255
:103E60006F707065642064756520746F2062616492
:103E70002070726F746F636F6C206964656E746913
:103E8000666965722E0D0A0064705F696E707574E4
:103E900028293A6470207061636B65742064726FC6
:103EA000707065642064756520746F2062616420A1
:103EB00070726F746F636F6C2076657273696F6E6A
:103EC0002E0D0A0064705F696E70757428293A645B
:103ED00070207061636B6574206973206C6F6E670E
:103EE0006572207468616E20706275662E0D0A001E
:103EF00064705F696E70757428293A64705F6461DC
:103F000074615F7061645F6C656E3D25642C702D1B
:103F10003E746F745F6C656E3D25642E0D0A000063
:103F200064705F696E70757428293A636865636BA5
:103F300073756D206661696C65642E0A000000006F
:103F400064705F696E70757428293A6470206164CA
:103F50006472657373206572726F722E0A000000BE
:103F600064705F696E70757428293A706275662096
:103F7000686561646572206661696C65642E0D0A0E
:103F80000000000064705F696E70757428293A2023
:103F900064656C65746520706275662E0D0A00009C
:103FA00064705F696E70757428293A20686572655F
:103FB00031330D0A0000000064705F696E70757423
:103FC00028293A206865726531342E0D0A000000F8
:103FD00010B5002001F0DAF904461CB11421204686
:103FE000FCF765F9204610BDC160026170472DE9FC
:103FF000F84304460E4617469846607900F00CFFD9
:1040000005461DB96FF00600BDE8F88343463A4601
:1040100031462046009500F001F8F5E72DE9FF4F05
:104020008BB082460C460A21204601F0DEFCA8B186
:1040300000220A21032001F0B9FB05463DB94FA03B
:10404000FFF72AFB6FF004000FB0BDE8F08F208966
:1040500028B12146284601F087FC00E025460620CD
:104060000890002007900690012005900020049001
:10407000039002900A900AA92046FFF7EDFB50B189
:1040800049A0FFF709FBAC4202D0284601F077FCBB
:104090006FF00200D8E70A98408910F0010F09D0AC
:1040A0000A98D0F804B000208BF800000BF1010052
:1040B000019002E00A9840680190AC4206D1608904
:1040C0000A99498908441FFA80F907E068896189DB
:1040D00008440A99498908441FFA80F94FF6FF718C
:1040E0000198018028460A9901F03EFC6E68089804
:1040F0008100079841EA400006990843307005980E
:104100000101049841EAC00003990843707009F066
:10411000FF004FEA192141EA002070809AF8070059
:104120009AF8051040EA0127F8B2390A41EA00205E
:10413000B080DDE90D1040EA012808F0FF004FEAE9
:10414000182141EA0020F08002983081189840F64A
:104150000603D0F808C029460D9AE04709900620CA
:104160000A9901F029F900200A902060A54203D0A5
:10417000284601F004FC0025099865E764705F7328
:10418000656E64746F5F696628293A636F756C6445
:10419000206E6F7420616C6C6F636174652068655C
:1041A000616465722E0D0A0064705F73656E6474DD
:1041B0006F5F696628293A616464207061645F708A
:1041C000627566206661696C65640D0A0000000016
:1041D0007047704770477047012070472DE9F05FC6
:1041E00080464FF0400A00225146032001F0DEFADB
:1041F000074637B926A0FFF74FFA6FF00400BDE875
:10420000F09F7E68002409E02C48005D30552B4863
:104210002F30015DB01D0155601CC4B2062CF3DBCC
:104220004FF40270B0810020B073F073307478687E
:1042300000F11105042028702048401E90F83B0032
:10424000687000F0A3FDA87000F0A4FDE87000F015
:10425000ADFD686000F0A2FDA86000F0A3FDE8607D
:10426000786800F12109002404E0002009F8040026
:10427000601CC4B21F2CF8DB39464046D8F80C202D
:1042800090478346384601F07AFB5846B7E700006E
:104290006574686263705F646973636F7665725F8B
:1042A0007265706C7928293A72756E206F7574206A
:1042B0006F66206D656D6F72792E0A00CD1D00202E
:1042C0002DE9FC5F824640200090002203200099E7
:1042D00001F06CFA054635B924A0FFF7DDF96FF05F
:1042E0000400BDE8FC9F6E686F68002407E02A4860
:1042F000005D3055FF21B01D0155601CC4B2062C75
:10430000F5DB0020B0714FF40270B0810020B8736B
:10431000F8733874686800F11108022088F800000A
:1043200000F056FD8146002406E019F8041008F15B
:1043300001000155601CC4B20A2CF6DB686800F16C
:104340001C0B002404E000200BF80400601CC4B225
:10435000242CF8DB29465046DAF80C2090470190CF
:10436000284601F00CFB0198BBE700006574686209
:1043700063705F646973636F7665725F7265706C9A
:104380007928293A72756E206F7574206F66206DDA
:10439000656D6F72792E0A00CD1D00202DE9F05F4A
:1043A00083461546284600F0B1F908B9BDE8F09FEC
:1043B000D5F80490686800F111042078012802DB28
:1043C00020780E2826DD14F8041D7EA0FFF764F97E
:1043D00061787CA0FFF760F9A1787AA0FFF75CF91B
:1043E000E27821797BA0FFF757F9617982A0FFF786
:1043F00053F9A17980A0FFF74FF9E17904F10404A2
:104400007DA0FFF749F980A0FFF746F9284601F0A3
:10441000B6FACBE720780C2874D2DFE800F0C906A2
:10442000C92DC998C974C9B7C9C0864890F8360063
:1044300008BB99F80700834908704FF000080BE0AB
:1044400009F1060010F808107E48401C00F808101A
:1044500008F1010000F0FF08B8F1060FF0DB0120C1
:104460007849C8715846FFF72BFF18B176A0FFF7BF
:1044700013F9A1E0A0E09FE0724890F83600002810
:1044800031D1686800F11106701C00F02BFD00B9F5
:1044900092E0F07A6B4981F83B00084690F83B00C7
:1044A0008BF81400402081F83000084690F83B104B
:1044B00080F83110002180F8321080F8331080F835
:1044C000341080F83510303002F0A0F95846FFF76C
:1044D00085FE18B168A0FFF7DFF86DE001205949AB
:1044E00081F8360068E0686800F11106F07A00F0A3
:1044F000DBFC30B16FA0FFF7CFF80020514981F805
:10450000360059E054E04F4890F83600F0B14D487D
:1045100090F83700D0B9686800F11107B7F80100CA
:10452000000AB7F80110C9B240EA0120454988875E
:10453000B7F80300000AB7F80310C9B240EA012037
:104540004049C887012081F8370035E034E03D4814
:1045500090F83600C8B13B4890F83700A8B1394808
:1045600090F8380088B9686800F1140ABAF80000B9
:10457000000ABAF80010C9B240EA01203149A1F896
:104580004000012081F8380016E015E02D4890F831
:104590003A0018B901202B4981F83A000CE029486B
:1045A00090F8390018B90120264981F8390003E054
:1045B0004CA0FFF771F800BF00BF284601F0DFF9FB
:1045C00000BFF3E6707265762069732025642E0DB6
:1045D0000A0000006572726F72206D736720636F4E
:1045E00064652069732025642C7072657620697378
:1045F0002025642E0D0A00006166746572206973BF
:104600002025642E0D0A00006574686263705F697E
:104610006E70757428293A696E636F72726563747F
:1046200020627573206D616E6167656D656E7420C3
:104630006D6573736167657320636F64652E0D0A22
:1046400000000000CC1D00206574686263705F6923
:104650006E70757428293A73656E6420646973639B
:104660006F76657279207265706C79206661696C0D
:1046700065642E0D0A0000006574686263705F69EE
:104680006E70757428293A5442494D2073656E64E2
:104690002061737369676E20616C69617320726554
:1046A00073706F6E7365206D7367206661696C65EA
:1046B000642E0A006574686263705F696E70757459
:1046C00028293A5442494D20726563656976652010
:1046D0007468652073616D6520616C6961732E0A71
:1046E000000000006574686263705F696E707574C5
:1046F00028293A696E636F72726563742062637011
:1047000020747970652E0D0A0000000070B5054612
:104710006C68A08918B9E07B08B9207C60B1FFF70C
:104720005BFD48B905A0FEF7B7FF284601F027F961
:1047300002F086F8002070BD0120FCE76574686215
:1047400063705F696E7075745F636865636B282959
:104750003A696E636F72726563742064617461207C
:104760006672616D652E0A002DE9F04707460E4618
:10477000914698460E21304601F037F990B100225B
:104780000E21032001F012F8054635B919A0FEF7F5
:1047900083FF6FF00100BDE8F0873146284601F045
:1047A000E3F800E035466C684020207084F8019002
:1047B0000020A070E070207160714020A071397DF0
:1047C000E171002121726172A172E17208F0FF00B3
:1047D0004FEA182141EA0020A08129463846FA68AC
:1047E00090478246B54203D0284601F0C8F800241D
:1047F0005046D0E7706275665F68656164657228CF
:10480000293A636F756C64206E6F7420616C6C6FF5
:104810006361746520726F6F6D20666F72206865CA
:10482000616465722E0D0A0008B501214FF4E03075
:10483000FEF79EF901217D20FEF7CAF90420ADF8AC
:10484000000003208DF8020018208DF8030069464F
:104850004348FCF7D3F90620ADF8000003208DF89B
:10486000020018208DF8030069463E48FCF7C6F99F
:1048700043F62010ADF8000003208DF80200182048
:104880008DF8030069463848FCF7B8F901214FF06C
:104890002010FCF73DFA0B20ADF8000003208DF846
:1048A000020004208DF8030069462D48FCF7A6F9A4
:1048B0004FF48060ADF8000003208DF80200042062
:1048C0008DF8030069462848FCF798F90820ADF8F0
:1048D000000003208DF8020004208DF803006946D3
:1048E0002048FCF78BF94FF4F850ADF80000032096
:1048F0008DF8020004208DF8030069461B48FCF780
:104900007DF94FF40050ADF8000003208DF802004F
:1049100010208DF8030069461448FCF76FF94FF436
:104920000040ADF8000003208DF8020004208DF84F
:10493000030069460E48FCF761F94FF48070ADF84A
:10494000000003208DF8020018208DF8030069464E
:104950000348FCF753F9FCF7FBF8FCF748FA08BDED
:104960000008014000100140000C0140001401400B
:10497000001801402DE9F04104460D4660890E28DB
:1049800008DC34A0FEF788FE204600F0F8FF002087
:10499000BDE8F0816668B089000AB189C9B240EA11
:1049A0000127B7F5006F24D0A7F50060023806D0C4
:1049B00004280BD0A0F5F040FE3840D129E0224673
:1049C00005F119012846FFF7E9FC3FE06FF00D0102
:1049D000204601F00AF838B12BA0FEF75DFE204614
:1049E00000F0CDFF002403E029462046FFF7FEF843
:1049F0002CE06FF00D01204600F0F7FF20B12046BB
:104A000000F0BDFF002403E02946204601F09EFB94
:104A10001CE028A0FEF740FE6FF00D01204600F0DC
:104A2000E4FF20B1204600F0AAFF002406E02BA0FE
:104A3000FEF732FE2946204602F0D8FA06E031A001
:104A4000FEF72AFE204600F09AFF00BF00BF0020BC
:104A50009EE7000065746865726E65745F696E70CC
:104A6000757428293A7468652065746865726E6586
:104A700074206672616D6520697320746F6F207396
:104A80006D616C6C2E0A000065746865726E6574E9
:104A90005F696E70757428293A62616420647020C1
:104AA000646174612064656C6574652069742E0DA1
:104AB0000A00000065746865726E65745F696E70E7
:104AC000757428293A67657420747020747970654C
:104AD00020646174612C0D0A000000006574686533
:104AE000726E65745F696E70757428293A676574B3
:104AF00020726967687420747020646174612C0D81
:104B00000A00000065746865726E65745F696E7096
:104B1000757428293A696E636F72726563742065D3
:104B2000746865726E657420747970652E0D0A0064
:104B300070B5044600BF14B90FA0FEF7ADFD00BF6D
:104B4000042000F0B7FA054615B96FF0040070BDF7
:104B50002561682084F82000772121200155104824
:104B6000A0601048E06004F119002860204600F0C1
:104B7000E1F90020EBE7000065746865726E65740A
:104B800069665F696E697428293A6572726F722C62
:104B90006E657469663D3D4E554C4C0A0000000040
:104BA00069470008155000082DE9F0410446FBF75D
:104BB000EBFA0746204600F0F9F906463846FBF7BF
:104BC000E7FA1EB96FF00400BDE8F08121463046D7
:104BD00062689047054635B104A0FEF75DFD30469A
:104BE00000F0CDFE00262846EEE7000065746865FB
:104BF000726E657469665F696E70757428293A69AA
:104C00006E707574206572726F722E0D0A0000004E
:104C10002DE9F04105460C4616461F460A2D6AD27C
:104C2000DFE805F0690513212E3B48556265012C2C
:104C300008DB112C06DA334850F824203946304678
:104C4000904701E000F0E6F858E0012C08DB0E2C5C
:104C500006DA2D4850F8242039463046904701E0C6
:104C600000F0D8F84AE0012C07DB0D2C05DC3A46B1
:104C70003146204601F010F801E000F0CBF83DE0AD
:104C8000012C07DB0D2C05DC3A463146204601F0AD
:104C9000D9F801E000F0BEF830E0012C07DB0D2C64
:104CA00005DC3A463146204602F049FC01E000F0BE
:104CB000B1F823E0012C07DB0D2C05DC3A46314628
:104CC000204602F037FC01E000F0A4F816E0012CC9
:104CD00007DB062C05DC3A463146204601F078FD1C
:104CE00001E000F097F809E001F053F806E02046F3
:104CF00001F0F3F902E000F08DF800BF00BFBDE85D
:104D0000F0810000280100206C01002001460120F4
:104D10007047000070B504460D46E1B20548FEF745
:104D2000B5FC00BF40210348FEF712FC0028F9D073
:104D3000204670BD0044004003460120704700003B
:104D40000148007C7047000070CB0020014840788B
:104D50007047000070CB002010B586B0002001F035
:104D6000D5FF049000218DF814100748019000BF72
:104D700001A801F0A1FD04469DF814000028F7D019
:104D80009DF8140006B010BD873A000810B500F079
:104D9000E7FE10BD10B500F0E9FE10BD10B500F043
:104DA000EBFE10BD10B500F0EDFE10BD10B500F02B
:104DB000EFFE10BD054B9B8F0380044BDB8F0B80F8
:104DC000024BB3F84030138070470000CC1D002028
:104DD000004870471C010020014890F83B007047D4
:104DE000CC1D0020704710B5FFF71EFD10BD024618
:104DF0000020704710B5064C04EB00146170044CA1
:104E000004EB00142270024C04EB0014636010BD2C
:104E100084CB00207047000002460948016805E085
:104E2000087D904201D10846704709680029F7D1F2
:104E30000448006808B90020F6E702480068F3E774
:104E4000000100200401002002460948016805E035
:104E5000087D904201D10846704709680029F7D1C2
:104E60000448006808B90020F6E702480068F3E744
:104E7000000100200401002002460948016805E005
:104E8000087D904201D10846704709680029F7D192
:104E90000448006808B90020F6E702480068F3E714
:104EA00000010020040100200146044890F83B0066
:104EB000884201D1012070470020FCE7CC1D002072
:104EC000014890F838007047CC1D0020014890F848
:104ED00039007047CC1D0020014890F83A00704717
:104EE000CC1D00200246002108E0505C054B5B5CB5
:104EF000984201D000207047481CC1B20A29F4DB57
:104F00000120F8E71C010020014609B9012000E05A
:104F10000020C0B27047014609B9012000E000201E
:104F2000C0B27047014609B9012000E00020C0B2BC
:104F30007047000070B5054606202876002406E07C
:104F40001548015D05F119000155601CC4B2062C1D
:104F5000F6DB40F2DC50E882FBF716F90646022247
:104F60000E490F48FBF7A0FA04220E490E48FBF742
:104F700053FA002407E00C4901EB04100121FBF770
:104F800075FA601CC4B2042CF5DB3046FBF700F95F
:104F9000FBF718FD70BD0000E4000020343600204F
:104FA000541E0020741E0020141E00202DE9FE4314
:104FB0008146002600256846FBF7ACFC009887B2C6
:104FC000DDF8048003223946104600F0EFFB054669
:104FD00065B12C4608E0628908EB06016068FBF7C2
:104FE0004DF9608906442468002CF4D14FF000404C
:104FF000029908600648406910F0800F04D08020B4
:1050000003494861002088602846BDE8FE8300000F
:10501000009002402DE9F04781460E46002500270A
:10502000FBF7B2F88046FBF783FA0746344607E001
:10503000628978196168FBF721F960890544246861
:10504000002CF5D1A8B2FBF71FFD4046FBF7A0F8F6
:105050000020BDE8F087000000B587B09DF818007B
:105060000690FBF7E3F8FCF717F803230022402132
:105070000B48CDE90323CDE90101012300F1FC0236
:10508000002108480093FCF73FFD069006AA06A100
:105090000120FCF7A3FDFCF793FC002007B000BD46
:1050A000F40100209F03000853746172742054615E
:1050B000736B00002DE9F047054615B90020BDE8E7
:1050C000F087E81C20F003050C2D00D20C25B5F567
:1050D000205F01D90020F2E700213448006801F088
:1050E00033FD3348006833490968461A53E03148B4
:1050F00000688419207A00284AD106F10C00216842
:10510000081AA84244D306F10C002168091A05F1D7
:10511000180081421BD306F10C0000EB050925485D
:10512000006800EB090700203872206838607E6054
:10513000C4F80090012020723868B0F5205F08D0D4
:105140001C49386809680844C0F8049001E001204F
:10515000207217480068844213D11548D0F80080A7
:1051600005E01449D8F80000096800EB010898F838
:10517000080018B1104800688045F2D10C48C0F80A
:1051800000800A48006801F0C9FD04F10C0096E7B0
:10519000084800688659C5F52050B042A7D8034892
:1051A000006801F0BBFD002089E70000FC00002042
:1051B000F8000020F0000020F400002070B5044644
:1051C00004B970BD10480068844203D30F480068DA
:1051D000844200D3F5E700210D48006801F0B4FCDB
:1051E000A4F10C05002028720A480068854201D20B
:1051F00008480560284600F0D1FC0548006801F029
:105200008DFD00BFDDE70000F0000020F40000206D
:10521000FC000020F800002010B5144820F0030026
:1052200013490860084604684FF4205020600020AD
:10523000606020720846006800F520500D49086043
:105240000120096808724FF420500A490968086073
:105250000849096848600648006807490860012055
:1052600001F054FD0549086010BD00001742002000
:10527000F0000020F4000020F8000020FC000020D6
:105280002DE9F04781460D46E81C20F003050C2D62
:1052900000D20C25B5F5205F02D90020BDE8F087CB
:1052A00036480068814503D335480068814501D3FD
:1052B0004846F3E7A9F10C0730480068A7EB00085F
:1052C0003868A0EB0800A0F10C0A554501D9002070
:1052D000E4E7554501D14846E0E700212948006848
:1052E00001F032FC2549386809684418207AF8B979
:1052F000206808F10C014E1923490968A14204D124
:105300001E4909683144204A11601C4909688C19FA
:10531000002121722060C4F804803E602168B1F54C
:10532000205F04D0154A2168126811444E601FE0C6
:1053300005F1180050451BD808F10C0046190F481C
:105340000068841910480068844201D20E48046045
:105350000020207238682060C4F804803E60206815
:10536000B0F5205F04D0054920680968084446600C
:105370000448006801F0D2FC48468FE7F0000020A6
:10538000F4000020FC000020F800002070B5054665
:10539000FAF7FAFE0646074850F8254024B10549B9
:1053A000206841F8250000BF3046FAF7F1FE20469C
:1053B00070BD0000306A00202DE9F04104460D4622
:1053C0000DB9BDE8F0812E46FAF7DEFE0746064825
:1053D00050F824003060044840F824603846FAF75A
:1053E000D7FE00BFEDE70000306A002010B5114B7A
:1053F00023F00301002019E000230F4C44F8203073
:1054000000220CE00C4B53F820300B600A4B43F8A1
:1054100020100A4B33F810301944531C9AB2084B31
:1054200033F810309342EDDC431C98B20C28E3DBD8
:1054300010BD0000636A0020306A0020B8760008C2
:10544000D07600080346186810B96FF00100704765
:105450001868406808601868408910800020F6E7E6
:1054600010B5044654B1206820B1206800F087FAD6
:105470000020206021460420FFF79EFF10BD10B5DC
:105480000446206810B1206800F079FA00202060FE
:1054900010BD70B504460E461546206810B1206850
:1054A00000F06DFA02220021084600F07FF920602A
:1054B000206810B96FF0040070BD20684660206855
:1054C0000581206845810020F6E7000070B506469A
:1054D0001820FFF7EFFD044624B922A0FEF7DCF800
:1054E000002070BD0020207226706060012E04D064
:1054F000022E04D0032E06D103E002250CE0642521
:105500000AE0022508E020A0FEF7C6F821460520A3
:10551000FFF752FF0020E4E700BF002001F0F6FB98
:10552000E060E06840B922A0FEF7B6F82146052009
:10553000FFF742FF0020D4E7284601F089FB2061F5
:10554000206958B91DA0FEF7A7F8E06801F0D6FB66
:1055500021460520FFF730FF0020C2E7002020751C
:105560002046BEE76E6574636F6E6E5F616C6C6F34
:105570006328293A616C6C6F63206572726F7220C8
:105580004E554C4C2E0D0A006E6574636F6E6E5F47
:10559000616C6C6F6328293A756E6B6E6F776E2045
:1055A0006E6574636F6E6E20747970652E0D0A00DF
:1055B0006572726F72312E0D0A0000006572726F93
:1055C00072322E0D0A000000F0B585B004460D467B
:1055D00016460A48009001948DF80C508DF80D6025
:1055E000684601F04DF9074694F9080010F1080FDC
:1055F00000DB2772384605B0F0BD0000B139000865
:10560000F0B585B004460D4616460A480090019450
:105610008DF80C508DF80D60684601F031F90746A1
:1056200094F9080010F1080F00DB2772384605B026
:10563000F0BD0000233A000830B585B00546284685
:10564000FFF744FF04469CB10A4800900194684665
:1056500001F016F960B1E06801F050FB206901F03B
:10566000BBFA21460520FFF7A7FE002005B030BD9C
:105670002046FBE7993A00082DE9F04104460D4623
:1056800005B11CB96FF00300BDE8F08100260020D1
:105690002860206908B9301FF6E794F9087017F1FF
:1056A000080F01DA3846EFE7206901F043FA0646B1
:1056B00016B96FF00200E7E72E600020E4E7000073
:1056C00070B586B004460D4604B11DB96FF00300F5
:1056D00006B070BD074801900294049501A801F03E
:1056E000CFF8064694F9080010F1080F00DB267287
:1056F0003046EDE7B93A00082DE9F04107460C467F
:1057000015461E463CB12571667121463846FFF7A5
:10571000D7FFBDE8F0816FF00200FAE72DE9F04114
:1057200004460E4617461D46DDF8188000BF15B921
:105730000FA0FDF7B1FF00BF0020E07726752761BD
:105740001448007884F8220012480078401C11495F
:105750000870C4F804802046A84710B10020BDE8B6
:10576000F0810D48006820600B4804602046F6E791
:105770006E657469665F61646428293A6E6F20699A
:105780006E69742066756E6374696F6E20676976E2
:10579000656E0A000801002000010020704700002B
:1057A0000149086070470000040100202DE9F05F06
:1057B00083460E469046BBF1000F09D0BBF1010FA6
:1057C00008D0BBF1020F07D0BBF1030F08D105E0F1
:1057D000182708E0182706E00E2704E0002702E05B
:1057E0000020BDE8F09F00BFB8F1000F62D0B8F113
:1057F000010F7ED0B8F1020F7CD0B8F1030F77D142
:105800000B20FFF7C3FD04460CB90020E9E784F83C
:105810000C800020206004F110003844C01C20F0EF
:10582000030060602681F81C20F0030040F2DC5188
:10583000081AB04201DD304605E0F81C20F00300F4
:1058400040F2DC51081A60810120E081A2466089A3
:10585000A6EB00092AE00B20FFF798FD05463DB9AD
:1058600030A0FDF719FF284600F089F80020B8E7BE
:1058700085F80C80002068732860CAF80050A5F8ED
:1058800008901FFA89F040F2DC51884202DA1FFAD0
:1058900089F001E040F2DC50688105F11000686099
:1058A0000120E8816889A9EB0009AA46B9F1000F37
:1058B000D1DC30E007F1130121F00302F11C21F0EB
:1058C00003015018FFF7F6FB04460CB9002088E7E7
:1058D00004F110003844C01C20F0030060602681F1
:1058E00066810020206084F80C8014E001E001E073
:1058F0000FE000BF0A20FFF749FD04460CB9002065
:105900006FE70020606026816681206084F80C804B
:1059100001E0002065E700BF0120E0810020607306
:1059200020465EE7706275665F616C6C6F63282964
:105930003A20706275662071206973204E554C4C78
:105940002E0D0A0010B50246104604E003890C89AA
:105950002344038100680368002BF7D103890C8975
:1059600023440381016010BD70B505460C462146F5
:105970002846FFF7E7FF204600F09EF870BD2DE9AE
:10598000F047044614B90020BDE8F087002628E05F
:10599000FAF7FAFB8146E089401E80B2E08180463A
:1059A0004846FAF7F5FBB8F1000F18D12768257BB8
:1059B000032D04D121460B20FFF7FEFC0BE0012D47
:1059C00001D0022D04D121460A20FFF7F5FC02E0A8
:1059D0002046FFF7F3FB701CC6B23C4600E00024F3
:1059E00000BF002CD4D13046CEE770B5024602B1DC
:1059F00009B9002070BD002902DA484284B200E0F3
:105A00008CB2137B55680BB1032B0AD15068401A36
:105A1000506002F110005668864213D25560012092
:105A2000E8E7022B01D0012B0AD1002906DA5089C0
:105A3000A04203DB5068401A506003E00120D9E720
:105A40000120D7E75089084450811089084410810B
:105A50000020CFE72DE9F04106460F463089B842D5
:105A600001DCBDE8F0813089A7EB00083D463446F3
:105A700006E06089281A85B2208940442081246884
:105A80006089A842F5DB207B50B96089A84207D025
:105A90006068001B80B241192046FFF7F1FB044605
:105AA000658160892081206810B12068FFF767FF59
:105AB0000020206000BFD4E770B5044644B1FAF777
:105AC00063FB0546E089401CE0812846FAF760FB4D
:105AD00070BD000010B5044620680078012804D08D
